:100000000C94E3000C940B010C940B010C940B0169
:100010000C940B010C940B010C940B010C940B0130
:100020000C940B010C940B010C940B010C940B0120
:100030000C940B010C940B010C940B010C940B0110
:100040000C94BA090C940B010C94480A0C94040A01
:100050000C940B010C940B010C940B010C940B01F0
:100060000C941D100C940B016932635F616464721F
:100070006573732C6573636170652C657363232CE2
:100080006D6F64650A004572726F722077726974D1
:10009000696E6720746F2066696C650025642C2585
:1000A000642C25642C25640052656D6F7665206391
:1000B0006F6E666967206661696C656400636F6E68
:1000C0006669672E74787400636172642E696E6964
:1000D000740000000000250028002B0066696C6594
:1000E0002E6F70656E00726F6F742E696E6974008A
:1000F000766F6C756D652E696E6974004572726FEE
:1001000072200021546F6F206D616E79206C6F67D3
:10011000733A3221004C4F47253035642E545854E1
:100120000021546F6F206D616E79206C6F67733A98
:100130003121004572726F72206372656174696E5D
:1001400067205345514C4F470A005345514C4F4788
:1001500030302E54585400636F6E6669672E747881
:1001600074003C002900284164723A203078003243
:1001700000310000000000240027002A00000000D9
:1001800000230026002900040404040404040402DB
:100190000202020202030303030303010204081024
:1001A00020408001020408102001020408102000F1
:1001B0000000080002010000030407000000000026
:1001C000000000003B2411241FBECFEFD8E0DEBFAB
:1001D000CDBF26E0A8E9B1E001C01D92AA35B20763
:1001E000E1F711E0A0E0B1E0ECE3F5E502C0059035
:1001F0000D92A839B107D9F710E0C3EED0E004C0E2
:100200002197FE010E945A28C23ED107C9F70E94D9
:10021000D5200C949C2A0C9400009091720380913C
:100220007103981750F4E92FF0E0ED53FD4F208152
:1002300030E09F5F9093720302C02FEF3FEFC90140
:1002400008958091710390E020917203821B9109BF
:10025000089520918D0330918E0380918F039091AA
:1002600090032817390769F080918F0390919003CC
:10027000E0918B03F0918C03E80FF91F808190E0EF
:1002800008958FEF9FEF089580918F0390919003D1
:1002900020918D0330918E0328173907D1F09C01EE
:1002A0002F5F3F4F40918B0350918C03FA01E80F71
:1002B000F91F8081409191035091920324173507D3
:1002C00010F020E030E03093900320938F0390E013
:1002D00008958FEF9FEF08952FB7F89480918D03C5
:1002E00090918E0340918F0350919003841B950B46
:1002F0002FBF97FF06C02091910330919203820F88
:10030000931F089520918503309186038091870380
:100310009091880328173907A9F70895209185033C
:1003200030918603C9010196409183035091840363
:10033000FA01E20FF31F60832091890330918A0351
:100340008217930710F080E090E0209187033091AE
:1003500088038217930711F3909386038093850394
:100360008091C10080628093C10081E090E0089597
:1003700080934A0381E0809311010895EAE4F3E059
:10038000908381837283638384E080931101089555
:10039000FC018081E0E0F1E08287818182608183DD
:1003A0000895CF93DF9381E090E090939F02809334
:1003B0009E02C0E0D1E08B810E94B80189818260F9
:1003C0008983DF91CF910895CF93DF9381E090E00F
:1003D00090939F0280939E02C0E0D1E08A810E94A8
:1003E000B801898182608983DF91CF910895CF938D
:1003F000DF9381E090E090939F0280939E02C0E0A3
:10040000D1E089810E94B801898182608983DF916E
:10041000CF910895CF93DF9381E090E090939F0276
:1004200080939E02C0E0D1E088810E94B80189815A
:1004300082608983DF91CF910895CF93DF931092EB
:100440009B0210929A029091710380917203981707
:1004500029F187E793E00E940D0180939902909122
:10046000710380917203981771F3C0919A02D09131
:100470009B02CE01019690939B0280939A0287E79C
:1004800093E00E940D01C856DE4F8883E0919A02E6
:10049000F0919B02E856FE4F1082E1CFC2E1D1E01D
:1004A00081E0C534D807D1F09881809199029813E2
:1004B00013C0809101018D7F809301018091010122
:1004C000846080930101E981FA8188E991E00995CE
:1004D00010929B0210929A022396E2CFDF91CF9165
:1004E0000895089580E090E00895CF93DF9300D0C1
:1004F000CDB7DEB7CB01642F49835A830E944B11DD
:100500004981842F5A81952F0F900F90DF91CF91C1
:100510000895CF93DF931F92CDB7DEB7698361E073
:10052000CE0101960E944B1181E090E00F90DF9187
:10053000CF910895AF92BF92CF92DF92EF92FF9248
:100540000F931F93CF93DF937B015A018A0101150B
:10055000110509F443C0F894209187033091880372
:100560007894C0908503D0908603C216D30628F4F1
:10057000E9012197CC19DD0909C0C0918903D09107
:100580008A03CC19DD09232B09F421970C171D07C9
:1005900008F4E8018091830390918403AE01B701D0
:1005A0008C0D9D1D0E94692A9E012C0D3D1D809180
:1005B000890390918A032817390710F0281B390BFB
:1005C00030938603209385038091C10080628093DD
:1005D000C1000C1B1D0BEC0EFD1EB9CFC501DF9138
:1005E000CF911F910F91FF90EF90DF90CF90BF9030
:1005F000AF90089504960C94171842E050E0BC01A7
:1006000087E993E00E94A31B87E993E00E941718F3
:10061000E0E0F1E0818182608183089504960C948A
:10062000A31BCF93DF931F92CDB7DEB7698341E061
:1006300050E0BE016F5F7F4F04960E94A31B0F9096
:10064000DF91CF910895CF93DF931F92CDB7DEB79F
:1006500080919703882321F110921101809111015B
:10066000803220F5BE016F5F7F4F87E993E00E94E3
:10067000A212019719F4898190E002C08FEF9FEFD9
:100680008F3F2FEF920791F0E0911101F0E0E65BD0
:10069000FC4F8083809111018F5F80931101DECF29
:1006A00081E0809311018FEF80934A030F90DF91D7
:1006B000CF91089580919E0290919F028130910583
:1006C00041F19CF4892BF1F56091010187E793E0FA
:1006D0000E948902809101018D7F809301018091A8
:1006E00001018B7F80930101089582309105F9F01B
:1006F000039741F54091110150E06AE473E087E708
:1007000093E00E94750280919C0290919D020C944E
:1007100052154091110150E06AE473E087E793E0DD
:100720000E94750210929F0210929E0208954091BD
:10073000110150E06AE473E087E793E00E947502DC
:100740000C94230360E887E793E00C9489021092ED
:100750009F0210929E02FC0120812E3291F4218191
:100760002E3279F482E991E00E943E14882389F0C8
:10077000809101018260809301018091010180617B
:1007800010C00E943E14882321F0809101018260F4
:1007900003C0809101018D7F80930101809101014F
:1007A0008F7E809301010895FF920F931F93CF9343
:1007B000DF93CDB7DEB7C355D1090FB6F894DEBFCE
:1007C0000FBECDBF009709F482C010929F02109215
:1007D0009E0219A21AA264969FAF8EAF64971982E7
:1007E0001A822091DE05207709F471C0FC01808116
:1007F0008F3209F069C06496EEADFFAD64978081D9
:100800008F3231F431966496FFAFEEAF6497F3CF39
:100810006091E4057091E505CE0101960E94C90B37
:10082000882309F454C08E010F5F1F4F80E2F82E19
:10083000AE014E5A5F4FBE016F5B7F4F64968EAD27
:100840009FAD64970E94E616882309F440C0649621
:10085000EEADFFAD64978081882331F120E0AE01D9
:100860004F5B5F4FB801CE0181960E94171981112D
:100870000AC0AE014F5B5F4FB801CE0181960E9466
:100880004D0F882321F1FE01B196DE0111968F2DC7
:1008900001900D928A95E1F7CE0181960E947D0D1F
:1008A0008E010F5F1F4FC4CFAE014F5B5F4FB8018A
:1008B000CE0181960E944D0F882349F0809101015D
:1008C00082608093010103C00EED15E0AFCFCD5AD9
:1008D000DF4F0FB6F894DEBF0FBECDBFDF91CF91D3
:1008E0001F910F91FF90089588EC90E00E94E9130A
:1008F0000E94751480E591E00E94C615811106C022
:100900008CEF90E00E94E9130E9474040E940A1484
:100910008823B1F30E94341481110AC08CEF90E057
:100920000E94E91386EE90E00E94E9130E9475147C
:100930008091010182608093010108950C94C52784
:100940000C94BD27CF93DF939C01DB01F901EB01F0
:100950008991BE01882351F0E90199919E019A3253
:1009600029F0981791F39F3381F328C040E050E0BD
:1009700020E030E09C919923D9F080818A3251F4B3
:10098000CF01019621812223D9F09D012F5F3F4F96
:10099000AC010CC0891711F08F3321F4CF010196FF
:1009A000119604C0D9012F5F3F4FCA01FC01E2CF6D
:1009B00091919A32E9F381E0992319F080E001C026
:1009C00081E0DF91CF9108958091BC008A7B809374
:1009D000BC0060E082E10E94080960E083E10E94BF
:1009E00008090E94C513892B11F489E204C08DE027
:1009F00090E00E94A0040C949013CF92DF92EF92AB
:100A0000FF920F931F93CF93DF938C01FC018181A1
:100A1000853601F56091040170E080E090E04AE0E5
:100A20000E9493146AE871E087E096E00E94ED1F4F
:100A300081E090E090939F0280939E028091040158
:100A4000DF91CF911F910F91FF90EF90DF90CF90AA
:100A50000C94B8010115110509F44CC0F80101907E
:100A60000020E9F7BF01601B710B80E090E00E945D
:100A70008D29EC010097F1F11882B8010E94722AC9
:100A8000CE010E94C7246B017C016DE871E087E014
:100A900096E00E94ED1F40E1C701B6017727882745
:100AA00099270E9493146AE871E087E096E00E941B
:100AB000ED1F88EF8C0D803790F4C0920401609197
:100AC00004018DE090E00E949E0481E08093A402E6
:100AD0000E94E40480910101826080930101CE01B3
:100AE000DF91CF911F910F91FF90EF90DF90CF900A
:100AF0000C94F528C0E0D0E0C12CD12C7601C5CFF4
:100B0000FC01148215821382128282E591E09183A6
:100B1000808308950F931F93CF93DF93CDB7DEB7F4
:100B2000A4970FB6F894DEBF0FBECDBF8C01CE01E7
:100B300001960E94800581E090E090939F0280934F
:100B40009E0220E0A8016EED75E0CE0105960E94A0
:100B5000860D8823A9F0CE0105960E94950C182FCA
:100B6000CE0105960E947D0D112351F08091010167
:100B700082608093010161E070E080E090E008C055
:100B8000809101018D7F809301016FEF7FEFCB0199
:100B90000E94BE01A4960FB6F894DEBF0FBECDBF73
:100BA000DF91CF911F910F91089540E050E0BA017D
:100BB0000C945318CF93DF93EC0183E090E0909373
:100BC0009F0280939E02209721F0CE010E94F5247F
:100BD00002C0CBE4D1E0D0939D02C0939C028EED85
:100BE00095E00E94D505CE010E9452158091010129
:100BF000826080930101DF91CF910895FB01242F42
:100C000060916A0370916B03AF010C94860DCF93D2
:100C1000DF93EC0180919703882321F087E993E02B
:100C20000E947D0D49E1BE0187E993E00E94FE0527
:100C3000C82F8823A1F08091AF039091B003A091B9
:100C4000B103B091B203892B8A2B8B2B41F487E936
:100C500093E00E94D50587E993E00E9417188C2F36
:100C6000DF91CF9108950097D9F010929F021092D2
:100C70009E020E940706882349F08091010182604C
:100C80008093010180910101886008C08091010179
:100C90008D7F8093010180910101877F8093010105
:100CA0000895FF920F931F93CF93DF93CDB7DEB7D5
:100CB000C955D1090FB6F894DEBF0FBECDBFCE0126
:100CC00001960E9480050E94341481110AC08CEFA5
:100CD00090E00E94E91386EE90E00E94E9130E94E2
:100CE00075146DEB70E0CE01805B9F4F0E94EE2487
:100CF00041E0BE01605B7F4FCE0105960E94FE057C
:100D0000882389F0CE0105960E94022081110BC034
:100D100088EA90E00E94E9136AE871E087E096E0D3
:100D20000E94ED1F6FC049E1BE01605B7F4FCE01A5
:100D300005960E94FE058DE090E00E94A004182F09
:100D400085E090E00E94A004082F86E090E00E94D9
:100D5000A004F82E82E090E00E94A0041F928F93DE
:100D60001F92FF921F920F931F921F938CE990E0A6
:100D70009F938F938E010D5B1F4F1F930F930E94C4
:100D80001C25F80101900020E9F73197AF01401BC5
:100D9000510BB801CE0105960E94A31BF8010190EA
:100DA0000020E9F73197E01BF10B0FB6F894DEBF96
:100DB0000FBECDBF8E179F0751F086E890E00E94CE
:100DC000E9136AE871E087E096E00E94ED1F6AE8A7
:100DD00071E0CE0101960E94ED1F8E010B5D1F4F49
:100DE00068E670E0C8010E94EE24F801019000203E
:100DF000E9F73197AF01401B510BB801CE010596C1
:100E00000E94A31BCE0105960E947D0DC75ADF4F9D
:100E10000FB6F894DEBF0FBECDBFDF91CF911F910B
:100E20000F91FF900895CF92DF92EF92FF920F9370
:100E30001F93CF93DF93CDB7DEB7E1970FB6F8944A
:100E4000DEBF0FBECDBF009709F491C08C01CE016B
:100E500001960E94800581E090E090939F0280932C
:100E60009E0220E0A8016EED75E0CE0105960E947D
:100E7000860D882311F18D81807709F465C0CE013C
:100E800005960E949C0B182FCE0105960E947D0DA1
:100E900080910101112341F082608093010161E0A2
:100EA00070E080E090E006C08D7F809301016FEFDD
:100EB0007FEFCB010E94BE015AC08EED95E00E94EB
:100EC000D505C12CD12C7601CE0105960E94D614F1
:100ED000882381F18D8183FF28C0BE016B5D7F4F28
:100EE000CE0105960E94A51F8823F9F0BE016B5D17
:100EF0007F4FC8010E94A2048823B9F0CE01059655
:100F00000E947D0D41E0BE016B5D7F4FCE010596D5
:100F10000E94FE05CE0105960E940220882329F03A
:100F20008FEFC81AD80AE80AF80ACE0105960E947F
:100F30007D0DCACFC701B6010E94BE01809101019B
:100F400082608093010113C0CE0105960E947D0D41
:100F500041E0B801CE0105960E94FE05882329F0E4
:100F6000CE0105960E9402208ECF10E08DCFE19633
:100F70000FB6F894DEBF0FBECDBFDF91CF911F91AA
:100F80000F91FF90EF90DF90CF900895CF93DF9374
:100F9000EC0181E090E090939F0280939E0280910B
:100FA0009703882321F087E993E00E947D0D40E0BC
:100FB000BE0187E993E00E94FE058823D9F0809165
:100FC000AF039091B0032091B1033091B2033093FD
:100FD0004A0320934B0390934C0380934D0384E08A
:100FE0008093110187E993E00E947D0D80910101BA
:100FF000826008C06FEF7FEFCB010E94BE0180913D
:1010000001018D7F80930101DF91CF910895CF93EE
:10101000DF93EC0180919703882321F087E993E027
:101020000E947D0D82E090E090939F0280939E024B
:1010300040E0BE0187E993E00E94FE05882399F015
:1010400080910A01882301F140910A0150E060E09B
:1010500070E087E993E00E945318811115C087E979
:1010600093E00E947D0D809101018D7F80930101AD
:1010700080910101877F8093010181E080931101BC
:101080008FEF80934A030CC00E94230380910101DB
:101090008260809301018091010188608093010149
:1010A000DF91CF9108950F931F93CF93DF93CDB727
:1010B000DEB7A4970FB6F894DEBF0FBECDBF8C018C
:1010C000CE0101960E94800501151105D9F01092FC
:1010D0009F0210929E0241E5B801CE0105960E9442
:1010E000FE05882351F08091010182608093010107
:1010F000CE0105960E947D0D05C0809101018D7F76
:1011000080930101A4960FB6F894DEBF0FBECDBF49
:10111000DF91CF911F910F910895CF92DF92EF92BF
:10112000FF920F931F93CF93DF936C017A018B0192
:10113000C0E0D0E0CE15DF0589F0D8016D918D01BA
:10114000D601ED91FC910190F081E02DC601099549
:10115000892B11F47E0102C02196ECCFC701DF91EB
:10116000CF911F910F91FF90EF90DF90CF90089556
:101170003FB7F8948091AB029091AC02A091AD0280
:10118000B091AE0226B5A89B05C02F3F19F001967D
:10119000A11DB11D3FBFBA2FA92F982F8827820FFD
:1011A000911DA11DB11DBC01CD0142E0660F771F4D
:1011B000881F991F4A95D1F708950E94572A8330B6
:1011C00081F028F4813099F08230A1F008958730C1
:1011D000A9F08830B9F08430D1F4809180008F7DFF
:1011E00003C0809180008F7780938000089584B53C
:1011F0008F7702C084B58F7D84BD08958091B00043
:101200008F7703C08091B0008F7D8093B0000895E8
:101210001F93CF93DF93282F30E0F901E155FE4F64
:101220008491F901E556FE4FD491F901E957FE4F3B
:10123000C491CC23C9F0162F81110E94DF08EC2F36
:10124000F0E0EE0FFF1FEE52FF4FA591B4918FB764
:10125000F894111105C09C91ED2FE095E92302C08F
:10126000EC91ED2BEC938FBFDF91CF911F910895FF
:10127000CF93DF9390E0FC01E556FE4F2491FC01F3
:10128000E957FE4F8491882361F190E0880F991F00
:10129000FC01ED58FE4FC591D491FC01EE52FF4F79
:1012A000A591B491611109C09FB7F89488812095E8
:1012B00082238883EC912E230BC0623061F49FB7A8
:1012C000F8943881822F809583238883EC912E2B8C
:1012D0002C939FBF06C08FB7F894E8812E2B2883EC
:1012E0008FBFDF91CF9108958F929F92AF92BF925F
:1012F000CF92DF92EF92FF926B017C010E94B808BF
:101300004B015C01C114D104E104F104F1F00E942D
:10131000B808DC01CB0188199909AA09BB09883EE4
:101320009340A105B10570F321E0C21AD108E1088C
:10133000F10888EE880E83E0981EA11CB11CC11430
:10134000D104E104F10419F7DDCFFF90EF90DF90B5
:10135000CF90BF90AF909F908F9008952FB7F89443
:101360006091A7027091A8028091A9029091AA02AF
:101370002FBF08951F920F920FB60F9211242F9333
:101380003F938F939F93AF93BF938091A7029091C8
:10139000A802A091A902B091AA023091A60223E06E
:1013A000230F2D3720F40196A11DB11D05C026E89D
:1013B000230F0296A11DB11D2093A6028093A702C0
:1013C0009093A802A093A902B093AA028091AB02C5
:1013D0009091AC02A091AD02B091AE020196A11D18
:1013E000B11D8093AB029093AC02A093AD02B09379
:1013F000AE02BF91AF919F918F913F912F910F902E
:101400000FBE0F901F9018951F920F920FB60F925C
:1014100011242F933F934F935F938F939F93EF9359
:10142000FF932091870330918803809185039091E9
:10143000860382179307D1F0C90101964091830377
:1014400050918403FA01E20FF31F20814091890338
:1014500050918A038417950710F080E090E09093F4
:101460008803809387032093C60005C08091C10044
:101470008F7D8093C100FF91EF919F918F915F913C
:101480004F913F912F910F900FBE0F901F90189585
:101490001F920F920FB60F9211242F933F934F93E9
:1014A0005F936F937F938F939F93EF93FF938091BD
:1014B000C0008C719091C60040918D0350918E03B5
:1014C0009A012F5F3F4F60918B0370918C03FB015A
:1014D000E40FF51F908340919103509192032417DC
:1014E000350710F020E030E040918F0350919003D9
:1014F00024173507C1F030938E0320938D0390910C
:10150000A502892B8093A502FF91EF919F918F9166
:101510007F916F915F914F913F912F910F900FBEEF
:101520000F901F9018958160EACF8EBD0DB407FE15
:10153000FDCF08958FEF8EBD0DB407FEFDCF8EB5A4
:1015400008950F931F93CF93DF93EC0189018D8151
:10155000833039F089E0440F551F661F771F8A9545
:10156000D1F79A01AB0168E1CE010E94331D8823B7
:1015700011F082E330C08EEF0E94950AF80180815D
:101580008EBD818132961E5F0DB407FEFDCF8EBDEC
:10159000E017F10711F08191F7CF0DB407FEFDCFF1
:1015A0008FEF0E94950A8FEF0E94950A0E949A0A77
:1015B0008C838F71853031F087E58883CE010E945E
:1015C000051D0AC060ED77E0CE010E94EA1C182FCD
:1015D000811107C08AE58883CE010E94051D10E0B5
:1015E00012C020E030E0A9016DE0CE010E94331D61
:1015F000811104C00E949A0A882311F089E2EBCF7E
:10160000CE010E94051D812FDF91CF911F910F9177
:10161000089585ED8093BC008091BC0084FDFCCFD3
:1016200010926E030895E091A202F091A302309708
:1016300029F01092700310926F0309940895AC0181
:10164000E091A002F091A1023097E1F09091720335
:10165000809171039817B0F090E0292F30E02617A1
:10166000370754F4DA01A20FB31F8C91D901AD539F
:10167000BD4F8C939F5FF1CF109272036093710303
:10168000CB01099408950895E0917203809171034C
:10169000E81730F4F0E0ED53FD4F808190E00895BD
:1016A0008FEF9FEF0895FF920F931F93CF93DF93D8
:1016B0001F92CDB7DEB78C01FC0180899189A28988
:1016C000B3899C01AD0175E05695479537952795EF
:1016D0007A95D1F7F22FFF70FF2E11F0611114C02F
:1016E000BE016F5F7F4FC8010E94A212813019F0C6
:1016F00080E090E01AC0F80180899189A289B389BD
:101700004F96A11DB11D04C08096A11DB11DF80109
:10171000808B918BA28BB38BF80186819781879602
:10172000F0E2FF9E800D911D11240F90DF91CF916B
:101730001F910F91FF900895CF93DF93FC012081BB
:1017400024FF23C0EC010E94D50561E0CE010E9478
:10175000530B009721F48981882369F016C0FC019E
:101760002081222341F0253E81F32E3271F38385BF
:1017700083FDEBCF0AC088E088838A8182608A83F8
:10178000CE01DF91CF910C94022080E0DF91CF91C8
:101790000895FC018081811114C080E2DF01982F3F
:1017A0001D929A95E9F777836683DB0115969C91E4
:1017B000903119F0903229F480E4808381E08283B3
:1017C000089580E008958F929F92AF92BF92FF920A
:1017D0000F931F93CF93DF93EC01F22E80E2DE0193
:1017E0001D928A95E9F7FB01868197819F838E83FD
:1017F0005D834C83848C958CA68CB78C8886998667
:10180000AA86BB86FA01EF70FF27DC01979635E0C8
:10181000EE0FFF1F3A95E1F7AD014E0F5F1FDA01A2
:101820001B962C9123FD6FC09C012E0F3F1FD901E9
:10183000D2962C9127712883DA011B963C9138713E
:1018400011F4286028830B832F2D2370213051F051
:1018500028F0223009F057C023E005C0F5FC53C042
:1018600021E001C022E02A832A8121FF04C03881BF
:10187000317109F048C03F2D3878232B2A83DC01D1
:1018800093964D915D916D917C9196974C8B5D8B6C
:101890006E8B7F8BE80FF91F43AD54AD60E070E0B5
:1018A000BA0155274427DF01AF5BBF4F0D911C9153
:1018B00020E030E0402B512B622B732BF5FE0AC049
:1018C000411551056105710509F10E94521F8111F1
:1018D0001DC019C04C8F5D8F6E8F7F8FED5BFF4FEA
:1018E00080819181A281B381888F998FAA8FBB8FCC
:1018F000F2FE10C0488D598D6A8D7B8DCE010E94FD
:101900005318811107C0188280E005C08A81846065
:101910008A83EECF81E0DF91CF911F910F91FF90ED
:10192000BF90AF909F908F9008958F929F92AF92AB
:10193000BF92CF92DF92EF92FF920F931F93CF93BC
:10194000DF93CDB7DEB7A0970FB6F894DEBF0FBE1A
:10195000CDBFFC0119821A829081907709F4B9C039
:101960007F01CF010E94D505F70180889188A28868
:10197000B38860E0C7010E94530B009729F4F70178
:1019800081818823A9F0A5C0FC012081222381F058
:10199000253E51F32E3241F3838583FDE5CF8981C6
:1019A000811197C0F7018081807709F492C00AC045
:1019B000F7018081807621F4C7010E949C0B8AC0C8
:1019C00081E088C085E0B694A794979487948A951F
:1019D000D1F764018114910449F1A40141505109E6
:1019E00060E070E025E0440F551F661F771F2A95C1
:1019F000D1F7C7010E945318882309F46AC060E038
:101A0000C7010E94530BFC01892B09F462C0838536
:101A10008F3079F480818F71813059F41585082DCC
:101A2000F5E1CF16D10438F004E105C0C7010E94EA
:101A3000D50500E010E060E0C7010E94530B00975D
:101A400009F447C0FC012081253E09F442C022234D
:101A500009F43FC02E32E9F1002321F00E9404185E
:101A6000181337C020E0A401B701CE0101960E94EF
:101A7000E30B882371F1898184FF05C0CE010196B3
:101A80000E94950C07C08B8182608B83CE010196EA
:101A90000E9402208823E9F0FFEF8F1A9F0AA40119
:101AA00060E070E095E0440F551F661F771F9A9520
:101AB000D1F7F70180899189A289B38984179507A5
:101AC000A607B70709F450CFC7010E945318811128
:101AD0004BCF80E0A0960FB6F894DEBF0FBECDBF0F
:101AE000DF91CF911F910F91FF90EF90DF90CF90FA
:101AF000BF90AF909F908F900895CF93DF93EC01AC
:101B00000E9417181882DF91CF910895CF92DF922B
:101B1000EF92FF920F931F93CF93DF93CDB7DEB772
:101B2000E3970FB6F894DEBF0FBECDBF7C018B01EB
:101B30005BAB4AABD22E19821A82FC0180818823CA
:101B400011F080E059C0FB0180818077D1F3EAA9D0
:101B5000FBA980818F32D9F4EAA9FBA980818F3259
:101B600021F43196FBABEAABF7CFF80166817781C0
:101B7000811104C0C7010E94C90B3EC0CE0101966D
:101B80000E94C90B8823E9F28E010F5F1F4F80E28C
:101B9000C82EAE014E5C5F4FBE016F5D7F4F8AA9BC
:101BA0009BA90E94E616882361F2EAA9FBA980811D
:101BB0008823D1F020E0AE014F5D5F4FB801C7012F
:101BC0000E941719882309F4BCCFF701DE01119692
:101BD0008C2D01900D928A95E1F7C7010E947D0D31
:101BE0008E010F5F1F4FD5CF2D2DAE014F5D5F4F83
:101BF000B801C7010E941719E3960FB6F894DEBF2B
:101C00000FBECDBFDF91CF911F910F91FF90EF904D
:101C1000DF90CF900895CF93DF93EC01262F4C896E
:101C20005D896E897F898E819F8180960E94211EA9
:101C3000009761F02C813D812F70332745E0220F02
:101C4000331F4A95E1F7820F931F02C080E090E0B6
:101C5000DF91CF9108953F924F925F926F927F9262
:101C60008F929F92AF92BF92CF92DF92EF92FF92AC
:101C70000F931F93CF93DF9300D000D0CDB7DEB783
:101C80004C01FC0182818460828344845584668493
:101C90007784A680B780F501C084D184E284F38480
:101CA000C414D504E604F704C0F47301620110E023
:101CB000FFEFCF1ADF0AEF0AFF0AF501808D918D41
:101CC000A28DB38D8C159D05AE05BF0540F4111195
:101CD00032C0C084D184E284F38411E0E9CFC4141B
:101CE000D504E604F70439F19E012F5F3F4FB70199
:101CF000A601C5010E94D31E87FD1DC08823C1F225
:101D000089819A81AB81BC81892B8A2B8B2B81F6AF
:101D1000112329F0F501C086D186E286F3860FEF04
:101D20001FEF2FEF3FE0B701A601C5010E94611E22
:101D3000382E811102C0312C15C0411451046104A8
:101D4000710431F4F401C486D586E686F7860AC0AC
:101D500097018601B301A201C5010E94611E811194
:101D6000F1CFE9CF832D0F900F900F900F90DF915F
:101D7000CF911F910F91FF90EF90DF90CF90BF9088
:101D8000AF909F908F907F906F905F904F903F901B
:101D900008958F929F92AF92BF92EF92FF920F930E
:101DA0001F93CF93DF93EC01888185FF02C010E081
:101DB00068C088899989AA89BB8981159E4FAF41DE
:101DC000B105A8F7CE010E942B0E182F882379F3B6
:101DD000EE81FF814C855D856E857F85425051097E
:101DE00061097109048004C0440F551F661F771FE5
:101DF0000A94D2F780889188A288B388840E951EB1
:101E0000A61EB71E25E0B501A401CF0180960E9451
:101E1000211E7C01892B59F280E092E0F7019C01A0
:101E2000119221503040E1F701E0EE81FF81928173
:101E3000091780F49701B501A401400F511D611DE0
:101E4000711D808191810E94A10A882309F4AFCF7E
:101E50000F5FEBCF492F50E060E070E089E0440F66
:101E6000551F661F771F8A95D1F788899989AA8996
:101E7000BB89480F591F6A1F7B1F488B598B6A8B80
:101E80007B8B812FDF91CF911F910F91FF90EF906E
:101E9000BF90AF909F908F900895AF92BF92CF92D6
:101EA000DF92EF92FF920F931F93CF93DF93CDB703
:101EB000DEB7A0970FB6F894DEBF0FBECDBF8C0182
:101EC000DB019C91907709F4A6C07B0122E5C80153
:101ED0000E941719882309F49EC081E0F8018283CB
:101EE00080E1D82ED082C8010E94C90E882309F44F
:101EF00092C0F80184859585A685B785848F958FD6
:101F0000A68FB78FC8010E94D505C8010E94171877
:101F1000882309F480C061E0C8010E940B0E00977D
:101F200009F479C0DC011B96DC9220E2FC01DE01A1
:101F3000119601900D922A95E1F7FC01A488B588CD
:101F4000C28CD38C8EE28983FE013296CE010C9630
:101F500020E22193E817F907E1F7D8011696ED91F1
:101F6000FC9117975C964D915D916D917C915F9777
:101F70004250510961097109048004C0440F551F82
:101F8000661F771F0A94D2F780899189A289B38945
:101F9000480F591F6A1F7B1F21E0CF0180960E94C6
:101FA000211E0097C1F1BE8AAD8ADC8ECB8E20E265
:101FB000FE013196DC0101900D922A95E1F72EE2A7
:101FC0002A83F701448D558D668D778D7E8B6D8BC1
:101FD0005C8F4B8F20E2FE013196DC0190960190E0
:101FE0000D922A95E1F7D80116968D919C9117973D
:101FF0008096A0960FB6F894DEBF0FBECDBFDF91DE
:10200000CF911F910F91FF90EF90DF90CF90BF90F5
:10201000AF900C94DE1D80E0A0960FB6F894DEBF62
:102020000FBECDBFDF91CF911F910F91FF90EF9029
:10203000DF90CF90BF90AF9008951F920F920FB690
:102040000F9211242F933F934F935F936F937F933E
:102050008F939F93AF93BF93EF93FF938091B900BA
:10206000887F803609F49CC068F5883209F45BC02B
:1020700090F4803109F454C038F4882309F4F6C090
:10208000883009F44DC0F6C0883109F44CC0803264
:1020900009F45DC0EFC0803409F468C048F48033AF
:1020A00009F455C0883309F0E5C080932603D8C0F1
:1020B000803509F44FC0883509F45DC0883409F0D3
:1020C000D9C0D6C0883909F4C7C0A8F4883709F444
:1020D00067C038F4883609F463C0803709F460C0FB
:1020E000C9C0883809F4B8C0803909F45FC08038A5
:1020F00009F0C0C05BC0803B09F486C038F4803A68
:1021000009F466C0883A09F47FC0B4C0803C09F481
:10211000A7C0883C09F4A4C0883B09F48AC0AAC0BF
:102120008091490310C0909148038091470398170C
:1021300070F5E091480381E08E0F80934803F0E052
:10214000E95DFC4F80818093BB0085EC86C0809365
:1021500026038EC0E091480381E08E0F80934803F0
:102160008091BB00F0E0E95DFC4F808390914803D3
:10217000809147036EC0E091480381E08E0F809309
:1021800048038091BB00F0E0E95DFC4F80838091C3
:102190006D0381116DC081E080936C0384EA61C09E
:1021A00083E080936E0310922503CFCF80912503A7
:1021B000803208F051C0E091250381E08E0F8093BA
:1021C00025038091BB00F0E0EB5FFC4F8083BDCF27
:1021D00085EC8093BC0010926E03809125038032C1
:1021E00030F4E0912503F0E0EB5FFC4F108260914A
:1021F000250370E0E0917303F091740385E093E0B0
:1022000009951092250336C084E080936E031092E6
:10221000040310920303E0917503F091760309958E
:1022200080910303811105C081E080930303109224
:10223000E302E091040381E08E0F80930403F0E059
:10224000ED51FD4F80818093BB00909104038091FC
:102250000303981708F479CF85E88093BC000AC07F
:1022600085EC8093BC0010926E0304C0109226038C
:102270000E94090BFF91EF91BF91AF919F918F91B8
:102280007F916F915F914F913F912F910F900FBE72
:102290000F901F90189540910303262F30E0240FD4
:1022A000311D21323105DCF420916E032430C9F454
:1022B000FC0180E090E0861758F4309103032191EF
:1022C000DC01AD51BD4FA30FB11D2C930196F3CF8F
:1022D00080910303680F6093030380E0089581E019
:1022E000089582E008958F929F92AF92BF92CF920D
:1022F000DF92EF92FF92CF93C82F1092BC0381E040
:1023000090E0A0E0B0E08093BF039093C003A0935F
:10231000C103B093C20387EB93E09093D9038093FA
:10232000D8031092D7038FEF9FEFDC018093DA037D
:102330009093DB03A093DC03B093DD03CC2331F156
:10234000C53008F0DCC020E040E050E0BA0187ED85
:1023500093E00E94211E009709F4D1C020E1C29FA2
:10236000800D911D11244097FC01E254FE4F208105
:102370002F7709F0C4C0389680809180A280B38006
:1023800081149104A104B10421F4B9C0812C912CD1
:10239000540120E0B501A40187ED93E00E94211EC5
:1023A000FC01892B09F4ABC083859485811592408B
:1023B00009F0A5C08089823009F0A1C04685578503
:1023C0004115510509F49BC025852093B9038FEF72
:1023D000820F8093BA0380E091E0291751F031E039
:1023E000380F393019F48093BB0389C0990F832FBC
:1023F000F4CF8093BB03C688D788C114D10419F0E9
:10240000E12CF12C04C0C4A0D5A0E6A0F7A0C09296
:10241000C303D092C403E092C503F092C603D50172
:10242000C401840F951FA11DB11D8093CB03909310
:10243000CC03A093CD03B093CE032189328930938E
:10244000BE032093BD03CC0CDD1CEE1CFF1CC80E8C
:10245000D91EEA1EFB1EC092D303D092D403E09291
:10246000D503F092D60355E0220F331F5A95E1F7BA
:1024700021503E4F232F33272695C20ED31EE11C39
:10248000F11CC092C703D092C803E092C903F09236
:10249000CA03238934892115310521F0C901A0E03F
:1024A000B0E004C080A191A1A2A1B3A1B501A40193
:1024B0004C195D096E097F09480F591F6A1F7B1F60
:1024C0000090BB0304C076956795579547950A948D
:1024D000D2F7DB01CA010196A11DB11D8093CF0384
:1024E0009093D003A093D103B093D203453F8FE0E4
:1024F00058076105710528F48CE08093BC0380E0E7
:1025000017C0453F5F4F6105710510F480E10DC0B4
:1025100084A595A5A6A5B7A58093D3039093D403CE
:10252000A093D503B093D60380E28093BC0381E0EF
:10253000CF91FF90EF90DF90CF90BF90AF909F90A2
:102540008F9008958F929F92AF92BF92DF92EF92F9
:10255000FF920F931F93CF93DF93EC017B01988140
:10256000992309F442C08A8180FF3FC093FF48C08D
:10257000488D598D6A8D7B8D088919892A893B89F7
:10258000401B510B620B730B423051056105710505
:1025900090F1488959896A897B898A01117095FD72
:1025A00048C0EE81FF81D3804A015B0189E0B69487
:1025B000A794979487948A95D1F7D820011511058F
:1025C00009F064C0D11062C0452B462B472B09F49B
:1025D00042C04C855D856E857F859E01245F3F4F9F
:1025E000CF010E94D31E87FF46C089818260898304
:1025F0008FEF9FEF89C0452B462B472B51F610C01C
:1026000095FFC7CFEE81FF818681978125E0880FF6
:10261000991F2A95E1F7288939898217930719F4B8
:1026200080E090E06DC0488959896A897B898A0178
:10263000117099E076956795579547959A95D1F7DA
:10264000EE81FF81848D958DA68DB78D480F591F22
:102650006A1F7B1F39C096FF05C0848D958DA68D9E
:10266000B78D04C08C8D9D8DAE8DBF8D8C879D8761
:10267000AE87BF870BC0811109C08881807709F4BC
:10268000B4CF81E090E021E030E03CC0EE81FF81FA
:102690004C855D856E857F854250510961097109C0
:1026A000048004C0440F551F661F771F0A94D2F799
:1026B00080899189A289B389480F591F6A1F7B1F9E
:1026C0004D0D511D611D711D8E819F8120E08096F1
:1026D0000E94211E009709F488CFFC01E00FF11F32
:1026E0008081F701808388899989AA89BB890196AD
:1026F000A11DB11D888B998BAA8BBB8B81E090E0CB
:1027000020E030E0821B930BDF91CF911F910F915E
:10271000FF90EF90DF90BF90AF909F908F900895C3
:10272000880F8093BA0083E19BE0909376038093B7
:1027300075038FE19BE09093740380937303109271
:102740007203109271031092700310926F03109233
:102750006E0381E080936D0310926C0361E082E16F
:102760000E94080961E083E10E940809E9EBF0E0BA
:1027700080818E7F808380818D7F808388E48093B9
:10278000B80085E48093BC000895CF93DF93E2EB1B
:10279000F1E08491EEE9F1E0D491EAE8F1E0C4914E
:1027A000CC2391F081110E94DF08EC2FF0E0EE0FB6
:1027B000FF1FE358FE4FA591B491EC91ED2381E00A
:1027C00090E021F480E002C080E090E0DF91CF91C2
:1027D00008950F931F93CF93DF938C01C0E0D0E057
:1027E000F801EC0FFD1F6491662371F0E09107067C
:1027F000F09108060190F081E02D87E096E00995C0
:10280000892B11F02196ECCFCE01DF91CF911F9152
:102810000F9108958EEF95E09093B8038093B703DE
:102820008EED95E00E947D0D81E00E94731188235A
:1028300049F067EB73E08EED95E00E94C90B8823A9
:1028400031F007C080E00E9473118111F2CF80E067
:1028500008959091DE059077D1F32EED35E0309319
:102860006B0320936A0308958EED95E00E947D0D21
:1028700067EB73E08EED95E00C94C90BCF93DF937B
:10288000CDB7DEB7A0970FB6F894DEBF0FBECDBFB1
:1028900019821A82FC0120812F3231F42181211109
:1028A00003C00E94341418C020E0AC016EED75E046
:1028B000CE0101960E94860D882371F09981907750
:1028C00051F090E2FE013196AEEDB5E001900D922F
:1028D0009A95E1F701C080E0A0960FB6F894DEBFAC
:1028E0000FBECDBFDF91CF910895C3E061E085E0D9
:1028F0000E94080968EC70E080E090E00E94740992
:1029000060E085E00E94080968EC70E080E090E0FB
:102910000E947409C15051F760ED77E080E090E0CB
:102920000E947409E2CF8F929F92AF92BF920F9351
:102930001F93CF93DF93CDB7DEB7A1970FB6F8946F
:10294000DEBF0FBECDBF19A2423008F44AE08E01AF
:102950000F5D1F4F842E912CA12CB12CA501940149
:102960000E943828E62FB901CA0101501109EA3046
:1029700014F4E05D01C0E95CD801EC93232B242B17
:10298000252B61F7B80187E096E00E94ED1FA19624
:102990000FB6F894DEBF0FBECDBFDF91CF911F9170
:1029A0000F91BF90AF909F908F900895AF92BF927C
:1029B000CF92DF92EF92FF920F931F93CF93DF930B
:1029C00000D000D0CDB7DEB7FC018081811153C0AB
:1029D0009091DE05907709F44EC04091EE0550913C
:1029E000EF056091F0057091F1054F71552766274D
:1029F0007727452B462B472BF1F55F0100E010E0D0
:102A0000C090EE05D090EF05E090F005F090F10554
:102A100060E08EED95E00E94530BFC01892B59F18B
:102A20009081992341F19E3211F400E0E9CF953E67
:102A3000E1F3838583FD17C0B701A60185E0769594
:102A40006795579547958A95D1F70023B1F0CF0147
:102A500049835A836B837C830E94041849815A817D
:102A6000181309C00AC08F3001F796FFC9CF092F8C
:102A70000F711585C5CF80E006C020E06EED75E0D2
:102A8000C5010E94E30B0F900F900F900F90DF9104
:102A9000CF911F910F91FF90EF90DF90CF90BF905B
:102AA000AF900895CF92DF92EF92FF920F931F9312
:102AB000CF93DF93CDB7DEB7E2970FB6F894DEBFC2
:102AC0000FBECDBF6C01CE0101960E9480058E0124
:102AD0000B5D1F4F80E9E82E81E0F82ECE010596B0
:102AE0000E94D614882319F1B801CE0105960E94E0
:102AF000A51F8823B9F09D81907771F01F930F93E4
:102B0000FF92EF921F930F930E94792A0F900F90DC
:102B10000F900F900F900F90B801C6010E94A20471
:102B200081110CC0CE0105960E947D0DD7CF81E0AA
:102B3000809311018FEF80934A0319C01F930F9365
:102B400084E991E09F938F938AE493E09F938F931E
:102B50000E94792A8F5F80931101CE0105960E9411
:102B60007D0D0F900F900F900F900F900F90E296A9
:102B70000FB6F894DEBF0FBECDBFDF91CF911F918E
:102B80000F91FF90EF90DF90CF9008958F929F92DA
:102B9000AF92BF92CF92DF92EF92FF920F931F936B
:102BA000CF93DF93D82FC92F109201061092FE0504
:102BB0001092030684E096E0909300068093FF0550
:102BC0000E94AE096B017C010091FF051091000687
:102BD0008AE0F801828361E00E94380961E0F8012F
:102BE00082810E9408091FB7F894809155068111CF
:102BF00027C0E1E9F1E02491E5EAF1E08491E22FD8
:102C0000F0E0EE0FFF1FED58FE4FA591B491EC914F
:102C1000E82321F461E08AE00E94080961E08AE08B
:102C20000E9438098CB580618CBD8CB580648CBDE8
:102C300061E08DE00E94380961E08BE00E94380974
:102C4000809155068F5F809355061FBFE091FF0569
:102C5000F091000682E5808311828EEF95E00E945C
:102C60001A1DE091FF05F091000661E082810E944B
:102C700008091AE08FEF0E94950A1150D9F7E091E8
:102C8000FF05F091000660E082810E9408091AE0C9
:102C900020E030E0A90160E08EEF95E00E94331D56
:102CA000082F813091F0115011F480E261C08DEF56
:102CB0000E94950A98E0A92E92E0B92E0E949A0AE5
:102CC000F1E0AF1AB108D1F7E3CF2AEA31E040E0F2
:102CD00050E068E08EEF95E00E94331D853019F4D6
:102CE000009303060FC014E00E949A0A8093020624
:102CF0001150D1F78A3A21F482E08093030602C092
:102D000085E236C080910306823021F0812C912C1F
:102D1000540105C0812C912CA12C80E4B82E20E018
:102D200030E0A90167E38EEF95E00E94331DA50115
:102D3000940169E28EEF95E00E94331D882349F0EB
:102D40000E94AE096C197D09613D774040F383E430
:102D50000FC080910306823009F520E030E0A90120
:102D60006AE38EEF95E00E94331D882349F087E3E4
:102D70008093FE058EEF95E00E94051D80E019C04E
:102D80000E949A0A807C803C19F483E080930306B9
:102D90000E949A0A0E949A0A0E949A0A8EEF95E06F
:102DA0000E94051DE091FF05F0910006D083C183CC
:102DB00081E0DF91CF911F910F91FF90EF90DF9015
:102DC000CF90BF90AF909F908F900895AF92BF9299
:102DD000CF92DF92EF92FF920F931F93CF93DF93E7
:102DE000FB01DC0101962C912032D9F3B483A3833B
:102DF0009D0189010A1B1B0BE90189919E01882312
:102E0000C1F08F32B1F08C3511F480E0F2C0982F10
:102E1000977F9232D1F38A33C1F3982F9F7B9C33F3
:102E2000A1F392EC980F923080F380528F3508F323
:102E3000ECCF0A0F1B1FC801682F392FEC01299115
:102E4000CE012032C9F32F32B9F3EA016883398306
:102E500098012A1B3B0B0A171B0741F0E8018A91D6
:102E60008E018E32A9F3803299F303C0A12CB12CCC
:102E700005C059012F3F310509F03CF6B282A1820D
:102E8000CF0106969F012F5E3F4F40E2EC01499330
:102E9000CE01C217D307D1F7CD01AC014A1B5B0BA2
:102EA000EC013991CE013E32C1F33032B1F39A01D7
:102EB00091E0452B09F090E0A5014150510938F00F
:102EC000BD01640F751FEB0188818E32B1F717E0E9
:102ED00060E000E070E088E0E82E2A153B050CF089
:102EE0006CC06D01C20ED31EE6018881803209F4E8
:102EF0005BC08E3229F44217530709F055C004C055
:102F00008232E1F08C37D1F0D6EDFD2EF80ED5E00F
:102F1000DF1510F08D3291F4C6ECFC2EF80EC5E0F2
:102F2000CF1560F4D5EAFD2EF80ED2E0DF1530F4AF
:102F3000CFEDFC2EF80ECDE5CF1520F42417350784
:102F400081F438C024173507A9F1161718F1F82EA7
:102F5000CFE9DC2ED80ED9E1DD1548F080527E296C
:102F60000CC01617B8F090E08FE5CFE5FC2ECFEB44
:102F7000FC0ED9E1DF1508F00E29FF24F394F60EBC
:102F80006F01C60ED11CE6018E83D6E0DF1570F00E
:102F9000F5820CC01A3081F0421753076CF09A0189
:102FA0001AE068E0D0E1ED2E90E001C06F2D2F5FB8
:102FB0003F4F93CF1A30B9F490E08681803209F404
:102FC00024CF992329F0072309F072E0708309C008
:102FD00081E080838581E80FF11D8EE7868381E3A0
:102FE000878381E006C09A011AE068E0D0E1ED2E07
:102FF000DECFDF91CF911F910F91FF90EF90DF9087
:10300000CF90BF90AF900895FC01AC01455F5F4F3A
:1030100080E090E8899F90011124982F9695922B3B
:103020002191892F820FE417F50799F70895CF931F
:10303000DF93FC012081211102C081E031C0EC014D
:10304000828182FF25C061E0CF010E940B0EFC014E
:10305000892B29F489818160898380E021C0808166
:10306000853EC1F3888183FF08C0888D998DAA8D24
:10307000BB8D848F958FA68FB78F8C8D9D8DAE8DD8
:10308000BF8D938F828FB58BA48B8A818B7F8A8330
:103090008E819F8180960E94DE1D8823D9F2CDCF3C
:1030A000DF91CF9108954F925F926F927F928F92AE
:1030B0009F92AF92BF92CF92DF92EF92FF920F93C7
:1030C0001F93CF93DF93EC014A015B014C845D8435
:1030D0006E847F84A881AA2309F491C04889598904
:1030E0006A897B8984169506A606B70609F48DC001
:1030F00081149104A104B10429F41C861D861E8646
:103100001F8678C0A3FF0BC0088D198D2A8D3B8DBB
:10311000081519052A053B0508F471C014C0A5FF60
:1031200012C0EE81FF818681978125E0880F991F6B
:103130002A95E1F7A0E0B0E088159905AA05BB053E
:1031400008F45DC057C0EE81FF81848190E009964C
:103150008A019B010150110921093109082E04C07F
:1031600036952795179507950A94D2F7750164014E
:10317000B1E0CB1AD108E108F10804C0F694E79455
:10318000D794C7948A95D2F7C016D106E206F30603
:1031900020F0452B462B472B81F4A6FF05C0848DDC
:1031A000958DA68DB78D04C08C8D9D8DAE8DBF8DF8
:1031B0008C879D87AE87BF8704C0C01AD10AE20AF8
:1031C000F30A8E01045F1F4FC114D104E104F1041E
:1031D00089F04C855D856E857F8598018E819F8104
:1031E0000E94D31E91E0C91AD108E108F10818160F
:1031F0005CF305C0888A998AAA8ABB8A06C04C8675
:103200005D866E867F8680E001C081E0DF91CF9190
:103210001F910F91FF90EF90DF90CF90BF90AF90F4
:103220009F908F907F906F905F904F9008952F9216
:103230003F924F925F926F927F928F929F92AF9246
:10324000BF92CF92DF92EF92FF920F931F93CF9393
:10325000DF93CDB7DEB72A970FB6F894DEBF0FBE67
:10326000CDBF4C018B01FA01A180B280DB018C91B2
:10327000807711F480E04EC2D4018C918111FACF95
:103280009081937009F46BC1C5010C966DE070E0FC
:103290000E94242877247394760E29837F011A874D
:1032A0000987C8010E94D5051C821D821A82612CE3
:1032B00010E000E01B82F7013696FF83EE83E9857C
:1032C000FA8580899189A289B3891C012D01A5E025
:1032D0005694479437942794AA95D1F7610161E0F9
:1032E000CF010E94530BFC01892B41F4A985BA85BB
:1032F00011968C91882309F492C0BCCF8081853EC1
:1033000011F081110AC0111102C02C823D821715E3
:1033100008F41F5F811105C082C0171508F422C18F
:1033200002C0853EB9F18E32A9F193859F3009F034
:1033300053C0011108C086FFC2CF082F0F71258529
:103340002A83602E07C06A94861124C085852A814D
:10335000281320C0262D30E0215031094DE0429F36
:10336000C001439F900D11248A159B0598F460E0DD
:10337000653018F42181328107C06B3018F4248144
:10338000358102C0268137818A159B0529F4232BBC
:1033900009F495CF00E093CF2F3F310509F0D0F726
:1033A0004FEB420F4A3110F0722F02C070E2720FE1
:1033B000AC014F5F5F4FD70113962D913C9114974D
:1033C000D901A80FB91F8C919FEB980F9A3108F47F
:1033D000805E7813DFCFC8C093FDDCCF002351F0AF
:1033E000B1E06B1247CFCF010E9404182A818213EB
:1033F00041CF11C04BE050E06E817F81CF010E9430
:103400005C2A892B09F05BCFD7018C9180FF03C028
:1034100021E02B8354CF298126FF99C02BCF29810E
:1034200024FF28CF822F83708150823008F022CF72
:10343000A2C0F3E0F61510F453E0652E34E0360D2B
:10344000282F2F70E32FF0E02A3008F001C1205D13
:10345000EE0DFF1D268344E0969587954A95E1F78A
:103460003150631668F3F701E60DF11D3682898548
:103470009A850E94D50561E089859A850E94530B43
:10348000009709F0AFC0A985BA8511968C9181117A
:10349000F1CEA60160E070E035E0440F551F661FD5
:1034A000771F3A95D1F789859A850E94531888230A
:1034B00009F4E0CE0FEF070D102F9FE0492E3701E2
:1034C000F6E06F0E711C2DE0522E1111C3C0A985BC
:1034D000BA8550964D915D916D917C91539785E0A1
:1034E00076956795579547958A95D1F76A0160E07B
:1034F000CD010E94530B009709F4BCCE20E2FC01E1
:1035000011922A95E9F7F70136962BE0DC0101903C
:103510000D922A95E1F7D7012C912871FC0124879F
:1035200021E238E2318B208B40E058E05787468714
:10353000338B228B318F208F578B468BA985BA8591
:103540001696ED91FC91179780A1816080A3298147
:10355000A60169857A85C4010E94E30BDBC077244C
:1035600073949BCE10E0DFCE6F5F32966D3009F41E
:10357000A6CECA01FDCE1111CAC0171508F560E02C
:1035800089859A850E94530B892B39F4A985BA85C0
:1035900011968C918823A1F06DCE1F5FEECF8985A7
:1035A0009A850E94C90E882309F464CEA985BA853C
:1035B0001696ED91FC9117978281823018F4105F76
:1035C000171568F32B81222309F463CFD7011596D1
:1035D0006C9002E010E07EE7372E2701B6E04B0E3C
:1035E000511C17C0FC012081222309F452CF2385EE
:1035F00023FD41CF4BE050E0BC01C2010E945C2A98
:10360000892B09F038CF0F5F1F4F0436110509F4DD
:1036100031CEF70121813281C801820F931F0380CF
:10362000F481E02DAF01420F531FE417F50709F4B1
:1036300000CF9C0165E0220F331F6A95E1F7280F48
:10364000391F8191082E000C990B82279327EDCF0B
:10365000295CFECE60E089859A850E94530B6C013F
:10366000892B09F407CEA985BA851696ED91FC91B0
:10367000179780A1816080A3212F101301C02064BF
:10368000F601208343861486C30128870E9404180C
:10369000D6011D968C931D975B961C921E925A978D
:1036A000F7014381548128852F7130E02150310981
:1036B000529EC001539E900D1124F60160E08A15C0
:1036C0009B0540F4DA01A80FB91F2C91022E000CC3
:1036D000330B0AC021E030E08A159B0511F420E08D
:1036E00030E0319521953109653018F4328321831A
:1036F00007C06B3018F43583248302C037832683D8
:103700006F5F019632966D30D1F61150DECECC80CF
:10371000DD8033CF2A960FB6F894DEBF0FBECDBF43
:10372000DF91CF911F910F91FF90EF90DF90CF909D
:10373000BF90AF909F908F907F906F905F904F90D1
:103740003F902F9008952F923F924F925F926F92E9
:103750007F928F929F92AF92BF92CF92DF92EF9221
:10376000FF920F931F93CF93DF93EC015B014A010C
:10377000888183FF0EC08A8181FF0BC083FF0FC049
:10378000488D598D6A8D7B8DCE010E945318811111
:1037900006C08981816089838FEF9FEF08C1A401F2
:1037A00060E070E088899989AA89BB8980959095A5
:1037B000A095B09584179507A607B70750F3640145
:1037C0001E018CE0280E311C088919892A893B8941
:1037D000C114D10409F4D0C08E819F81B901A80120
:1037E00029E076956795579547952A95D1F7DC019D
:1037F0001396FC90F4221170F11034C001151105DC
:1038000089F54C855D856E857F854115510561057E
:10381000710569F091010E94D31E87FDBACF811115
:1038200021C0CE010E942B0E81111CC0B2CF8C8D05
:103830009D8DAE8DBF8D0097A105B10579F4CE01A8
:103840000E942B0E882309F4A4CF8C859D85AE851C
:10385000BF858C8F9D8FAE8FBF8F04C08C879D8757
:10386000AE87BF87EE81FF814C855D856E857F8544
:103870004250510961097109048004C0440F551F69
:10388000661F771F0A94D2F780899189A289B3892C
:10389000480F591F6A1F7B1F4F0D511D611D711D60
:1038A0000115110521F4C114B2E0DB06B0F580E08A
:1038B00092E0801B910B76018C159D0508F47C012C
:1038C0000115110579F4488859886A887B88888DA4
:1038D000998DAA8DBB8D481659066A067B0610F095
:1038E00025E001C021E0CF0180960E94211E0097B3
:1038F00009F44FCFA701B501800F911F0E94692ADB
:103900000E0D1F1D0115124031F58E819F8180968D
:103910000E94DE1D81111FC03CCF83A194A1A5A1EF
:10392000B6A184179507A607B70741F410A28FEF39
:103930009FEFDC0183A394A3A5A3B6A3EE81FF812F
:103940009501808191810E94A10A882309F421CFE9
:10395000E12C82E0F82E88899989AA89BB898E0D8D
:103960009F1DA11DB11D888B998BAA8BBB8BAE0CA3
:10397000BF1CCE18DF0828CF888D998DAA8DBB8DEE
:1039800080179107A207B30738F4088F198F2A8F81
:103990003B8F8A8184608A838A8187FD02C0C4014B
:1039A00006C0CE010E9417188111F9CFF2CEDF9127
:1039B000CF911F910F91FF90EF90DF90CF90BF902C
:1039C000AF909F908F907F906F905F904F903F90BF
:1039D0002F9008950F931F93CF93DF938B010E9435
:1039E000AE09EB010E949A0A8F3F49F00E94AE098E
:1039F0006C1B7D0B06171707A8F780E001C081E05C
:103A0000DF91CF911F910F910895CF93DF93FC0128
:103A10002381222361F0EC010180F281E02D61E03D
:103A200082810E9408098FEF0E94950A1B82DF9114
:103A3000CF910895CF93DF93FC012381211110C012
:103A4000EC010180F281E02D908181819CBD8DBDD2
:103A5000E981FA8160E082810E94080981E08B831C
:103A6000DF91CF910895FF920F931F93CF93DF9330
:103A700000D000D0CDB7DEB78C01F62E29833A8373
:103A80004B835C83FC018381811103C0C8010E94C8
:103A90001A1DFF2029F06CE271E0C8010E94EA1CA7
:103AA0008F2D80640E94950A8C810E94950A8B81DB
:103AB0000E94950A8A810E94950A89810E94950A2E
:103AC000FF2011F087E801C085E90E94950A0E9455
:103AD0009A0A8BE0F82E0E949A0AF801848387FFE5
:103AE00003C0FA94F110F7CF0F900F900F900F9042
:103AF000DF91CF911F910F91FF900895EF92FF9268
:103B00000F931F93CF93DF93EC0179018D81833065
:103B100039F089E0440F551F661F771F8A95D1F74A
:103B20009A01AB0161E1CE010E94331D882319F097
:103B300080E3888338C00E94AE098B010E949A0AF4
:103B40008C838F3F49F40E94AE09601B710B693E64
:103B50007340A0F385E503C08E3F31F080E5888394
:103B6000CE010E94051D1FC08FEF8EBDF701D7014A
:103B7000A150BE4F9FEF0DB407FEFDCF8EB59EBD89
:103B80008193EA17FB07B9F70DB407FEFDCF8EB599
:103B90008C931C820E949A0A0E949A0ACE010E946B
:103BA000051D81E004C0CE010E94051D80E0DF916B
:103BB000CF911F910F91FF90EF900895EF92FF9298
:103BC0001F93CF93DF93FC01208120FF32C0EC01D3
:103BD0007C01F7E0EF0EF11C4B815C816D817E81F1
:103BE000E981FA819701808191810E94A10A182FB1
:103BF000811102C010E01EC0888181FD04C088814F
:103C00008E7F888317C0E981FA8144855585668552
:103C100077858B819C81AD81BE81480F591F6A1FBA
:103C20007B1F9701808191810E94A10A8111E7CFBA
:103C3000E1CF11E0812FDF91CF911F91FF90EF90A5
:103C40000895CF92DF92EF92FF921F93CF93DF936D
:103C5000EC016A017B01122F8B819C81AD81BE81B9
:103C600084179507A607B707F1F0CE010E94DE1D65
:103C7000811103C080E090E01CC012FF06C01882D2
:103C8000CB82DC82ED82FE820EC0E981FA819E0148
:103C9000295F3F4FB701A601808191810E947E1D5F
:103CA0008111EDCFE7CF13708881182B1883CE01D7
:103CB0000796DF91CF911F91FF90EF90DF90CF900B
:103CC00008958F929F92AF92BF92CF92DF92EF9220
:103CD000FF920F931F936A017B0148015901423003
:103CE00051056105710510F480E052C0FC01408D62
:103CF000518D628D738D4C155D056E057F05A0F3AA
:103D00002581203241F54489558966897789970153
:103D10008601E7E03695279517950795EA95D1F73F
:103D2000400F511F621F731F23E080960E94211EC7
:103D30000097D1F2E894C7F8DD24EE24FF24CC0CE0
:103D4000DD1CCC0CDD1CFC01EC0DFD1D8082918284
:103D5000A282B3821CC0203139F6FC014489558906
:103D6000668977894D0D511D611D711D23E0809677
:103D70000E94211E009709F4B7CFDD24EE24FF2412
:103D8000CC0CDD1CFC01EC0DFD1D9182808281E0DC
:103D90001F910F91FF90EF90DF90CF90BF90AF9069
:103DA0009F908F900895CF92DF92EF92FF920F93A2
:103DB0001F93CF93DF93EC016A017B0189014230AD
:103DC00051056105710510F48FEF63C0888D998DE1
:103DD000AA8DBB8D84179507A607B707A8F38D8119
:103DE000803241F58C899D89AE89BF89E7E076955F
:103DF000679557954795EA95D1F7480F591F6A1F60
:103E00007B1F22E0CE0180960E94211E0097E1F2E6
:103E1000E894C7F8DD24EE24FF24CC0CDD1CCC0C88
:103E2000DD1CFC01EC0DFD1D80819181A281B3811F
:103E3000BF701EC0803141F64C895D896E897F89D3
:103E40004D0D511D611D711D22E0CE0180960E9415
:103E5000211E009709F4B8CFDD24EE24FF24CC0CFA
:103E6000DD1CFC01EC0DFD1D80819181A0E0B0E026
:103E7000488D598D6A8D7B8D481759076A077B07D6
:103E800038F0F80180839183A283B38381E001C07D
:103E900080E0DF91CF911F910F91FF90EF90DF9025
:103EA000CF9008959F92AF92BF92CF92DF92EF9200
:103EB000FF920F931F93CF93DF9300D000D0CDB725
:103EC000DEB75C016A017B019E012F5F3F4FB701A6
:103ED000A601C5010E94D31E982E87FF02C080E074
:103EE00024C000E010E09801B701A601C5010E94BE
:103EF000611E8823A1F3F501408551856285738594
:103F00004C155D056E057F0550F0F1E0CF1AD10824
:103F1000E108F108F501C086D186E286F386C98002
:103F2000DA80EB80FC809110CFCF0F900F900F9034
:103F30000F90DF91CF911F910F91FF90EF90DF9045
:103F4000CF90BF90AF909F9008950F931F93CF9302
:103F5000DF93EB01FC012081211102C080E038C019
:103F6000207621F08FE28883198231C08B0160E0D6
:103F70000E940B0EDC01009789F3FC0148E090E001
:103F800020E05EE280818032D1F0283039F4B8013F
:103F9000690F711DEB0158839F5F40E130818FEB0A
:103FA000830F8A3130F41C968C911C97842309F07E
:103FB000305EB801690F711DEB0138839F5F2F5F81
:103FC00031962B30F9F6E801C90FD11D188281E036
:103FD000DF91CF911F910F9108956115710579F0CF
:103FE000FB0101900020E9F73197AF01461B570B09
:103FF000DC01ED91FC910280F381E02D099480E0D9
:1040000090E008959F92AF92BF92CF92DF92EF928D
:10401000FF920F931F93CF93DF93CDB7DEB7A09797
:104020000FB6F894DEBF0FBECDBF19821A82DC0135
:104030002C9123FD02C080E0A6C0FC01228121FF5B
:10404000FACF8C01448D558D668D778D41155105C4
:104050006105710549F0D80116968D919C911797CD
:104060000E94521F882339F361E0C8010E940B0EA1
:104070007C01009701F30E940418B82E85EEF70129
:104080008083D8011C9216968D919C9117978096EB
:104090000E94DE1D882379F2F8019381992309F4A7
:1040A00072C0F80180859185A285B385668177818C
:1040B0009E012F5F3F4F79010097A105B10539F4AB
:1040C000C9010E94C90B882309F4B5CF0FC020E2B3
:1040D000F70111922A95E9F720E1298321E02B834A
:1040E00078876F838D8F9E8FAF8FB8A39924939419
:1040F00095EEA92EF8018381891508F49CCFC92C6F
:10410000D12CD80114964D915C9115974C195D09ED
:1041100060E070E085E0440F551F661F771F8A95A9
:10412000D1F7C7010E945318882309F484CF60E0B7
:10413000C7010E94530BFC01892B09F47CCF8385B6
:104140008F3009F078CF2081822F8F7190E0C816D0
:10415000D90609F070CF8585B8126DCFA082D8013D
:104160001696ED91FC91179780A1816080A326FFA0
:1041700008C016968D919C91179780960E94DE1D1F
:1041800002C09394B7CFA0960FB6F894DEBF0FBECF
:10419000CDBFDF91CF911F910F91FF90EF90DF90F6
:1041A000CF90BF90AF909F900895CF93DF93CDB7FE
:1041B000DEB7C357D1090FB6F894DEBF0FBECDBF2F
:1041C000789484B5826084BD84B5816084BD85B5F2
:1041D000826085BD85B5816085BD80916E008160FE
:1041E00080936E00109281008091810082608093A4
:1041F00081008091810081608093810080918000A6
:104200008160809380008091B10084608093B100D0
:104210008091B00081608093B00080917A008460CA
:1042200080937A0080917A00826080937A008091F6
:104230007A00816080937A0080917A008068809310
:104240007A001092C10061E085E00E94380962E0C6
:1042500083E00E94380983B7817F83BF83B7816081
:1042600083BF80917A008F7780937A0080E880BF47
:104270008FE380937E0083E080937F0080916400D1
:1042800088608093640080916400806480936400FF
:104290008091640081608093640082E090E00E94DD
:1042A000A0048093BE028091BE02863040F010923E
:1042B000BE026091BE0282E090E00E949E0485E012
:1042C00090E00E94A0048093BD028091BD028823EB
:1042D00009F4C7C28091BD028F3F09F4C2C286E0D3
:1042E00090E00E94A0048093BC028091BC028F3FAA
:1042F00049F483E08093BC026091BC0286E090E0C8
:104300000E949E048DE090E00E94A004809304012E
:10431000809104018F3F49F48AE280930401609107
:1043200004018DE090E00E949E048DE192E0909364
:10433000A1028093A0028AE593E09093A302809368
:10434000A2020E94E4041092C10086E08093C200A1
:1043500082E08093C0001092C5008FEC8093C4006F
:1043600088E98093C10081E791E00E94E91380E52C
:1043700091E00E94C61581110BC0809101018E7FD2
:10438000809301018CEF90E00E94E9130E94740475
:104390000E940A14882389F380910101816080932F
:1043A00001010E94341481110BC0809101018E7FA4
:1043B00080930101809101018F7E8093010111C0E2
:1043C000809101018061809301018FE691E00E945C
:1043D000E913CE0185960E9480050E943414811154
:1043E0000AC08CEF90E00E94E91386EE90E00E94F4
:1043F000E9130E94751467E571E0CE018E599F4F55
:104400000E94EE2440E0BE016E597F4FCE01899696
:104410000E94FE05811107C0CE0189960E947D0D84
:104420000E94510697C18E01075B1F4FB12C780186
:10443000BE016F5F7F4FCE0189960E94A212019745
:1044400011F4898102C08FEF9FEF87FD09C08A3088
:1044500039F0D8018D938D01B394BDE0BB12E8CF44
:10446000CE0189960E947D0DC12C90E0E3E0AE2E36
:10447000FAE19F2ED12CAAE24A2E512C612C712CEC
:104480009B1568F08091040190E0A0E0B0E0481630
:1044900059066A067B0609F077C080E07DC08E0170
:1044A00004591F4F3B2D391BF80180E0882E890EDF
:1044B000D701A80DB11D2C912C3239F0831729F0AA
:1044C000863019F021938F5FF1CFECE6F0E0EC0F2E
:1044D000FD1FE80FF11D1082CE0184599F4F0E94ED
:1044E000A924C11031C020E030E0A901D801ED912C
:1044F0008D0180ED8E0F8A30A8F4AAE0B0E00E9412
:10450000D3274E2FEE0F550B9A0120533109290165
:10451000330F66087708A3019201260F371F481F43
:10452000591FE4CF29013A01DA01C9010897A1090D
:10453000B10980379105A105B10510F17AE2472E46
:10454000512C612C712C1CC0B1E0CB1205C0181687
:10455000A4F06AE1962E14C0E2E0CE1205C08F3FAF
:1045600071F453E0A52E0CC0F3E0CF128BCF91E095
:10457000813009F090E0D92E03C0982E01C0A82EFA
:10458000C39491E0980D7CCF642D8DE090E00E9463
:104590009E044092040181E09091BE02D91649F038
:1045A000D092BE026091BE0282E090E00E949E0422
:1045B00081E09091BD02991649F09092BD02609100
:1045C000BD0285E090E00E949E0481E09091BC02D3
:1045D000A91649F0A092BC026091BC0286E090E06E
:1045E0000E949E0401C081110E9451068091BE026A
:1045F000811184C0CE0101960E94800584E090E084
:104600000E94A004082F83E090E00E94A00410E024
:10461000102F0027082B0F3F2FEF120769F460E0DF
:1046200083E090E00E949E0460E084E090E00E94BD
:104630009E0400E010E007C00E3F8FEF180719F44A
:1046400081E291E03CC025E1E22E21E0F22E3FEA3A
:10465000C32E32E0D32E1F930F93FF92EF92DF927F
:10466000CF920E941C2541E56FEA72E0CE010596CB
:104670000E94FE050F900F900F900F900F900F90DB
:104680000F5F1F4F811120C040E06FEA72E0CE0142
:1046900005960E94FE05882361F08D8D9E8DAF8D5D
:1046A000B8A1892B8A2B8B2B79F0CE0105960E941D
:1046B0007D0D0E3F9FEF190771F683E091E00E9498
:1046C000E91380E090E03FC0CE0105960E947D0D89
:1046D000602F83E090E00E949E0484E090E00E94BE
:1046E000A004612F772790E08617970721F084E0D8
:1046F00090E00E949E048FEA92E025C08091BE0265
:10470000813019F5CE0101960E9480056AE471E0BE
:10471000CE018A5A9F4F0E94EE2441E1BE016A5A9F
:104720007F4FCE0105960E94FE05811105C083E3EF
:1047300091E00E94E91309C0CE0105960E947D0D0B
:10474000CE018A5A9F4F0E9407068091010188601E
:10475000809301010E94E40486E691E00E94E9133F
:104760000E94C513892B31F440E169E270E080E0DA
:1047700090E006C06091040170E080E090E040E1CC
:104780000E94931484E691E00E94E91382E691E08E
:104790000E94E91361E085E00E94080982E991E046
:1047A0000E943E14809101018260809301018091FA
:1047B000010184608093010100E010E00E94AE09D5
:1047C000C090BF02D090C002E090C102F090C2023F
:1047D000DC01CB018C199D09AE09BF09853F9140D1
:1047E000A105B10578F18091640080628093640036
:1047F0008091640084608093640080916400826092
:104800008093640083B7816083BF889583B78E7F70
:1048100083BF809164008B7F8093640080916400EB
:104820008F7D80936400809164008D7F809364000D
:104830000E94AE096093BF027093C0028093C102D0
:104840009093C2028091A402882321F00E94510615
:104850001092A4020115110509F4B0CF0E940000C6
:10486000ADCF8AE18093BD026091BD0285E090E00A
:104870000E949E0434CDE7E7F3E01382128288EEB3
:1048800093E0A0E0B0E084839583A683B7832EE510
:1048900031E031832083E7E0F6E0138212828483E3
:1048A0009583A683B78380E791E091838083EBE8CB
:1048B000F3E083E196E09183808381E290E0978347
:1048C00086831582148213821282E3E8F3E024E3E4
:1048D00036E0318320839783868315821482138286
:1048E00012821092BC031092DE051092DF0584E65E
:1048F0008093FE051092030680E5809304061092D3
:10490000050683E993E00E948005E2E1F1E0108270
:1049100081E0838382E0868383E081878EE18487E0
:1049200085E0878786E0828B87E0858B88E0808FB3
:1049300089E0838F8AE0868F8BE081A38CE084A35B
:104940008DE087A38EE082A78FE085A780E180AB12
:104950000895FC0188279927E89421912032E9F3F2
:10496000293010F02E30C8F32B3241F02D3239F4BB
:10497000689404C00E941425820F911D2191205338
:104980002A30C0F31EF4909581959F4F08951F9390
:10499000FC0199278827BC01E89411911032E9F3B2
:1049A000193010F01E30C8F31B3251F01D3249F49B
:1049B000689406C00E94FF24610F711D811D911D26
:1049C000119110531A30B0F33EF490958095709584
:1049D00061957F4F8F4F9F4F1F910895FB01DC0121
:1049E00005900D920020E1F70895DC016C9161566D
:1049F0006A3108F0605E6F5B6D93C1F70895592FBF
:104A0000482F372F262F660F771F881F991F660F95
:104A1000771F881F991F620F731F841F951F660FD2
:104A2000771F881F991F08957AE0979F902D879F81
:104A3000802D910D11240895AEE0B0E0E2E2F5E2A0
:104A40000C94EC270D891E898EE08C831A830983D0
:104A50008FEF9FE79E838D83AE01475E5F4F6F8927
:104A6000788DCE0101960E943F252F813885F8016F
:104A7000E20FF31F10822E96E4E00C940828ACE0BD
:104A8000B0E0E5E4F5E20C94DE277C016B018A01DD
:104A9000FC0117821682838181FFBDC1CE01019680
:104AA0004C01F7019381F60193FD859193FF81916C
:104AB0006F01882309F4ABC1853239F493FD8591E8
:104AC00093FF81916F01853229F4B70190E00E9434
:104AD0002727E7CF512C312C20E02032A0F48B3255
:104AE00069F030F4803259F0833269F420612CC0CF
:104AF0008D3239F0803339F4216026C02260246081
:104B000023C0286021C027FD27C030ED380F3A3080
:104B100078F426FF06C0FAE05F9E300D1124532E74
:104B200013C08AE0389E300D1124332E20620CC051
:104B30008E3221F426FD6BC1206406C08C3611F440
:104B4000206802C0883641F4F60193FD859193FFF9
:104B500081916F018111C1CF982F9F7D9554933022
:104B600028F40C5F1F4FFFE3F9830DC0833631F04B
:104B7000833771F0833509F05BC022C0F801808172
:104B800089830E5F1F4F44244394512C540115C058
:104B90003801F2E06F0E711CF801A080B18026FF91
:104BA00003C0652D70E002C06FEF7FEFC5012C8759
:104BB0000E941C272C0183012C852F77222E17C0E1
:104BC0003801F2E06F0E711CF801A080B18026FF61
:104BD00003C0652D70E002C06FEF7FEFC5012C8729
:104BE0000E9411272C012C852068222E830123FC92
:104BF0001BC0832D90E048165906B0F4B70180E23F
:104C000090E00E9427273A94F4CFF50127FC859184
:104C100027FE81915F01B70190E00E9427273110A4
:104C20003A94F1E04F1A51084114510471F7E5C06C
:104C3000843611F0893639F5F80127FF07C0608105
:104C40007181828193810C5F1F4F08C060817181E7
:104C5000072E000C880B990B0E5F1F4F2F76722EBC
:104C600097FF09C090958095709561957F4F8F4F04
:104C70009F4F2068722E2AE030E0A4010E945F2737
:104C8000A82EA81844C0853729F42F7EB22E2AE01A
:104C900030E025C0F22FF97FBF2E8F36C1F018F417
:104CA000883579F0B4C0803719F0883721F0AFC06B
:104CB0002F2F2061B22EB4FE0DC08B2D8460B82E34
:104CC00009C024FF0AC09F2F9660B92E06C028E0B5
:104CD00030E005C020E130E002C020E132E0F80120
:104CE000B7FE07C060817181828193810C5F1F4F85
:104CF00006C06081718180E090E00E5F1F4FA401CB
:104D00000E945F27A82EA818FB2DFF777F2E76FE26
:104D10000BC0372D3E7FA51450F474FE0AC072FC00
:104D200008C0372D3E7E05C0BA2C372D03C0BA2CE3
:104D300001C0B52C34FF0DC0FE01EA0DF11D8081CC
:104D4000803311F4397E09C032FF06C0B394B394A6
:104D500004C0832F867809F0B39433FD13C030FF6D
:104D600006C05A2CB31418F4530C5B18B32CB314AC
:104D700068F4B70180E290E03C870E942727B39453
:104D80003C85F5CFB31410F43B1801C0312C34FF2F
:104D900012C0B70180E390E03C870E9427273C8542
:104DA00032FF17C031FD03C088E790E002C088E5FC
:104DB00090E0B7010CC0832F867859F031FF02C014
:104DC0008BE201C080E237FD8DE2B70190E00E94E6
:104DD0002727A51438F4B70180E390E00E94272725
:104DE0005A94F7CFAA94F401EA0DF11D8081B7011E
:104DF00090E00E942727A110F5CF332009F451CE6F
:104E0000B70180E290E00E9427273A94F6CFF7019D
:104E10008681978102C08FEF9FEF2C96E2E10C9480
:104E2000FA27FC010590615070400110D8F7809579
:104E300090958E0F9F1F0895FC0161507040019066
:104E40000110D8F7809590958E0F9F1F08950F93AE
:104E50001F93CF93DF93FB01238121FD03C08FEFCD
:104E60009FEF28C022FF16C04681578124813581DB
:104E70004217530744F4A081B1819D012F5F3F4F3A
:104E8000318320838C93268137812F5F3F4F378377
:104E9000268310C0EB01092F182F0084F185E02D27
:104EA0000995892BE1F68E819F8101969F838E83E0
:104EB000812F902FDF91CF911F910F910895FA01CB
:104EC000AA27283051F1203181F1E8946F936E7F49
:104ED0006E5F7F4F8F4F9F4FAF4FB1E03ED0B4E03A
:104EE0003CD0670F781F891F9A1FA11D680F791F7B
:104EF0008A1F911DA11D6A0F711D811D911DA11D8C
:104F000020D009F468943F912AE0269F112430199B
:104F1000305D3193DEF6CF010895462F4770405D36
:104F20004193B3E00FD0C9F7F6CF462F4F70405DE5
:104F30004A3318F0495D31FD4052419302D0A9F740
:104F4000EACFB4E0A6959795879577956795BA953A
:104F5000C9F700976105710508959B01AC010A2E00
:104F600006945795479537952795BA95C9F7620FD7
:104F7000731F841F951FA01D0895F999FECF92BD40
:104F800081BDF89A992780B50895262FF999FECF0B
:104F90001FBA92BD81BD20BD0FB6F894FA9AF99A56
:104FA0000FBE019608950E941528A59F900DB49FED
:104FB000900DA49F800D911D112408952F923F9272
:104FC0004F925F926F927F928F929F92AF92BF9219
:104FD000CF92DF92EF92FF920F931F93CF93DF93C5
:104FE000CDB7DEB7CA1BDB0B0FB6F894DEBF0FBE22
:104FF000CDBF09942A88398848885F846E847D846F
:105000008C849B84AA84B984C884DF80EE80FD8070
:105010000C811B81AA81B981CE0FD11D0FB6F894E6
:10502000DEBF0FBECDBFED010895A29FB001B39FBB
:10503000C001A39F700D811D1124911DB29F700DA1
:10504000811D1124911D0895AA1BBB1B51E107C0AE
:10505000AA1FBB1FA617B70710F0A61BB70B881F08
:10506000991F5A95A9F780959095BC01CD01089597
:10507000A1E21A2EAA1BBB1BFD010DC0AA1FBB1F5C
:10508000EE1FFF1FA217B307E407F50720F0A21BCE
:10509000B30BE40BF50B661F771F881F991F1A943B
:1050A00069F760957095809590959B01AC01BD0165
:1050B000CF010895EE0FFF1F0590F491E02D0994A4
:1050C000CF93DF938230910510F482E090E0E0917D
:1050D0005806F091590620E030E0C0E0D0E030976B
:1050E00011F14081518148175907C0F048175907FD
:1050F00061F482819381209719F09B838A832BC06E
:10510000909359068093580626C02115310519F051
:105110004217530718F49A01BE01DF01EF01028024
:10512000F381E02DDCCF2115310509F1281B390B66
:105130002430310590F412968D919C91139761154E
:10514000710521F0FB019383828304C0909359067B
:1051500080935806FD01329644C0FD01E20FF31F13
:1051600081939193225031092D933C933AC0209121
:10517000560630915706232B41F420914701309178
:1051800048013093570620935606209145013091EF
:1051900046012115310541F42DB73EB74091490133
:1051A00050914A01241B350BE0915606F0915706A9
:1051B000E217F307A0F42E1B3F0B2817390778F0EE
:1051C000AC014E5F5F4F2417350748F04E0F5F1F4D
:1051D00050935706409356068193919302C0E0E0A6
:1051E000F0E0CF01DF91CF9108950F931F93CF93FC
:1051F000DF93009709F48CC0FC013297138212826E
:1052000000915806109159060115110581F420816D
:105210003181820F931F209156063091570628172F
:10522000390779F5F0935706E093560671C0D80117
:1052300040E050E0AE17BF0750F412962D913C911C
:105240001397AD012115310509F1D901F3CF9D0166
:10525000DA013383228360817181860F971F821761
:10526000930769F4EC0128813981260F371F2E5FDF
:105270003F4F318320838A819B8193838283452B97
:1052800029F4F0935906E093580642C01396FC9314
:10529000EE931297ED01499159919E01240F351F0C
:1052A000E217F30771F480819181840F951F0296B4
:1052B00011969C938E938281938113969C938E93E7
:1052C0001297E0E0F0E0D80112968D919C9113972F
:1052D000009719F0F8018C01F6CF8D919C919801FF
:1052E0002E5F3F4F820F931F209156063091570635
:1052F0002817390769F4309729F41092590610924B
:10530000580602C013821282109357060093560665
:10531000DF91CF911F910F910895A0E0B0E0E3E9F4
:10532000F9E20C94E227EC01009721F4CB010E94F2
:105330006028B8C0FC01E60FF71F9C01225031091C
:10534000E217F30708F4ACC0D9010D911C91119735
:1053500006171707B0F00530110508F49FC0C80103
:1053600004978617970708F499C002501109061B85
:10537000170B019311936D937C93CF010E94F52835
:105380008DC05B01A01AB10A4C01800E911EA09144
:105390005806B091590640E050E0E12CF12C1097EE
:1053A00009F44AC0A815B905D1F56D907C90119704
:1053B000630182E0C80ED11CCA14DB0480F1A30192
:1053C0004A195B096A0182E0C80ED11C1296BC9092
:1053D00012971396AC91B5E0CB16D10440F0B2828F
:1053E000A38351834083D9016D937C930AC00E5FE0
:1053F0001F4FC301800F911FF90191838083EB2D13
:10540000FA2FE114F10431F0D7011396FC93EE93D7
:10541000129744C0F0935906E09358063FC08D910F
:105420009C9111974817590708F4AC017D01129619
:105430000D90BC91A02DB3CF809156069091570648
:1054400088159905E1F446175707C8F4809145017E
:1054500090914601009741F48DB79EB74091490164
:1054600050914A01841B950BE817F907C8F4F09393
:105470005706E0935606F901718360830FC0CB0194
:105480000E9460287C01009759F0A801BE010E948B
:10549000692ACE010E94F528C70104C0CE0102C0CE
:1054A00080E090E0CDB7DEB7EEE00C94FE2781E01F
:1054B00090E0F8940C949C2AFB01DC0104C08D91CF
:1054C0000190801921F441505040C8F7881B990B76
:1054D0000895FB01DC0102C001900D924150504043
:1054E000D8F70895FB01DC0101900D920020E1F74F
:1054F0000895AEE0B0E0EFE7FAE20C94EC270D89F6
:105500001E8986E08C831A8309838FEF9FE79E8331
:105510008D83AE01475E5F4F6F89788DCE01019616
:105520000E943F252F813885F801E20FF31F10827A
:0C5530002E96E4E00C940828F894FFCFBD
:10553C00780002002A0000000000000000000000BB
:10554C000001000A0200F70100E40100D10100FD96
:10555C0004007A0400530800D40300A703000708D2
:10556C0000C80100330600FD0200C60700DA050082
:10557C001307008A0500005A0680002A000000006C
:10558C00000011030E037202FA02000000008902EF
:10559C0075027202430B21010D01440B0000000047
:1055AC008E019A02720282016C01440129010000F1
:1055BC000000DD088D08720271020D0A00307800BF
:0855CC0025732F002573000078
:107E0000112484B714BE81FFF0D085E080938100F7
:107E100082E08093C00088E18093C10086E0809377
:107E2000C20080E18093C4008EE0C9D0259A86E02C
:107E300020E33CEF91E0309385002093840096BBD3
:107E4000B09BFECF1D9AA8958150A9F7CC24DD24C4
:107E500088248394B5E0AB2EA1E19A2EF3E0BF2EE7
:107E6000A2D0813461F49FD0082FAFD0023811F036
:107E7000013811F484E001C083E08DD089C08234E0
:107E800011F484E103C0853419F485E0A6D080C0E4
:107E9000853579F488D0E82EFF2485D0082F10E0AE
:107EA000102F00270E291F29000F111F8ED06801E7
:107EB0006FC0863521F484E090D080E0DECF843638
:107EC00009F040C070D06FD0082F6DD080E0C81688
:107ED00080E7D80618F4F601B7BEE895C0E0D1E017
:107EE00062D089930C17E1F7F0E0CF16F0E7DF06D8
:107EF00018F0F601B7BEE89568D007B600FCFDCFD4
:107F0000A601A0E0B1E02C9130E011968C91119780
:107F100090E0982F8827822B932B1296FA010C0160
:107F200087BEE89511244E5F5F4FF1E0A038BF0790
:107F300051F7F601A7BEE89507B600FCFDCF97BE46
:107F4000E89526C08437B1F42ED02DD0F82E2BD052
:107F50003CD0F601EF2C8F010F5F1F4F84911BD097
:107F6000EA94F801C1F70894C11CD11CFA94CF0C13
:107F7000D11C0EC0853739F428D08EE10CD085E9AC
:107F80000AD08FE07ACF813511F488E018D01DD067
:107F900080E101D065CF982F8091C00085FFFCCF94
:107FA0009093C60008958091C00087FFFCCF809118
:107FB000C00084FD01C0A8958091C6000895E0E648
:107FC000F0E098E1908380830895EDDF803219F02E
:107FD00088E0F5DFFFCF84E1DECF1F93182FE3DFCA
:107FE0001150E9F7F2DF1F91089580E0E8DFEE27F6
:047FF000FF270994CA
:027FFE00040479
:0400000300007E007B
:00000001FF
