:100000000C9420010C9448010C9448010C94480174
:100010000C9448010C9448010C9448010C9448013C
:100020000C9448010C9448010C9448010C9448012C
:100030000C9448010C9448010C9448010C9448011C
:100040000C94BB0A0C9448010C94490B0C94050BBE
:100050000C9448010C9448010C9448010C944801FC
:100060000C94D3210C944801756E6B6E6F776E20E3
:10007000636F6D6D616E643A2000617070656E64CF
:10008000006E657700726573657400766572007343
:10009000697A650072656164002E2E006364002D2C
:1000A000726600726D006D64006C73006465666159
:1000B000756C74006C6F67006E756D00657363001E
:1000C0006164720073657400676574006C6F67002B
:1000D000616472006E756D00657363007365740012
:1000E000696E6974006932635F6164647265737319
:1000F0002C6573636170652C657363232C6D6F646D
:10010000650A004572726F722077726974696E6752
:1001100020746F2066696C650025642C25642C258D
:10012000642C25640052656D6F766520636F6E6682
:100130006967206661696C656400636F6E666967F4
:100140002E7478740021546F6F206D616E79206C6D
:100150006F67733A3221004C4F47253035642E5477
:1001600058540021546F6F206D616E79206C6F6759
:10017000733A31210000000000250028002B0066A2
:10018000696C652E6F70656E00726F6F742E696E8C
:10019000697400766F6C756D652E696E69740045C3
:1001A00072726F7220004572726F722063726561A5
:1001B00074696E67205345514C4F470A00534551AF
:1001C0004C4F4730302E54585400636F6E66696749
:1001D0002E747874003C002900284164723A200093
:1001E0003200310000000000240027002A00000037
:1001F000000023002600290004040404040404046D
:1002000002020202020203030303030301020408C1
:100210001020408001020408102001020408102070
:1002200000000008000201000003040700000000B5
:1002300000000000636172642E696E6974004226DA
:1002400011241FBECFEFD8E0DEBFCDBF11E0A0E08C
:10025000B1E0ECECF4E502C005900D92AE35B107CB
:10026000D9F726E0AEE5B1E001C01D92AC36B20789
:10027000E1F711E0C0E2D1E004C02197FE010E9445
:10028000022ACF31D107C9F70E9437230C94642A80
:100290000C94000020E030E080E0F901EC57FE4FC4
:1002A00040815181452B19F0928191118F5F2D5F13
:1002B0003F4F2F30310589F708958093DB0281E0AD
:1002C000809301010895EBEDF2E09083818382E059
:1002D000809301010895EBEDF2E0908381837283B6
:1002E000638384E0809301010895089580E090E0A5
:1002F000089504960C94491CCF93DF931F92CDB7B9
:10030000DEB7698341E050E0BE016F5F7F4F049626
:100310000E94491C0F90DF91CF9108959EE1E3E97F
:10032000F1E0DF011D929A95E9F78530D8F490E06D
:10033000FC01EE0FFF1F8E0F9F1FFC01EC57FE4FBD
:10034000608171816115710569F04281442351F02A
:100350004F3110F450E002C04EE150E083E991E0EB
:100360000C94322A80E090E00895CF93DF931F929F
:10037000CDB7DEB780912603882321F110920101C9
:1003800080910101803220F5BE016F5F7F4F86E2D0
:1003900093E00E943615019719F4898190E002C01C
:1003A0008FEF9FEF8F3F2FEF920791F0E0910101C8
:1003B000F0E0E552FD4F8083809101018F5F8093D3
:1003C0000101DECF81E0809301018FEF8093DB029A
:1003D0000F90DF91CF9108958091820190918301D8
:1003E0008130910541F19CF4892BC9F56091C601DA
:1003F00086E093E00E941A208091C6018D7F809351
:10040000C6018091C6018B7F8093C601089582301A
:100410009105D1F0039719F54091010150E06BED82
:1004200072E086E093E00E94062080918001909126
:1004300081010C94FF164091010150E06BED72E0D8
:1004400086E093E00C9406204091010150E06BEDB2
:1004500072E086E093E00E9406200C94B50160EF04
:1004600086E093E00C941A2004960C940D1CCF9314
:10047000DF939C01DB01F901EB018991BE01882327
:1004800051F0E90199919E019A3229F0981791F360
:100490009F3381F328C040E050E020E030E09C91A1
:1004A0009923D9F080818A3251F4CF0101962181BC
:1004B0002223D9F09D012F5F3F4FAC010CC089175B
:1004C00011F08F3321F4CF010196119604C0D901A8
:1004D0002F5F3F4FCA01FC01E2CF91919A32E9F3BD
:1004E00081E0992319F080E001C081E0DF91CF9194
:1004F00008950F931F93CF93DF93EC0160E070E0BA
:10050000CB01E99120ED2E0F2A30A8F4AAE0B0E04B
:100510009B01AC010E94F7290E2E000CFF0BAF01CE
:10052000405351098A01550F220B330B600F711F85
:10053000821F931FE6CFDF91CF911F910F910895F6
:100540008091BC008A7B8093BC0060E082E10E94C5
:10055000090A60E083E10E94090A0E94F114892BD4
:1005600011F489E202C0809100010C94BC1440E0B7
:1005700050E0BA010C941019FB01242F6091D902AC
:100580007091DA02AF010C94991DCF92DF92EF9235
:10059000FF920F931F93CF93DF93CDB7DEB7A4974E
:1005A0000FB6F894DEBF0FBECDBF1D821E821C8227
:1005B0001B8284E291E09A83898384E090E00E9428
:1005C0000923082F83E090E00E94092310E0102FF8
:1005D0000027082B0F3F8FEF180769F460E083E0D6
:1005E00090E00E94072360E084E090E00E940723EF
:1005F00000E010E007C00E3F8FEF180719F483E604
:1006000091E03CC027E5E22E21E0F22E31EBC32E33
:1006100031E0D32E1F930F93FF92EF92DF92CF9290
:100620000E94D32642EC61EB71E0CE0105960E9458
:10063000BC020F900F900F900F900F900F900F5FD4
:100640001F4F811120C041E061EB71E0CE010596A2
:100650000E94BC02882361F08D8D9E8DAF8DB8A164
:10066000892B8A2B8B2B79F0CE0105960E94901D49
:100670000E3F8FEF180771F685E491E00E94151583
:1006800080E090E019C0CE0105960E94901D602F79
:1006900083E090E00E94072384E090E00E94092319
:1006A000612F772790E08617970721F084E090E08C
:1006B0000E94072381EB91E0A4960FB6F894DEBF69
:1006C0000FBECDBFDF91CF911F910F91FF90EF90A3
:1006D000DF90CF900895FF920F931F93CF93DF93F6
:1006E000CDB7DEB7C955D1090FB6F894DEBF0FBE3E
:1006F000CDBF1D821E821C821B8284E291E09A8300
:1007000089830E94241681110AC08FE991E00E941A
:10071000151589E891E00E9415150E9465166AE397
:1007200071E0CE01805B9F4F0E94BA2642E0BE017D
:10073000605B7F4FCE0105960E94BC02882389F042
:10074000CE0105960E94FB0E81110BC085E291E05F
:100750000E9415156AE471E086E995E00E94E60EB4
:100760006FC046E4BE01605B7F4FCE0105960E94DC
:10077000BC028DE090E00E940923182F85E090E0F4
:100780000E940923082F86E090E00E940923F82E9A
:1007900082E090E00E9409231F928F931F92FF92A4
:1007A0001F920F931F921F9389E191E09F938F9364
:1007B0008E010D5B1F4F1F930F930E94D326F801EC
:1007C00001900020E9F73197AF01401B510BB801B0
:1007D000CE0105960E94491CF80101900020E9F71E
:1007E0003197E01BF10B0FB6F894DEBF0FBECDBF03
:1007F0008E179F0751F083E091E00E9415156AE47F
:1008000071E086E995E00E94E60E6AE471E0CE01AF
:1008100001960E94E60E8E010B5D1F4F65EE70E0A3
:10082000C8010E94BA26F80101900020E9F731972B
:10083000AF01401B510BB801CE0105960E94491C27
:10084000CE0105960E94901DC75ADF4F0FB6F8944F
:10085000DEBF0FBECDBFDF91CF911F910F91FF90F3
:1008600008954F925F926F927F929F92AF92BF9244
:10087000CF92DF92EF92FF920F931F93CF93DF936C
:10088000CDB7DEB7C757D1090FB6F894DEBF0FBE9C
:10089000CDBFEE24EA94FE2C94E2C92E91E0D92E2D
:1008A00024E8A22E21E0B22E909100038091010352
:1008B000981709F41CC50091C8021091C90286E07E
:1008C00093E00E94EA1FF801E853FE4F8083E09115
:1008D000C802F091C9028091C401E853FE4F908193
:1008E0009813B9C380917F018F5F80937F019091AE
:1008F0007F018091C3019813AEC310927E01909145
:10090000000380910103981781F010917E0181E02E
:10091000810F80937E0186E093E00E94EA1FE12F21
:10092000F0E0E25AFE4F8083EACF2091C30180912C
:10093000C8029091C902821B91099093C9028093C9
:10094000C8028091C8029091C9021816190674F461
:100950004091C8025091C90268EC71E082E293E0D4
:100960000E94790186E293E00E940D1CF092C90278
:10097000E092C80210927F010E94AF0A6093CA02FF
:100980007093CB028093CC029093CD028091C601EC
:100990008D7F8093C6018091C60184608093C601DB
:1009A0001D821E821C821B82DA82C98270907E01A7
:1009B0008FE0F50111928A95E9F799249394612CBF
:1009C000072D10E0971468F5892D90E0FC01E25A9C
:1009D000FE4F2081203231F09C012F5F3F4F2017C6
:1009E0003107E9F401968017910709F4972C0E94CA
:1009F0004A01853090F490E0FC01EE0FFF1F8E0F4E
:100A00009F1FFC01EC57FE4F862D90E0825A9E4FAF
:100A100091838083892D861982839394692C939482
:100A2000D1CF80E00E948E018C0160EE70E00E94C8
:100A3000B126892BF1F480E591E00E94E517811140
:100A400006C08FE991E00E9415150E9401230E94C3
:100A5000BA178823B1F30E942416811131C38FE99C
:100A600091E00E94151589E891E00E9415150E94F9
:100A700065166CED70E0C8010E94B126892BE1F487
:100A800081E00E948E01009709F4E5C21092830173
:100A9000109282010E9479026130710581059105F1
:100AA00011F461E001C060E082E090E00E94072361
:100AB00081E08093C70104C368ED70E0C8010E9423
:100AC000B126892B99F481E00E948E01009709F4E8
:100AD000C2C210928301109282010E947902609337
:100AE000C4016091C40185E090E0E0CF64ED70E066
:100AF000C8010E94B126892B99F481E00E948E01E1
:100B0000009709F4A8C210928301109282010E94FA
:100B100079026093C3016091C30186E090E0C6CF83
:100B200060ED70E0C8010E94B126892BC9F481E014
:100B30000E948E01009709F48EC2109283011092D8
:100B400082010E9479026093000180910001883047
:100B500008F481C280910001883708F07CC2A5C2E8
:100B60006CEC70E0C8010E94B126892B09F5109247
:100B700083011092820181E00E948E01009739F07A
:100B80000E9479022B013C016624772403C0412C8A
:100B9000512C3201642D83E090E00E9407239927B5
:100BA000872D762D652D84E090E00E94072388C272
:100BB00068EC70E0C8010E94B126892B09F052C090
:100BC00081E00E948E018C01892B09F444C281E0EE
:100BD00090E0909383018093820164EC70E0C801FF
:100BE0000E94B126892B19F48091C50109C060ECDF
:100BF00070E0C8010E94B126892B29F48091000180
:100C00000E945D015DC26CEB70E0C8010E94B126DC
:100C1000892B19F48091C401F3CF68EB70E0C8010F
:100C20000E94B126892B19F48091C301E9CF64EBAE
:100C300070E0C8010E94B126892B09F041C284E00E
:100C400090E00E940923182F83E090E00E9409237E
:100C5000212F30E0322F2227A901482BCA010E9400
:100C600063012EC26CEA70E0C8010E94B126892B94
:100C700009F03FC0109283011092820160E082E08F
:100C800090E00E9407236AE185E090E00E9407233C
:100C900063E086E090E00E9407236AE28DE090E046
:100CA0000E9407231092C5018AE18093C40183E06A
:100CB0008093C3018AE28093000160E083E090E0CA
:100CC0000E94072360E084E090E00E9407230E94D6
:100CD000A00281E08093C70180912603882321F040
:100CE00086E293E00E94901D0E94C5020E940B23A1
:100CF000E7C169EA70E0C8010E94B126892B09F5B5
:100D000083E090E090938301809382010E944A01E6
:100D1000813029F48AE2F8018083118206C081E0E3
:100D20000E948E018C010E94C126109381010093C4
:100D300080018DE695E00E94B702C8010E94FF166F
:100D4000BFC166EA70E0C8010E94B126892BE1F4B8
:100D500081E00E948E01009709F47DC11092830109
:100D60001092820126961FAE269727961FAE2797D0
:100D7000E8969FAF8EAFE8971DA21EA220916D0549
:100D8000207709F0A3C167C163EA70E0C8010E943F
:100D9000B126892BD9F481E00E948E018C01892B28
:100DA00009F459C181E090E090938301809382011E
:100DB0000E944A01833009F0FCC16FE970E0C8016C
:100DC0000E94B126892B09F418C2F3C16CE970E0C6
:100DD000C8010E94B126892B91F581E00E948E0105
:100DE0008C01009709F437C110928301109282019F
:100DF00069E970E00E94B126892B79F489E591E0D8
:100E00000E942E16882391F08091C6018260809303
:100E1000C6018091C601806156C1C8010E942E168C
:100E2000882321F08091C601826003C08091C601B1
:100E30008D7F8093C6018091C6018F7E44C164E995
:100E400070E0C8010E94B126892B09F05DC081E0E5
:100E50000E948E018C01892B09F4FDC0809126032C
:100E6000882321F086E293E00E94901D82E090E0CA
:100E7000909383018093820141E0B80186E293E080
:100E80000E94BC02882361F182E00E948E010097DB
:100E9000C1F1FC0101900020E9F73197E81BF90B43
:100EA000DC01FF279D01281B390B2E173F0754F447
:100EB0002D91022E000C330B205331092A303105BD
:100EC00088F31FC00E947902AB01BC0186E293E067
:100ED0000E941019811115C086E293E00E94901DB6
:100EE0008091C6018D7F8093C6018091C601877F66
:100EF0008093C60181E0809301018FEF8093DB0234
:100F0000AAC00E94B50181C06FE870E0C8010E94CC
:100F1000B126892B69F581E00E948E01009709F4C2
:100F20009AC021E030E0309383012093820141E0B8
:100F3000BC01CE0105960E94BC02882381F08D8DF4
:100F40009E8D2F8D38A13093DB022093DC0290938D
:100F5000DD028093DE0284E0809301013DC06FEFEB
:100F60007FEFCB010E946B018091C6018D7FABC0EA
:100F70006BE870E0C8010E94B126892B49F481E03A
:100F800090E0909383018093820180E091E067CEAE
:100F900065E870E0C8010E94B126009719F4FC01D1
:100FA000099545C061E870E0C8010E94B126892B0F
:100FB000C1F481E00E948E01009709F44CC01092A8
:100FC00083011092820142ECBC01CE0105960E9481
:100FD000BC02882309F474C0CE0105960E94901DBE
:100FE0006FC06AE770E0C8010E94B126892BF9F44E
:100FF00081E00E948E01009771F11092830110929E
:1010000082010E940B23882349F08091C6018260EF
:101010008093C6018091C601886055C08091C60149
:101020008D7F8093C6018091C601877F4CC08091DF
:10103000C6018B7F8093C60188E690E00E9415155B
:10104000B80186E995E00E94E60E6AE471E086E95F
:1010500095E00E94E60E8091C8029091C902019627
:101060009093C9028093C8028091C8029091C902EE
:101070008115914009F018CC40E051E068EC71E036
:1010800082E293E00E9479011092C9021092C80294
:1010900010927F010E94AF0A6093CA027093CB0244
:1010A0008093CC029093CD02F4CB609100018DE04F
:1010B00090E00E94072381E08093C7010E94A00274
:1010C0008091C60182608093C601C5CFFC018081FA
:1010D0008F3209F06BC0E896EEADFFADE8978081E6
:1010E0008F3231F43196E896FFAFEEAFE897F3CF49
:1010F0006091730570917405CE0185960E944A1A1D
:10110000882309F4A8CF8E010B5D1F4F30E2932E88
:10111000AE014A585F4FBE016B597F4FE8968EADC6
:101120009FADE8970E945912882309F494CFE8965E
:10113000EEADFFADE8978081882359F121E0AE0143
:101140004B595F4FB801CE018B5B9F4F0E94CE0F72
:1011500081110CC0AE014B595F4FB801CE018B5BC2
:101160009F4F0E94A21E882309F475CFFE01EB5BFE
:10117000FF4FDE019596892D01900D928A95E1F73A
:10118000CE018B5B9F4F0E94901D8E010B5D1F4F08
:10119000BFCFAE014B595F4FB801CE018B5B9F4F64
:1011A0000E94A21E882309F456CF8ACF0DE615E0CF
:1011B000ADCF21E0A8016DE675E0CE0105960E9455
:1011C000991D8823E9F18D81807709F47DC0CE01D6
:1011D00005960E941D1A182FCE0105960E94901D9B
:1011E0008091C601111124C08D7F8093C6016FEFDD
:1011F0007FEFCB010E946B012ECF82E00E948E0117
:1012000021E0AC016DE675E0CE0105960E94991DC6
:10121000882361F0CE0105960E94051B182FCE0190
:1012200005960E94901D112309F44BC08091C601C0
:1012300082608093C60161E070E080E090E0DACFE8
:10124000C8010E94C126412C512C3201CE010596C5
:101250000E948316882381F18D8183FF28C0BE01FF
:101260006B5D7F4FCE0105960E949E0E8823F9F09C
:10127000BE016B5D7F4FC8010E9437028823B9F021
:10128000CE0105960E94901D42E0BE016B5D7F4F2E
:10129000CE0105960E94BC02CE0105960E94FB0E6F
:1012A000882329F0FFEF4F1A5F0A6F0A7F0ACE01E9
:1012B00005960E94901DCACFC301B2010E946B0126
:1012C000FFCE8091C60190CFCE0105960E94901D61
:1012D00042E0B801CE0105960E94BC02882329F0A5
:1012E000CE0105960E94FB0E76CF11E075CFC9584E
:1012F000DF4F0FB6F894DEBF0FBECDBFDF91CF91A9
:101300001F910F91FF90EF90DF90CF90BF90AF9023
:101310009F907F906F905F904F900895CF92DF9253
:10132000EF92FF920F931F93CF93DF936C017A019B
:101330008B01C0E0D0E0CE15DF0589F0D8016D91BA
:101340008D01D601ED91FC910190F081E02DC60157
:101350000995892B11F47E0102C02196ECCFC701BB
:10136000DF91CF911F910F91FF90EF90DF90CF9081
:1013700008953FB7F8948091D4029091D502A0913E
:10138000D602B091D70226B5A89B05C02F3F19F011
:101390000196A11DB11D3FBFBA2FA92F982F8827F5
:1013A000820F911DA11DB11DBC01CD0142E0660F50
:1013B000771F881F991F4A95D1F708950E94172A11
:1013C000833081F028F4813099F08230A1F00895C3
:1013D0008730A9F08830B9F08430D1F48091800052
:1013E0008F7D03C0809180008F7780938000089567
:1013F00084B58F7702C084B58F7D84BD08958091B8
:10140000B0008F7703C08091B0008F7D8093B000D3
:1014100008951F93CF93DF93282F30E0F901E05E0A
:10142000FD4F8491F901E45FFD4FD491F901E8503B
:10143000FE4FC491CC23C9F0162F81110E94E00900
:10144000EC2FF0E0EE0FFF1FEB58FE4FA591B4918B
:101450008FB7F894111105C09C91ED2FE095E92309
:1014600002C0EC91ED2BEC938FBFDF91CF911F91D8
:101470000895CF93DF9390E0FC01E45FFD4F24914A
:10148000FC01E850FE4F8491882361F190E0880FC1
:10149000991FFC01EC51FE4FC591D491FC01EB5812
:1014A000FE4FA591B491611109C09FB7F89488814E
:1014B000209582238883EC912E230BC0623061F447
:1014C0009FB7F8943881822F809583238883EC918D
:1014D0002E2B2C939FBF06C08FB7F894E8812E2B3C
:1014E00028838FBFDF91CF9108958F929F92AF9203
:1014F000BF92CF92DF92EF92FF926B017C010E942C
:10150000B9094B015C01C114D104E104F104F1F00B
:101510000E94B909DC01CB0188199909AA09BB0904
:10152000883E9340A105B10570F321E0C21AD108AD
:10153000E108F10888EE880E83E0981EA11CB11C1A
:10154000C114D104E104F10419F7DDCFFF90EF904D
:10155000DF90CF90BF90AF909F908F9008952FB75E
:10156000F8946091D0027091D1028091D202909152
:10157000D3022FBF08951F920F920FB60F9211241E
:101580002F933F938F939F93AF93BF938091D002FC
:101590009091D102A091D202B091D3023091CF02AA
:1015A00023E0230F2D3720F40196A11DB11D05C0A6
:1015B00026E8230F0296A11DB11D2093CF02809330
:1015C000D0029093D102A093D202B093D302809123
:1015D000D4029091D502A091D602B091D702019683
:1015E000A11DB11D8093D4029093D502A093D60281
:1015F000B093D702BF91AF919F918F913F912F915F
:101600000F900FBE0F901F9018951F920F920FB65C
:101610000F9211242F933F934F935F938F939F9338
:10162000EF93FF93209116033091170380911403D9
:101630009091150382179307D1F0C901019640914B
:10164000120350911303FA01E20FF31F208140911E
:101650001803509119038417950710F080E090E06B
:1016600090931703809316032093C60005C08091C2
:10167000C1008F7D8093C100FF91EF919F918F9169
:101680005F914F913F912F910F900FBE0F901F9040
:1016900018951F920F920FB60F9211242F933F931C
:1016A0004F935F936F937F938F939F93EF93FF93EA
:1016B0008091C0008C719091C60040911C035091A4
:1016C0001D039A012F5F3F4F60911A0370911B0316
:1016D000FB01E40FF51F90834091200350912103FB
:1016E0002417350710F020E030E040911E035091A0
:1016F0001F0324173507C1F030931D0320931C03EB
:101700009091CE02892B8093CE02FF91EF919F9111
:101710008F917F916F915F914F913F912F910F909A
:101720000FBE0F901F9018958160EACF8EBD0DB44B
:1017300007FEFDCF08958FEF8EBD0DB407FEFDCFE0
:101740008EB50895CF93DF93FC012381222361F0AE
:10175000EC010180F281E02D61E082810E94090AA2
:101760008FEF0E94960B1B82DF91CF9108950F930C
:101770001F93CF93DF93EC0189018D81833039F082
:1017800089E0440F551F661F771F8A95D1F79A018C
:10179000AB0168E1CE010E94350C882311F082E391
:1017A0002DC08EEF0E94960BF80180818EBD818145
:1017B00032961E5F0DB407FEFDCF8EBDE017F10718
:1017C00011F08191F7CF0DB407FEFDCF8FEF0E948E
:1017D000960B8FEF0E94960B0E949B0B8C838F7150
:1017E000853031F087E58883CE010E94A20B07C0C7
:1017F0000E94A614182F811107C08AE58883CE01A4
:101800000E94A20B10E012C020E030E0A9016DE0C0
:10181000CE010E94350C811104C00E949B0B8823CD
:1018200011F089E2EBCFCE010E94A20B812FDF9154
:10183000CF911F910F910895CF93DF93FC012381E6
:10184000211110C0EC010180F281E02D9081818195
:101850009CBD8DBDE981FA8160E082810E94090A08
:1018600081E08B83DF91CF910895EF92FF921F93D8
:10187000CF93DF9300D000D0CDB7DEB77C01162F19
:1018800029833A834B835C83FC018381811103C0EC
:10189000C7010E941C0C0E94A614812F80640E9424
:1018A000960B8C810E94960B8B810E94960B8A81ED
:1018B0000E94960B89810E94960B112311F087E8F4
:1018C00001C085E90E94960B1C3011F40E949B0B0D
:1018D00010E00E949B0BF701848387FF04C01F3F29
:1018E00011F01F5FF6CF0F900F900F900F90DF91C8
:1018F000CF911F91FF90EF900895EF92FF920F9379
:101900001F93CF93DF93EC0179018D81833039F000
:1019100089E0440F551F661F771F8A95D1F79A01FA
:10192000AB0161E1CE010E94350C882319F080E300
:10193000888338C00E94AF0A8B010E949B0B8C8366
:101940008F3F49F40E94AF0A601B710B6D327140EA
:10195000A0F385E503C08E3F31F080E58883CE019A
:101960000E94A20B1FC08FEF8EBDF701D701A150BF
:10197000BE4F9FEF0DB407FEFDCF8EB59EBD819388
:10198000EA17FB07B9F70DB407FEFDCF8EB58C93B0
:101990001C820E949B0B0E949B0BCE010E94A20BFB
:1019A00081E004C0CE010E94A20B80E0DF91CF91C4
:1019B0001F910F91FF90EF900895EF92FF921F9368
:1019C000CF93DF93FC01208120FF32C0EC017C012A
:1019D000F7E0EF0EF11C4B815C816D817E81E98126
:1019E000FA819701808191810E94B70B182F811194
:1019F00002C010E01EC0888181FD04C088818E7FF6
:101A0000888317C0E981FA81448555856685778585
:101A10008B819C81AD81BE81480F591F6A1F7B1F3E
:101A20009701808191810E94B70B8111E7CFE1CFAF
:101A300011E0812FDF91CF911F91FF90EF900895DA
:101A4000CF92DF92EF92FF921F93CF93DF93EC013F
:101A50006A017B01122F8B819C81AD81BE8184172D
:101A60009507A607B707F1F0CE010E94DD0C8111A2
:101A700003C080E090E01CC012FF06C01882CB8239
:101A8000DC82ED82FE820EC0E981FA819E01295F2F
:101A90003F4FB701A601808191810E947D0C811189
:101AA000EDCFE7CF13708881182B1883CE010796EE
:101AB000DF91CF911F91FF90EF90DF90CF9008952D
:101AC0008F929F92AF92BF92CF92DF92EF92FF924E
:101AD0000F931F936A017B01480159014230510560
:101AE0006105710510F480E052C0FC01408D518DFC
:101AF000628D738D4C155D056E057F05A0F3258104
:101B0000203241F544895589668977899701860194
:101B1000E7E03695279517950795EA95D1F7400F99
:101B2000511F621F731F23E080960E94200D0097B3
:101B3000D1F2E894C7F8DD24EE24FF24CC0CDD1CA0
:101B4000CC0CDD1CFC01EC0DFD1D80829182A2827B
:101B5000B3821CC0203139F6FC014489558966895D
:101B600077894D0D511D611D711D23E080960E94E6
:101B7000200D009709F4B7CFDD24EE24FF24CC0C10
:101B8000DD1CFC01EC0DFD1D9182808281E01F9126
:101B90000F91FF90EF90DF90CF90BF90AF909F900C
:101BA0008F900895CF92DF92EF92FF920F931F9341
:101BB000CF93DF93EC016A017B018901423051052B
:101BC0006105710510F48FEF63C0888D998DAA8D22
:101BD000BB8D84179507A607B707A8F38D818032C0
:101BE00041F58C899D89AE89BF89E7E07695679537
:101BF00057954795EA95D1F7480F591F6A1F7B1FE4
:101C000022E0CE0180960E94200D0097E1F2E89438
:101C1000C7F8DD24EE24FF24CC0CDD1CCC0CDD1C2D
:101C2000FC01EC0DFD1D80819181A281B381BF700B
:101C30001EC0803141F64C895D896E897F894D0DCA
:101C4000511D611D711D22E0CE0180960E94200D64
:101C5000009709F4B8CFDD24EE24FF24CC0CDD1C62
:101C6000FC01EC0DFD1D80819181A0E0B0E0488D6C
:101C7000598D6A8D7B8D481759076A077B0738F0A5
:101C8000F80180839183A283B38381E001C080E067
:101C9000DF91CF911F910F91FF90EF90DF90CF9048
:101CA00008959F92AF92BF92CF92DF92EF92FF92F0
:101CB0000F931F93CF93DF9300D000D0CDB7DEB743
:101CC0005C016A017B019E012F5F3F4FB701A601B6
:101CD000C5010E94D20D982E87FF02C080E01EC071
:101CE00000E010E09801B701A601C5010E94600D57
:101CF0008823A1F3F5014085518562857385C4165B
:101D0000D506E606F70620F4C086D186E286F3867D
:101D1000C980DA80EB80FC809110D5CF0F900F90B6
:101D20000F900F90DF91CF911F910F91FF90EF9047
:101D3000DF90CF90BF90AF909F9008950F931F9327
:101D4000CF93DF93EB01FC012081211102C080E0E1
:101D500038C0207621F08FE28883198231C08B0150
:101D600060E00E94ED1BDC01009789F3FC0148E074
:101D700090E020E05EE280818032D1F0283039F4BA
:101D8000B801690F711DEB0158839F5F40E13081FD
:101D90008FEB830F8A3130F41C968C911C9784232F
:101DA00009F0305EB801690F711DEB0138839F5F48
:101DB0002F5F31962B30F9F6E801C90FD11D18823B
:101DC00081E0DF91CF911F910F9108956115710509
:101DD00079F0FB0101900020E9F73197AF01461B34
:101DE000570BDC01ED91FC910280F381E02D099409
:101DF00080E090E008959F92AF92BF92CF92DF92E1
:101E0000EF92FF920F931F93CF93DF93CDB7DEB77F
:101E1000A0970FB6F894DEBF0FBECDBF19821A820D
:101E2000DC012C9123FD02C080E0A6C0FC012281D0
:101E300021FFFACF8C01448D558D668D778D41152C
:101E400051056105710549F0D80116968D919C9157
:101E500017970E94510E882339F361E0C8010E9450
:101E6000ED1B7C01009701F30E94FD18B82E85EE52
:101E7000F7018083D8011C9216968D919C9117973B
:101E800080960E94DD0C882379F2F80193819923D2
:101E900009F472C0F80180859185A285B3856681B9
:101EA00077819E012F5F3F4F79010097A105B10512
:101EB00039F4C9010E944A1A882309F4B5CF0FC02A
:101EC00020E2F70111922A95E9F720E1298321E028
:101ED0002B8378876F838D8F9E8FAF8FB8A39924C4
:101EE000939495EEA92EF8018381891508F49CCF6F
:101EF000C92CD12CD80114964D915C9115974C1991
:101F00005D0960E070E085E0440F551F661F771F94
:101F10008A95D1F7C7010E941019882309F484CF4C
:101F200060E0C7010E94D419FC01892B09F47CCF21
:101F300083858F3009F078CF2081822F8F7190E0D8
:101F4000C816D90609F070CF8585B8126DCFA0826A
:101F5000D8011696ED91FC91179780A1816080A31E
:101F600026FF08C016968D919C91179780960E9427
:101F7000DD0C02C09394B7CFA0960FB6F894DEBFE5
:101F80000FBECDBFDF91CF911F910F91FF90EF90CA
:101F9000DF90CF90BF90AF909F9008952F923F9287
:101FA0004F925F926F927F928F929F92AF92BF9269
:101FB000CF92DF92EF92FF920F931F93CF93DF9315
:101FC000CDB7DEB72A970FB6F894DEBF0FBECDBFF0
:101FD0004C018B01FA01A180B280DB018C918077EA
:101FE00011F480E04DC2D4018C918111FACF90811F
:101FF000937009F439C2C5010C966DE070E00E943F
:10200000C12977247394760E2A837F011A87098762
:10201000C8010E94B7021C821D821982612C10E047
:1020200000E01B8297012A5F3F4F3F832E83E985A3
:10203000FA8580899189A289B3891C012D01A5E0C7
:102040005694479437942794AA95D1F7610161E09B
:10205000CF010E94D419009741F4A985BA85119641
:102060008C91882309F498C0BCCFFC012081253EC7
:1020700011F021110AC0111102C02C823D821715E6
:1020800008F41F5F211105C087C0171508F4EFC1C0
:1020900002C0253EF1F12E32E1F1DC011B963C91AC
:1020A0001B973F3009F057C0011109C026FFBFCF71
:1020B000022F0F711D962C912983602E09C06A94FE
:1020C000261127C0DC011D962C913981321321C0C5
:1020D000462D50E0415051096DE0649F9001659F8D
:1020E000300D11242A153B05A0F4FC0160E0653099
:1020F00018F48181928107C06B3018F48481958136
:1021000002C0868197812A153B0529F4892B09F4A1
:102110008ECF00E08CCF8F3F910509F0D0F74FEBC9
:10212000480F4A3110F0782F02C070E2780FA901F1
:102130004F5F5F4FD70113968D919C911497DC01EF
:10214000A20FB31F8C919FEB980F9A3108F4805E19
:102150007813DFCF8EC133FDDCCF002349F0B1E02F
:102160006B123FCF0E94FD18298182133ACF10C015
:102170004BE050E06E817F810E941C2A892B09F080
:1021800056CFD7018C9180FF03C031E03B834FCF06
:102190002A8127FF61C125CF8A818274823409F0A8
:1021A00020CF112359F0CC80DD8008C060E0898504
:1021B0009A850E94D419892B21F01F5F1715B0F35F
:1021C00018C0A985BA8511968C91882391F009CF02
:1021D00089859A850E941E1E882309F402CFA9854D
:1021E000BA851696ED91FC9117978281823018F48A
:1021F000105F171568F32B81222309F470C0D701F3
:1022000015966C9002E010E07EE7372E2701B6E0CD
:102210004B0E511C3EC0F3E0F61510F453E0652E52
:1022200034E0360D282F2F70E32FF0E02A3008F02D
:102230004EC0205DEE0DFF1D268344E096958795E8
:102240004A95E1F73150631668F3F701E60DF11D89
:10225000368289859A850E94B70261E089859A85D0
:102260000E94D4190097A9F1FC0120812223B9F121
:10227000238523FDF2CF4BE050E0BC01C2010E9458
:102280001C2A892B51F70F5F1F4F0436110509F4E3
:10229000A8CEF70141815281C801840F951F0380A8
:1022A000F481E02D4E0F5F1FE417F50709F4B3CF5B
:1022B0009C0165E0220F331F6A95E1F7820F931F9F
:1022C0002191022E000C330B82279327EDCF295C3E
:1022D000B1CFA985BA8511968C91811182CEA601C4
:1022E00060E070E035E0440F551F661F771F3A9598
:1022F000D1F789859A850E941019882309F471CE37
:102300000FEF070D102F9FE0492E6701F6E0CF0E6B
:10231000D11C2DE0522E112309F45EC060E08985A6
:102320009A850E94D4193C01892B09F45ACEA985BB
:10233000BA851696ED91FC91179780A1816080A3D4
:10234000212F101301C02064F301208343861486DB
:10235000C60128870E94FD18D3011D968C931D97F6
:102360005B961C921E925A97F701438154812885EF
:102370002F71822F90E00197589E9001599E300D49
:102380001124F30160E02A153B0540F4DA01A20FA5
:10239000B31F8C91082E000C990B0AC081E090E0CD
:1023A0002A153B0511F480E090E091958195910903
:1023B000653018F49283818307C06B3018F49583DD
:1023C000848302C0978386836F5F2F5F3F4F32966F
:1023D0006D30C9F611509FCFA985BA8550964D91A1
:1023E0005D916D917C91539785E0769567955795B2
:1023F00047958A95D1F76A0160E0CD010E94D41912
:10240000009709F4EECD20E2FC0111922A95E9F73C
:10241000F70136962BE0DC0101900D922A95E1F749
:10242000D7012C912871FC01248721E238E2318BFD
:10243000208B40E058E057874687338B228B318FC3
:10244000208F578B468BA985BA851696ED91FC9106
:10245000179780A1816080A32A81A60169857A856A
:10246000C4010E94641A0CC077247394CDCD10E08F
:1024700012CE6F5F32966D3009F4D9CD9A0137CE06
:102480002A960FB6F894DEBF0FBECDBFDF91CF9175
:102490001F910F91FF90EF90DF90CF90BF90AF9082
:1024A0009F908F907F906F905F904F903F902F9074
:1024B0000895AF92BF92CF92DF92EF92FF920F9367
:1024C0001F93CF93DF93FB01DC0101962C91203207
:1024D000D9F3B483A3839D0189010A1B1B0BE90176
:1024E00089919E018823C1F08F32B1F08C3511F4AF
:1024F00080E0F2C0982F977F9232D1F38A33C1F3F4
:10250000982F9F7B9C33A1F392EC980F923080F32D
:1025100080528F3508F3ECCF0A0F1B1FC801682FBC
:10252000392FEC012991CE012032C9F32F32B9F3B2
:10253000EA016883398398012A1B3B0B0A171B07A2
:1025400041F0E8018A918E018E32A9F3803299F32D
:1025500003C0A12CB12C05C059012F3F310509F052
:102560003CF6B282A182CF0106969F012F5E3F4FBB
:1025700040E2EC014993CE01C217D307D1F7CD0158
:10258000AC014A1B5B0BEC013991CE013E32C1F329
:102590003032B1F39A0191E0452B09F090E0A501AA
:1025A0004150510938F0BD01640F751FEB0188815E
:1025B0008E32B1F717E060E000E070E088E0E82ECE
:1025C0002A153B050CF06CC06D01C20ED31EE6014E
:1025D0008881803209F45BC08E3229F44217530798
:1025E00009F055C004C08232E1F08C37D1F0D6ED4D
:1025F000FD2EF80ED5E0DF1510F08D3291F4C6EC0B
:10260000FC2EF80EC5E0CF1560F4D5EAFD2EF80ECD
:10261000D2E0DF1530F4CFEDFC2EF80ECDE5CF156E
:1026200020F42417350781F438C024173507A9F1A1
:10263000161718F1F82ECFE9DC2ED80ED9E1DD15EA
:1026400048F080527E290CC01617B8F090E08FE554
:10265000CFE5FC2ECFEBFC0ED9E1DF1508F00E29FB
:10266000FF24F394F60E6F01C60ED11CE6018E8393
:10267000D6E0DF1570F0F5820CC01A3081F04217F9
:1026800053076CF09A011AE068E0D0E1ED2E90E07B
:1026900001C06F2D2F5F3F4F93CF1A30B9F490E0F8
:1026A0008681803209F424CF992329F0072309F089
:1026B00072E0708309C081E080838581E80FF11D9D
:1026C0008EE7868381E3878381E006C09A011AE062
:1026D00068E0D0E1ED2EDECFDF91CF911F910F9119
:1026E000FF90EF90DF90CF90BF90AF9008958F92C2
:1026F0009F92AF92BF92CF92DF92EF92FF92CF93D1
:10270000C82F10924B0381E090E0A0E0B0E08093EE
:102710004E0390934F03A0935003B093510386E46C
:1027200093E09093680380936703109266038FEFA2
:102730009FEFDC018093690390936A03A0936B037E
:10274000B0936C03CC2331F1C53008F0DCC020E03D
:1027500040E050E0BA0186E693E00E94200D009729
:1027600009F4D1C020E1C29F800D911D1124409732
:10277000FC01E254FE4F20812F7709F0C4C0389647
:1027800080809180A280B38081149104A104B1045F
:1027900021F4B9C0812C912C540120E0B501A40191
:1027A00086E693E00E94200DFC01892B09F4ABC062
:1027B000838594858115924009F0A5C08089823077
:1027C00009F0A1C0468557854115510509F49BC004
:1027D0002585209348038FEF820F8093490380E083
:1027E00091E0291751F031E0380F393019F4809316
:1027F0004A0389C0990F832FF4CF80934A03C68878
:10280000D788C114D10419F0E12CF12C04C0C4A064
:10281000D5A0E6A0F7A0C0925203D0925303E09255
:102820005403F0925503D501C401840F951FA11DD7
:10283000B11D80935A0390935B03A0935C03B09304
:102840005D032189328930934D0320934C03CC0CD6
:10285000DD1CEE1CFF1CC80ED91EEA1EFB1EC0921A
:102860006203D0926303E0926403F092650355E043
:10287000220F331F5A95E1F721503E4F232F332764
:102880002695C20ED31EE11CF11CC0925603D092B5
:102890005703E0925803F092590323893489211594
:1028A000310521F0C901A0E0B0E004C080A191A1F0
:1028B000A2A1B3A1B501A4014C195D096E097F095C
:1028C000480F591F6A1F7B1F00904A0304C076956A
:1028D0006795579547950A94D2F7DB01CA0101968F
:1028E000A11DB11D80935E0390935F03A0936003CD
:1028F000B0936103453F8FE058076105710528F4E7
:102900008CE080934B0380E017C0453F5F4F61052B
:10291000710510F480E10DC084A595A5A6A5B7A505
:102920008093620390936303A0936403B093650361
:1029300080E280934B0381E0CF91FF90EF90DF9096
:10294000CF90BF90AF909F908F900895CF93DF93DB
:102950000E94AF0AEB010E949B0B8F3F49F00E943F
:10296000AF0A6C1B7D0B69357240A8F380E001C093
:1029700081E0DF91CF910895880F8093BA0084EAB7
:102980009FE1909305038093040380EB9FE1909374
:10299000030380930203109201031092000310922C
:1029A000FF021092FE021092FD0281E08093FC0271
:1029B0001092FB0261E082E10E94090A61E083E17A
:1029C0000E94090AE9EBF0E080818E7F808380819C
:1029D0008D7F808388E48093B80085E48093BC0079
:1029E0000895CF93DF93E3E2F2E08491EFE0F2E029
:1029F000D491EBEFF1E0C491CC2391F081110E94CE
:102A0000E009EC2FF0E0EE0FFF1FE251FE4FA59121
:102A1000B491EC91ED2381E090E021F480E002C0DC
:102A200080E090E0DF91CF9108950F931F93CF93B3
:102A3000DF938C01C0E0D0E0F801EC0FFD1F649142
:102A4000662371F0E0919605F09197050190F08171
:102A5000E02D86E995E00995892B11F02196ECCFC0
:102A6000CE01DF91CF911F910F9108958F929F9288
:102A7000AF92BF92DF92EF92FF920F931F93CF938B
:102A8000DF93EC017B019881992309F442C08A818C
:102A900080FF3FC093FF48C0488D598D6A8D7B8D64
:102AA000088919892A893B89401B510B620B730BDA
:102AB000423051056105710590F1488959896A894B
:102AC0007B898A01117095FD48C0EE81FF81D3801A
:102AD0004A015B0189E0B694A794979487948A95FC
:102AE000D1F7D8200115110509F064C0D11062C0DA
:102AF000452B462B472B09F442C04C855D856E85DE
:102B00007F859E01245F3F4FCF010E94D20D87FF3A
:102B100046C08981826089838FEF9FEF89C0452BF2
:102B2000462B472B51F610C095FFC7CFEE81FF8192
:102B30008681978125E0880F991F2A95E1F72889DA
:102B400039898217930719F480E090E06DC04889B5
:102B500059896A897B898A01117099E07695679510
:102B6000579547959A95D1F7EE81FF81848D958D84
:102B7000A68DB78D480F591F6A1F7B1F39C096FF5E
:102B800005C0848D958DA68DB78D04C08C8D9D8DCF
:102B9000AE8DBF8D8C879D87AE87BF870BC081119F
:102BA00009C08881807709F4B4CF81E090E021E00A
:102BB00030E03CC0EE81FF814C855D856E857F8570
:102BC0004250510961097109048004C0440F551F26
:102BD000661F771F0A94D2F780899189A289B389E9
:102BE000480F591F6A1F7B1F4D0D511D611D711D1F
:102BF0008E819F8120E080960E94200D009709F42D
:102C000088CFFC01E00FF11F8081F7018083888964
:102C10009989AA89BB890196A11DB11D888B998BC1
:102C2000AA8BBB8B81E090E020E030E0821B930B0D
:102C3000DF91CF911F910F91FF90EF90DF90BF90A8
:102C4000AF909F908F9008958DE695E00E94901D23
:102C500066E473E08DE695E00C944A1ACF93DF9317
:102C6000CDB7DEB7A0970FB6F894DEBF0FBECDBFCD
:102C700019821A82FC0120812F3231F42181211125
:102C800003C00E94241618C021E0AC016DE675E077
:102C9000CE0101960E94991D882371F09981907749
:102CA00051F090E2FE013196ADE6B5E001900D9253
:102CB0009A95E1F701C080E0A0960FB6F894DEBFC8
:102CC0000FBECDBFDF91CF910895C3E061E085E0F5
:102CD0000E94090A68EC70E080E090E00E94750AAA
:102CE00060E085E00E94090A68EC70E080E090E016
:102CF0000E94750AC15051F760ED77E080E090E0E6
:102D00000E94750AE2CFAF92BF92CF92DF92EF920C
:102D1000FF920F931F93CF93DF9300D000D0CDB7D6
:102D2000DEB7FC018081811153C090916D059077D1
:102D300009F44EC040917D0550917E0560917F055C
:102D4000709180054F71552766277727452B462BB5
:102D5000472BF1F55F0100E010E0C0907D05D090B9
:102D60007E05E0907F05F090800560E08DE695E0BF
:102D70000E94D419FC01892B59F19081992341F1CA
:102D80009E3211F400E0E9CF953EE1F3838583FDA7
:102D900017C0B701A60185E07695679557954795C9
:102DA0008A95D1F70023B1F0CF0149835A836B8311
:102DB0007C830E94FD1849815A81181309C00AC0FA
:102DC0008F3001F796FFC9CF092F0F711585C5CF39
:102DD00080E006C021E06DE675E0C5010E94641A3E
:102DE0000F900F900F900F90DF91CF911F910F9147
:102DF000FF90EF90DF90CF90BF90AF900895CF926B
:102E0000DF92EF92FF920F931F93CF93DF93CDB793
:102E1000DEB7E2970FB6F894DEBF0FBECDBF6C01F0
:102E20001D821E821C821B8284E291E09A83898328
:102E30008E010B5D1F4F87E5E82E81E0F82ECE0155
:102E400005960E948316882319F1B801CE010596D4
:102E50000E949E0E8823B9F09D81907771F01F9398
:102E60000F93FF92EF921F930F930E94412A0F90AE
:102E70000F900F900F900F900F90B801C6010E9415
:102E8000370281110CC0CE0105960E94901DD7CF4C
:102E900081E0809301018FEF8093DB0219C01F93C3
:102EA0000F938BE591E09F938F938BED92E09F932F
:102EB0008F930E94412A8F5F80930101CE01059676
:102EC0000E94901D0F900F900F900F900F900F90F9
:102ED000E2960FB6F894DEBF0FBECDBFDF91CF9163
:102EE0001F910F91FF90EF90DF90CF9008958F92F8
:102EF0009F92AF92BF920F931F93CF93DF93CDB763
:102F0000DEB7A1970FB6F894DEBF0FBECDBF19A2F2
:102F1000423008F44AE08E010F5D1F4F842E912C41
:102F2000A12CB12CA50194010E94D529E62FB9014D
:102F3000CA0101501109EA3014F4E05D01C0E95CF6
:102F4000D801EC93232B242B252B61F7B80186E9BC
:102F500095E00E94E60EA1960FB6F894DEBF0FBE74
:102F6000CDBFDF91CF911F910F91BF90AF909F90F8
:102F70008F9008958DE895E09093470380934603E2
:102F80008DE695E00E94901D81E00E9477138823D2
:102F900049F066E473E08DE695E00E944A1A8823C2
:102FA00091F006C080E00E9477138111F2CF0BC030
:102FB00090916D05907739F02DE635E03093DA0287
:102FC0002093D902089580E008958F929F92AF9246
:102FD000BF92CF92DF92EF92FF921F93CF93DF9336
:102FE000D82FC92F1092900510928D05109292053E
:102FF00083E995E090938F0580938E050E94AF0A38
:103000006B017C01A0908E05B0908F058AE0F501E0
:10301000828361E00E94390A61E0F50182810E94A9
:10302000090A1FB7F8948091E405811127C0E2E0F6
:10303000F2E02491E6E1F2E08491E22FF0E0EE0F7D
:10304000FF1FEC51FE4FA591B491EC91E82321F4C0
:1030500061E08AE00E94090A61E08AE00E94390A80
:103060008CB580618CBD8CB580648CBD61E08DE0D9
:103070000E94390A61E08BE00E94390A8091E405E0
:103080008F5F8093E4051FBFE0918E05F0918F055F
:1030900082E5808311828DE895E00E941C0CE0910E
:1030A0008E05F0918F0561E082810E94090A1AE085
:1030B0008FEF0E94960B1150D9F7E0918E05F09199
:1030C0008F0560E082810E94090A20E030E0A901BA
:1030D00060E08DE895E00E94350C813049F00E9457
:1030E000AF0A6C197D09613D774078F380E258C0E2
:1030F0002AEA31E040E050E068E08DE895E00E9487
:10310000350C853011F481E00AC014E00E949B0B5D
:10311000809391051150D1F78A3A59F482E0809357
:10312000920580919205823069F0812C912C540196
:103130000EC00E94AF0A6C197D09613D7740C0F254
:1031400085E22EC0812C912CA12C80E4B82E20E0A9
:1031500030E0A90167E38DE895E00E94350CA501F8
:10316000940169E28DE895E00E94350C882349F0CE
:103170000E94AF0A6C197D09613D774040F383E4FA
:103180000FC080919205823009F520E030E0A9015E
:103190006AE38DE895E00E94350C882349F087E3C7
:1031A00080938D058DE895E00E94A20B80E019C008
:1031B0000E949B0B807C803C19F483E080939205F5
:1031C0000E949B0B0E949B0B0E949B0B8DE895E03D
:1031D0000E94A20BE0918E05F0918F05D083C183F0
:1031E00081E0DF91CF911F91FF90EF90DF90CF9022
:1031F000BF90AF909F908F900895FC01AC01455F08
:103200005F4F80E090E8899F90011124982F969558
:10321000922B2191892F820FE417F50799F70895D2
:103220004F925F926F927F928F929F92AF92BF92D6
:10323000CF92DF92EF92FF920F931F93CF93DF9382
:10324000EC014A015B014C845D846E847F84A8811B
:10325000AA2309F491C0488959896A897B8984160F
:103260009506A606B70609F48DC081149104A10441
:10327000B10429F41C861D861E861F8678C0A3FF14
:103280000BC0088D198D2A8D3B8D081519052A054F
:103290003B0508F471C014C0A5FF12C0EE81FF8188
:1032A0008681978125E0880F991F2A95E1F7A0E094
:1032B000B0E088159905AA05BB0508F45DC057C0A4
:1032C000EE81FF81848190E009968A019B01015083
:1032D000110921093109082E04C036952795179543
:1032E00007950A94D2F775016401B1E0CB1AD108B1
:1032F000E108F10804C0F694E794D794C7948A953E
:10330000D2F7C016D106E206F30620F0452B462B75
:10331000472B81F4A6FF05C0848D958DA68DB78DB2
:1033200004C08C8D9D8DAE8DBF8D8C879D87AE87A3
:10333000BF8704C0C01AD10AE20AF30A8E01045FF3
:103340001F4FC114D104E104F10489F04C855D855F
:103350006E857F8598018E819F810E94D20D91E0BC
:10336000C91AD108E108F10818165CF305C0888A6B
:10337000998AAA8ABB8A06C04C865D866E867F863D
:1033800080E001C081E0DF91CF911F910F91FF900C
:10339000EF90DF90CF90BF90AF909F908F907F90F5
:1033A0006F905F904F900895FF920F931F93CF936C
:1033B000DF931F92CDB7DEB78C01FC018089918924
:1033C000A289B3899C01AD0175E056954795379563
:1033D00027957A95D1F7F22FFF70FF2E11F061112A
:1033E00014C0BE016F5F7F4FC8010E943615813047
:1033F00019F080E090E01AC0F80180899189A289D3
:10340000B3894F96A11DB11D04C08096A11DB11DA9
:10341000F801808B918BA28BB38BF8018681978109
:103420008796F0E2FF9E800D911D11240F90DF9191
:10343000CF911F910F91FF900895CF93DF93FC01DF
:10344000208124FF23C0EC010E94B70261E0CE017D
:103450000E94D419009721F48981882369F016C04D
:10346000FC012081222341F0253E81F32E3271F3AD
:10347000838583FDEBCF0AC088E088838A818260E0
:103480008A83CE01DF91CF910C94FB0E80E0DF9117
:10349000CF910895FC018081811114C080E2DF0189
:1034A000982F1D929A95E9F777836683DB0115962D
:1034B0009C91903119F0903229F480E4808381E06E
:1034C0008283089580E008958F929F92AF92BF9279
:1034D000FF920F931F93CF93DF93EC01F22E80E2C4
:1034E000DE011D928A95E9F7FB01868197819F8312
:1034F0008E835D834C83848C958CA68CB78C888658
:103500009986AA86BB86FA01EF70FF27DC019796A1
:1035100035E0EE0FFF1F3A95E1F7AD014E0F5F1F4B
:10352000DA011B962C9123FF03C0188280E063C050
:103530009C012E0F3F1FD901D2962C912771288311
:10354000DA011B963C91387111F4286028830B83B3
:103550002F2D227319F02881217139F72F2D2F700B
:103560002A83DC0193964D915D916D917C919697A4
:103570004C8B5D8B6E8B7F8BE80FF91F43AD54AD89
:1035800060E070E0BA0155274427DF01AF5BBF4F11
:103590000D911C9120E030E0402B512B622B732BBE
:1035A000F4FE0AC04115510561057105F9F00E944C
:1035B000510E81111BC0B9CF4C8F5D8F6E8F7F8FE5
:1035C000ED5BFF4F80819181A281B381888F998FBC
:1035D000AA8FBB8FF5FE0EC0488D598D6A8D7B8DED
:1035E000CE010E941019811105C09FCF8A81806889
:1035F0008A83F0CF81E0DF91CF911F910F91FF90EF
:10360000BF90AF909F908F9008958F929F92AF92AE
:10361000BF92CF92DF92EF92FF920F931F93CF93BF
:10362000DF93CDB7DEB7A0970FB6F894DEBF0FBE1D
:10363000CDBFFC0119821A829081907709F4B9C03C
:103640007F01CF010E94B702F70180889188A2888C
:10365000B38860E0C7010E94D419009729F4F701EC
:1036600081818823A9F0A5C0FC012081222381F05B
:10367000253E51F32E3241F3838583FDE5CF8981C9
:10368000811197C0F7018081807709F492C00AC048
:10369000F7018081807621F4C7010E941D1A8AC03B
:1036A00081E088C085E0B694A794979487948A9522
:1036B000D1F764018114910449F1A40141505109E9
:1036C00060E070E025E0440F551F661F771F2A95C4
:1036D000D1F7C7010E941019882309F46AC060E07D
:1036E000C7010E94D419FC01892B09F462C08385AB
:1036F0008F3079F480818F71813059F41585082DD0
:10370000F5E1CF16D10438F004E105C0C7010E94ED
:10371000B70200E010E060E0C7010E94D4190097F2
:1037200009F447C0FC012081253E09F442C0222350
:1037300009F43FC02E32E9F1002321F00E94FD1868
:10374000181337C021E0A401B701CE0101960E94F1
:10375000641A882371F1898184FF05C0CE01019626
:103760000E94051B07C08B8182608B83CE0101966E
:103770000E94FB0E8823E9F0FFEF8F1A9F0AA40135
:1037800060E070E095E0440F551F661F771F9A9523
:10379000D1F7F70180899189A289B38984179507A8
:1037A000A607B70709F450CFC7010E94101981116D
:1037B0004BCF80E0A0960FB6F894DEBF0FBECDBF12
:1037C000DF91CF911F910F91FF90EF90DF90CF90FD
:1037D000BF90AF909F908F900895CF93DF93EC01AF
:1037E000262F4C895D896E897F898E819F81809685
:1037F0000E94200D009761F02C813D812F703327AE
:1038000045E0220F331F4A95E1F7820F931F02C054
:1038100080E090E0DF91CF910895CF93DF93FC019A
:103820002081211102C081E031C0EC01828187FF3B
:1038300025C061E0CF010E94ED1BFC01892B29F41A
:1038400089818160898380E021C08081853EC1F3C8
:10385000888183FF08C0888D998DAA8DBB8D848F48
:10386000958FA68FB78F8C8D9D8DAE8DBF8D938FCD
:10387000828FB58BA48B8A818F778A838E819F817B
:1038800080960E94DD0C8823D9F2CDCFDF91CF91B5
:1038900008952F923F924F925F926F927F928F92F4
:1038A0009F92AF92BF92CF92DF92EF92FF920F93CF
:1038B0001F93CF93DF93EC015B014A01888183FF63
:1038C0000EC08A8181FF0BC082FF0FC0488D598DC9
:1038D0006A8D7B8DCE010E941019811106C08981ED
:1038E000816089838FEF9FEF08C1A40160E070E0E1
:1038F00088899989AA89BB8980959095A095B0956A
:1039000084179507A607B70750F364011E018CE0E2
:10391000280E311C088919892A893B89C114D104D0
:1039200009F4D0C08E819F81B901A80129E0769564
:103930006795579547952A95D1F7DC011396FC902A
:10394000F4221170F11034C00115110589F54C8570
:103950005D856E857F85411551056105710569F0AD
:1039600091010E94D20D87FDBACF811121C0CE01F5
:103970000E941A2181111CC0B2CF8C8D9D8DAE8DFD
:10398000BF8D0097A105B10579F4CE010E941A21DF
:10399000882309F4A4CF8C859D85AE85BF858C8F47
:1039A0009D8FAE8FBF8F04C08C879D87AE87BF87EA
:1039B000EE81FF814C855D856E857F854250510982
:1039C00061097109048004C0440F551F661F771FE9
:1039D0000A94D2F780899189A289B389480F591F27
:1039E0006A1F7B1F4F0D511D611D711D01151105B2
:1039F00021F4C114B2E0DB06B0F580E092E0801B58
:103A0000910B76018C159D0508F47C0101151105BB
:103A100079F4488859886A887B88888D998DAA8D21
:103A2000BB8D481659066A067B0610F025E001C0DA
:103A300021E0CF0180960E94200D009709F44FCF1E
:103A4000A701B501800F911F0E94292A0E0D1F1D8D
:103A50000115124031F58E819F8180960E94DD0C08
:103A600081111FC03CCF83A194A1A5A1B6A1841749
:103A70009507A607B70741F410A28FEF9FEFDC016F
:103A800083A394A3A5A3B6A3EE81FF8195018081B2
:103A900091810E94B70B882309F421CFE12C82E0A9
:103AA000F82E88899989AA89BB898E0D9F1DA11D31
:103AB000B11D888B998BAA8BBB8BAE0CBF1CCE180B
:103AC000DF0828CF888D998DAA8DBB8D801791072F
:103AD000A207B30738F4088F198F2A8F3B8F8A818A
:103AE00080688A838A8183FD02C0C40106C0CE013A
:103AF0000E940D1C8111F9CFF2CEDF91CF911F9161
:103B00000F91FF90EF90DF90CF90BF90AF909F907C
:103B10008F907F906F905F904F903F902F9008957F
:103B2000CF93DF93EC010E940D1C1882DF91CF919F
:103B30000895CF92DF92EF92FF920F931F93CF934E
:103B4000DF93CDB7DEB7E3970FB6F894DEBF0FBEB5
:103B5000CDBF7C018B015BAB4AABD22E19821A829E
:103B6000FC018081882311F080E059C0FB01808135
:103B70008077D1F3EAA9FBA980818F32D9F4EAA931
:103B8000FBA980818F3221F43196FBABEAABF7CFF2
:103B9000F80166817781811104C0C7010E944A1A29
:103BA0003EC0CE0101960E944A1A8823E9F28E0196
:103BB0000F5F1F4F80E2C82EAE014E5C5F4FBE010B
:103BC0006F5D7F4F8AA99BA90E945912882361F2D9
:103BD000EAA9FBA980818823D1F021E0AE014F5DE5
:103BE0005F4FB801C7010E94CE0F882309F4BCCFF4
:103BF000F701DE0111968C2D01900D928A95E1F767
:103C0000C7010E94901D8E010F5F1F4FD5CF2D2D34
:103C1000AE014F5D5F4FB801C7010E94CE0FE39622
:103C20000FB6F894DEBF0FBECDBFDF91CF911F91CD
:103C30000F91FF90EF90DF90CF9008958F929F9219
:103C4000AF92BF92EF92FF920F931F93CF93DF93A8
:103C5000EC01888185FF02C010E068C088899989DD
:103C6000AA89BB8981159E4FAF41B105A8F7CE0146
:103C70000E941A21182F882379F3EE81FF814C8549
:103C80005D856E857F854250510961097109048007
:103C900004C0440F551F661F771F0A94D2F780880F
:103CA0009188A288B388840E951EA61EB71E25E0B3
:103CB000B501A401CF0180960E94200D7C01892BC3
:103CC00059F280E092E0F7019C01119221503040BE
:103CD000E1F701E0EE81FF819281091780F49701FD
:103CE000B501A401400F511D611D711D808191819D
:103CF0000E94B70B882309F4AFCF0F5FEBCF492F9A
:103D000050E060E070E089E0440F551F661F771FA8
:103D10008A95D1F788899989AA89BB89480F591F43
:103D20006A1F7B1F488B598B6A8B7B8B812FDF919E
:103D3000CF911F910F91FF90EF90BF90AF909F9008
:103D40008F900895AF92BF92CF92DF92EF92FF9241
:103D50000F931F93CF93DF93CDB7DEB7A0970FB626
:103D6000F894DEBF0FBECDBF8C01DB019C91907734
:103D700009F4A6C07B0123ECC8010E94CE0F882362
:103D800009F49EC081E0F801828380E1D82ED082C0
:103D9000C8010E941E1E882309F492C0F801848580
:103DA0009585A685B785848F958FA68FB78FC80117
:103DB0000E94B702C8010E940D1C882309F480C02C
:103DC00061E0C8010E94ED1B009709F479C0DC0195
:103DD0001B96DC9220E2FC01DE01119601900D920F
:103DE0002A95E1F7FC01A488B588C28CD38C8EE2B9
:103DF0008983FE013296CE010C9620E22193E817CA
:103E0000F907E1F7D8011696ED91FC9117975C96AA
:103E10004D915D916D917C915F974250510961097F
:103E20007109048004C0440F551F661F771F0A9450
:103E3000D2F780899189A289B389480F591F6A1FD7
:103E40007B1F21E0CF0180960E94200D0097C1F1D9
:103E5000BE8AAD8ADC8ECB8E20E2FE013196DC017B
:103E600001900D922A95E1F72EE22A83F701448D05
:103E7000558D668D778D7E8B6D8B5C8F4B8F20E2A1
:103E8000FE013196DC01909601900D922A95E1F7A2
:103E9000D80116968D919C9117978096A0960FB693
:103EA000F894DEBF0FBECDBFDF91CF911F910F9170
:103EB000FF90EF90DF90CF90BF90AF900C94DD0C0F
:103EC00080E0A0960FB6F894DEBF0FBECDBFDF91A5
:103ED000CF911F910F91FF90EF90DF90CF90BF9007
:103EE000AF90089585ED8093BC008091BC0084FD67
:103EF000FCCF1092FD02089540912506262F30E058
:103F0000240F311D21323105DCF42091FD022430D3
:103F1000C9F4FC0180E090E0861758F43091250642
:103F20002191DC01AB5FB94FA30FB11D2C9301961A
:103F3000F3CF80912506680F6093250680E00895F1
:103F400081E0089582E00895E091C101F091C201FD
:103F5000309729F01092FF021092FE020994089502
:103F6000CF93DF93AC01E091BF01F091C001309796
:103F7000F1F090910103809100039817C0F090E058
:103F8000292F30E02617370754F4D901AB51BA4F27
:103F9000EA01C20FD31F88818C939F5FF1CF1092EB
:103FA000010360930003CB01DF91CF910994DF916E
:103FB000CF9108950895E091010380910003E817DF
:103FC00030F4F0E0EB51FA4F808190E008958FEFEC
:103FD0009FEF08959091010380910003981750F48A
:103FE000E92FF0E0EB51FA4F208130E09F5F909392
:103FF000010302C02FEF3FEFC90108958091000334
:1040000090E020910103821B91090895CF93DF93E3
:1040100000D0CDB7DEB7CB01642F49835A830E940D
:104020007C1F4981842F5A81952F0F900F90DF912B
:10403000CF910895CF93DF931F92CDB7DEB76983F9
:1040400061E0CE0101960E947C1F81E090E00F901C
:10405000DF91CF91089520911C0330911D03809131
:104060001E0390911F032817390769F080911E03E2
:1040700090911F03E0911A03F0911B03E80FF91FC1
:10408000808190E008958FEF9FEF089580911E0347
:1040900090911F0320911C0330911D0328173907AD
:1040A000D1F09C012F5F3F4F40911A0350911B03A9
:1040B000FA01E80FF91F80814091200350912103FC
:1040C0002417350710F020E030E030931F032093D1
:1040D0001E0390E008958FEF9FEF08952FB7F89497
:1040E00080911C0390911D0340911E0350911F036A
:1040F000841B950B2FBF97FF06C0209120033091A2
:104100002103820F931F089520911403309115030A
:10411000809116039091170328173907A9F708957E
:104120002091140330911503C901019640911203A7
:1041300050911303FA01E20FF31F608320911803DB
:10414000309119038217930710F080E090E02091DE
:104150001603309117038217930711F390931503F9
:10416000809314038091C10080628093C10081E03C
:1041700090E00895AF92BF92CF92DF92EF92FF92BC
:104180000F931F93CF93DF937B015A018A0101158F
:10419000110509F443C0F8942091160330911703D8
:1041A0007894C0901403D0901503C216D30628F457
:1041B000E9012197CC19DD0909C0C0911803D091FC
:1041C0001903CC19DD09232B09F421970C171D07BE
:1041D00008F4E8018091120390911303AE01B70136
:1041E0008C0D9D1D0E94292A9E012C0D3D1D809144
:1041F0001803909119032817390710F0281B390B61
:1042000030931503209314038091C1008062809342
:10421000C1000C1B1D0BEC0EFD1EB9CFC501DF91BB
:10422000CF911F910F91FF90EF90DF90CF90BF90B3
:10423000AF9008953F924F925F926F927F928F92CC
:104240009F92AF92BF92CF92DF92EF92FF920F9325
:104250001F93CF93DF93CDB7DEB728970FB6F894AF
:10426000DEBF0FBECDBF4C01DC0112968C911297C0
:10427000806812968C9312971C964D905D906D906D
:104280007C901F971696AD90BC90179741145104DF
:104290006104710461F4D50118968D919D910D9082
:1042A000BC91A02D8D839E83AF83B88704C04D82BF
:1042B0005E826F827886CD80DE80EF80F884BFEFEB
:1042C000CB1ADB0AEB0AFB0AF501808D918DA28DDA
:1042D000B38D8C159D05AE05BF0528F482E0C82E70
:1042E000D12CE12CF12C9E012F5F3F4FB701A6018D
:1042F000C5010E94D20D87FD20C0882341F089812D
:104300009A81AB81BC81892B8A2B8B2B51F08D81BB
:104310009E81AF81B885C816D906EA06FB0679F6F4
:104320000CC00FEF1FEF2FEF3FE0B701A601C50153
:104330000E94600D382E811102C0312C1BC0411427
:1043400051046104710451F097018601B301A20187
:10435000C5010E94600D811108C0EFCFD5011896EC
:10436000CD92DD92ED92FC921B97F401C486D58626
:10437000E686F786832D28960FB6F894DEBF0FBE2B
:10438000CDBFDF91CF911F910F91FF90EF90DF9004
:10439000CF90BF90AF909F908F907F906F905F90E5
:1043A0004F903F9008951F920F920FB60F921124D5
:1043B0002F933F934F935F936F937F938F939F932D
:1043C000AF93BF93EF93FF938091B900887F8036BE
:1043D00009F49CC068F5883209F45BC090F4803120
:1043E00009F454C038F4882309F4F6C0883009F47D
:1043F0004DC0F6C0883109F44CC0803209F45DC06C
:10440000EFC0803409F468C048F4803309F455C023
:10441000883309F0E5C080934806D8C0803509F498
:104420004FC0883509F45DC0883409F0D9C0D6C0C2
:10443000883909F4C7C0A8F4883709F467C038F48C
:10444000883609F463C0803709F460C0C9C0883871
:1044500009F4B8C0803909F45FC0803809F0C0C0E1
:104460005BC0803B09F486C038F4803A09F466C02A
:10447000883A09F47FC0B4C0803C09F4A7C0883CE6
:1044800009F4A4C0883B09F48AC0AAC080916B06D5
:1044900010C090916A0680916906981770F5E091B6
:1044A0006A0681E08E0F80936A06F0E0E75BF94FC1
:1044B00080818093BB0085EC86C0809348068EC0C7
:1044C000E0916A0681E08E0F80936A068091BB00BE
:1044D000F0E0E75BF94F808390916A06809169066E
:1044E0006EC0E0916A0681E08E0F80936A0680912B
:1044F000BB00F0E0E75BF94F80838091FC02811103
:104500006DC081E08093FB0284EA61C083E0809308
:10451000FD0210924706CFCF80914706803208F007
:1045200051C0E091470681E08E0F8093470680914D
:10453000BB00F0E0E95DF94F8083BDCF85EC80934F
:10454000BC001092FD0280914706803230F4E09169
:104550004706F0E0E95DF94F10826091470670E090
:10456000E0910203F091030387E296E0099510922F
:10457000470636C084E08093FD0210922606109212
:104580002506E0910403F091050309958091250625
:10459000811105C081E08093250610920506E09107
:1045A000260681E08E0F80932606F0E0EB5FF94F40
:1045B00080818093BB0090912606809125069817F4
:1045C00008F479CF85E88093BC000AC085EC80931D
:1045D000BC001092FD0204C0109248060E94721F97
:1045E000FF91EF91BF91AF919F918F917F916F91CB
:1045F0005F914F913F912F910F900FBE0F901F90A1
:10460000189584E392E00E9415150E9465160C949B
:104610007C290C947429CF93DF93EC0180912603BD
:10462000882321F086E293E00E94901D46E4BE01BB
:1046300086E293E00E94BC02C82F8823A1F08091FB
:104640003E0390913F03A0914003B0914103892B19
:104650008A2B8B2B41F486E293E00E94B70286E21C
:1046600093E00E940D1C8C2FDF91CF910895CF9382
:10467000DF93CDB7DEB7C357D1090FB6F894DEBFCD
:104680000FBECDBF789484B5826084BD84B581604F
:1046900084BD85B5826085BD85B5816085BD80910D
:1046A0006E00816080936E00109281008091810085
:1046B000826080938100809181008160809381007D
:1046C000809180008160809380008091B10084603F
:1046D0008093B1008091B00081608093B0008091A0
:1046E0007A00846080937A0080917A00826080935F
:1046F0007A0080917A00816080937A0080917A00BC
:10470000806880937A001092C10061E085E00E9489
:10471000390A62E083E00E94390A83B7817F83BF50
:1047200083B7816083BF80917A008F7780937A000E
:1047300080E880BF8FE380937E0083E080937F00DA
:10474000809164008860809364008091640080643C
:10475000809364008091640081608093640082E0B3
:1047600090E00E9409238093C5018091C5018630A5
:1047700040F01092C5016091C50182E090E00E9476
:10478000072385E090E00E9409238093C401809173
:10479000C401882309F46CC28091C4018F3F09F4DD
:1047A00067C286E090E00E9409238093C301809154
:1047B000C3018F3F49F483E08093C3016091C3013B
:1047C00086E090E00E9407238DE090E00E9409239C
:1047D00080930001809100018F3F49F48AE2809329
:1047E0000001609100018DE090E00E94072381E3C9
:1047F00094E09093C0018093BF018CEE91E0909380
:10480000C2018093C1010E94A0021092C10086E003
:104810008093C20082E08093C0001092C5008FECAC
:104820008093C40088E98093C10082EE91E00E94E9
:10483000151580E591E00E94E51781110BC080916C
:10484000C6018E7F8093C6018FE991E00E94151505
:104850000E9401230E94BA17882389F38091C60120
:1048600081608093C6010E94241681110BC0809143
:10487000C6018E7F8093C6018091C6018F7E809392
:10488000C60115C08091C60180618093C60180EE8B
:1048900091E00E94151519A61AA618A61FA284E277
:1048A00091E09EA38DA30E94241681110AC08FE976
:1048B00091E00E94151589E891E00E9415150E946B
:1048C00065166AEC71E0CE018E599F4F0E94BA26A0
:1048D00041E0BE016E597F4FCE0189960E94BC0215
:1048E000811107C0CE0189960E94901D0E946B0322
:1048F000FEC07E0129E4E20EF11C00E05701BE017A
:104900006F5F7F4FCE0189960E943615019711F493
:10491000898102C08FEF9FEF87FD08C08A3031F098
:10492000F70181937F010F5F0D3049F7CE01899622
:104930000E94901D612C90E033E0932E4AE1842E7A
:1049400010E05AE2C52ED12CE12CF12C901768F022
:104950008091000190E0A0E0B0E0C816D906EA0618
:10496000FB0609F05BC080E061C0FE01E459FF4F27
:10497000302F391B80E0782E790ED501A70DB11D9F
:104980002C912C3239F0831729F0863019F02193BD
:104990008F5FF1CFECE6F0E0EC0FFD1FE80FF11DAB
:1049A0001082CE0184599F4F0E949326611017C038
:1049B000CE0184599F4F0E9479026B017C01DC017A
:1049C000CB010897A109B10980379105A105B1056F
:1049D00008F12AE2C22ED12CE12CF12C1BC0F1E00F
:1049E0006F1205C018169CF09AE1892E13C022E0C0
:1049F000621205C08F3F69F483E0982E0BC093E0EC
:104A00006912A6CF11E0813029F010E003C0882E92
:104A100001C0982E639491E0970D98CF6C2D8DE096
:104A200090E00E940723C092000181E09091C501AF
:104A3000191749F01093C5016091C50182E090E01B
:104A40000E94072381E09091C401891649F0809269
:104A5000C4016091C40185E090E00E94072381E0D9
:104A60009091C301991649F09092C3016091C301DE
:104A700086E090E00E94072301C081110E946B0331
:104A80008091C501811103C00E94C50229C0809197
:104A9000C501813039F51D821E821C821B8284E291
:104AA00091E09A8389836DEB71E0CE018A5A9F4F22
:104AB0000E94BA2642E4BE016A5A7F4FCE01059693
:104AC0000E94BC02811105C086EA91E00E94151582
:104AD00009C0CE0105960E94901DCE018A5A9F4FB3
:104AE0000E940B238091C60188608093C6010E94BA
:104AF000A00289ED91E00E9415150E94F114892B06
:104B000031F44AE069E270E080E090E006C0609134
:104B1000000170E080E090E04AE00E94771787EDA6
:104B200091E00E94151585ED91E00E94151561E058
:104B300085E00E94090A89E591E00E942E16809185
:104B4000C60182608093C6018091C6018460809313
:104B5000C60100E010E08091D8028823B1F06DE436
:104B600071E086E995E00E94E60E6091D80270E05F
:104B700080E090E04AE00E9477176AE471E086E9FD
:104B800095E00E94E60E1092D8020E94AF0AC090F3
:104B9000CA02D090CB02E090CC02F090CD02DC01B2
:104BA000CB018C199D09AE09BF09853F9140A10534
:104BB000B10508F44EC0F894809126038823C9F00B
:104BC0008091C8029091C9021816190694F4409178
:104BD000C8025091C90268EC71E082E293E00E9441
:104BE00079011092C9021092C80286E293E00E94F5
:104BF0000D1C7894809164008062809364008091A1
:104C0000640084608093640080916400826080937B
:104C1000640083B7816083BF889583B78E7F83BF2D
:104C2000809164008B7F80936400809164008F7D0D
:104C300080936400809164008D7F809364000E9463
:104C4000AF0A6093CA027093CB028093CC02909318
:104C5000CD028091C701882321F00E946B0310923E
:104C6000C7010115110509F476CF0E94000073CF2A
:104C70008AE18093C4016091C40185E090E00E94C4
:104C800007238FCDE6E0F3E01382128288EE93E0F3
:104C9000A0E0B0E084839583A683B78326E031E06B
:104CA00031832083E6E9F5E01382128284839583C1
:104CB000A683B78380E391E091838083EAE1F3E008
:104CC00082EA95E09183808381E290E097838683F6
:104CD0001582148213821282E2E1F3E023EC35E0C4
:104CE00031832083978386831582148213821282F4
:104CF00010924B0310926D0510926E0584E680931E
:104D00008D051092920580E580939305109294058D
:104D1000E2E2F3E0148215821382128284E291E0CF
:104D2000918380830895FC0188279927E894219135
:104D30002032E9F3293010F02E30C8F32B3241F045
:104D40002D3239F4689404C00E94CB26820F911D45
:104D5000219120532A30C0F31EF4909581959F4FE6
:104D60000895FB01DC018D91059080190110D9F3A4
:104D7000990B0895FB01DC0105900D920020E1F7ED
:104D80000895DC016C9161566A3108F0605E6F5BDA
:104D90006D93C1F708957AE0979F902D879F802D9E
:104DA000910D11240895AEE0B0E0E9EDF6E20C9427
:104DB00098290D891E898EE08C831A8309838FEFD1
:104DC0009FE79E838D83AE01475E5F4F6F89788D2D
:104DD000CE0101960E94F6262F813885F801E20F58
:104DE000F31F10822E96E4E00C94B429ACE0B0E0FE
:104DF000ECEFF6E20C948A297C016B018A01FC013C
:104E000017821682838181FFBDC1CE0101964C01BC
:104E1000F7019381F60193FD859193FF81916F01D5
:104E2000882309F4ABC1853239F493FD859193FF52
:104E300081916F01853229F4B70190E00E94DE284C
:104E4000E7CF512C312C20E02032A0F48B3269F0D6
:104E500030F4803259F0833269F420612CC08D32F5
:104E600039F0803339F4216026C02260246023C0E9
:104E7000286021C027FD27C030ED380F3A3078F484
:104E800026FF06C0FAE05F9E300D1124532E13C09A
:104E90008AE0389E300D1124332E20620CC08E32F1
:104EA00021F426FD6BC1206406C08C3611F4206805
:104EB00002C0883641F4F60193FD859193FF8191FC
:104EC0006F018111C1CF982F9F7D9554933028F4A5
:104ED0000C5F1F4FFFE3F9830DC0833631F083373A
:104EE00071F0833509F05BC022C0F80180818983AD
:104EF0000E5F1F4F44244394512C540115C03801B8
:104F0000F2E06F0E711CF801A080B18026FF03C093
:104F1000652D70E002C06FEF7FEFC5012C870E9406
:104F2000D3282C0183012C852F77222E17C038011E
:104F3000F2E06F0E711CF801A080B18026FF03C063
:104F4000652D70E002C06FEF7FEFC5012C870E94D6
:104F5000C8282C012C852068222E830123FC1BC02D
:104F6000832D90E048165906B0F4B70180E290E036
:104F70000E94DE283A94F4CFF50127FC859127FEA4
:104F800081915F01B70190E00E94DE2831103A94D0
:104F9000F1E04F1A51084114510471F7E5C084360D
:104FA00011F0893639F5F80127FF07C0608171815A
:104FB000828193810C5F1F4F08C060817181072E31
:104FC000000C880B990B0E5F1F4F2F76722E97FFE8
:104FD00009C090958095709561957F4F8F4F9F4F39
:104FE0002068722E2AE030E0A4010E941629A82E23
:104FF000A81844C0853729F42F7EB22E2AE030E06D
:1050000025C0F22FF97FBF2E8F36C1F018F48835F6
:1050100079F0B4C0803719F0883721F0AFC02F2F56
:105020002061B22EB4FE0DC08B2D8460B82E09C055
:1050300024FF0AC09F2F9660B92E06C028E030E0FA
:1050400005C020E130E002C020E132E0F801B7FE07
:1050500007C060817181828193810C5F1F4F06C000
:105060006081718180E090E00E5F1F4FA4010E947B
:105070001629A82EA818FB2DFF777F2E76FE0BC0D1
:10508000372D3E7FA51450F474FE0AC072FC08C090
:10509000372D3E7E05C0BA2C372D03C0BA2C01C077
:1050A000B52C34FF0DC0FE01EA0DF11D8081803367
:1050B00011F4397E09C032FF06C0B394B39404C022
:1050C000832F867809F0B39433FD13C030FF06C0F8
:1050D0005A2CB31418F4530C5B18B32CB31468F4A3
:1050E000B70180E290E03C870E94DE28B3943C85C3
:1050F000F5CFB31410F43B1801C0312C34FF12C0AB
:10510000B70180E390E03C870E94DE283C8532FFB7
:1051100017C031FD03C088E790E002C088E590E049
:10512000B7010CC0832F867859F031FF02C08BE2A3
:1051300001C080E237FD8DE2B70190E00E94DE28D9
:10514000A51438F4B70180E390E00E94DE285A9459
:10515000F7CFAA94F401EA0DF11D8081B70190E028
:105160000E94DE28A110F5CF332009F451CEB701FB
:1051700080E290E00E94DE283A94F6CFF701868123
:10518000978102C08FEF9FEF2C96E2E10C94A62945
:10519000FC010590615070400110D8F78095909502
:1051A0008E0F9F1F0895FC01615070400190011007
:1051B000D8F7809590958E0F9F1F08950F931F939A
:1051C000CF93DF93FB01238121FD03C08FEF9FEF7E
:1051D00028C022FF16C0468157812481358142179D
:1051E000530744F4A081B1819D012F5F3F4F31836C
:1051F00020838C93268137812F5F3F4F378326830F
:1052000010C0EB01092F182F0084F185E02D0995BE
:10521000892BE1F68E819F8101969F838E83812F5A
:10522000902FDF91CF911F910F910895FA01AA2736
:10523000283051F1203181F1E8946F936E7F6E5FD9
:105240007F4F8F4F9F4FAF4FB1E03ED0B4E03CD087
:10525000670F781F891F9A1FA11D680F791F8A1F6A
:10526000911DA11D6A0F711D811D911DA11D20D0D1
:1052700009F468943F912AE0269F11243019305D8B
:105280003193DEF6CF010895462F4770405D41937C
:10529000B3E00FD0C9F7F6CF462F4F70405D4A33C9
:1052A00018F0495D31FD4052419302D0A9F7EACF91
:1052B000B4E0A6959795879577956795BA95C9F7C0
:1052C00000976105710508959B01AC010A2E0694B3
:1052D0005795479537952795BA95C9F7620F731F6C
:1052E000841F951FA01D0895F999FECF92BD81BD21
:1052F000F89A992780B50895262FF999FECF1FBAFD
:1053000092BD81BD20BD0FB6F894FA9AF99A0FBEEE
:10531000019608952F923F924F925F926F927F92E3
:105320008F929F92AF92BF92CF92DF92EF92FF92B5
:105330000F931F93CF93DF93CDB7DEB7CA1BDB0B61
:105340000FB6F894DEBF0FBECDBF09942A88398806
:1053500048885F846E847D848C849B84AA84B9840D
:10536000C884DF80EE80FD800C811B81AA81B98119
:10537000CE0FD11D0FB6F894DEBF0FBECDBFED012D
:105380000895AA1BBB1B51E107C0AA1FBB1FA6178C
:10539000B70710F0A61BB70B881F991F5A95A9F7DE
:1053A00080959095BC01CD010895A1E21A2EAA1B0B
:1053B000BB1BFD010DC0AA1FBB1FEE1FFF1FA217C5
:1053C000B307E407F50720F0A21BB30BE40BF50BC2
:1053D000661F771F881F991F1A9469F7609570954B
:1053E000809590959B01AC01BD01CF0108950E946D
:1053F000082AA59F900DB49F900DA49F800D911D2C
:1054000011240895EE0FFF1F0590F491E02D0994EB
:10541000A29FB001B39FC001A39F700D811D1124F5
:10542000911DB29F700D811D1124911D089581E081
:1054300090E0F8940C94642AFB01DC0104C08D9187
:105440000190801921F441505040C8F7881B990BF6
:105450000895FB01DC0102C001900D9241505040C3
:10546000D8F70895FB01DC014150504048F001900D
:105470000D920020C9F701C01D9241505040E0F745
:105480000895AEE0B0E0E7E4FAE20C9498290D89C3
:105490001E8986E08C831A8309838FEF9FE79E83A2
:1054A0008D83AE01475E5F4F6F89788DCE01019687
:1054B0000E94F6262F813885F801E20FF31F108233
:0C54C0002E96E4E00C94B429F894FFCF81
:1054CC002A01000000001A2006207601DA1FFE1FB8
:1054DC00EA1FDB1F000000007C0179017601340219
:1054EC00000000007C01790176013402000000000C
:1054FC009020BA20760184206E2046202B200000BC
:10550C000000DE098E09760175010D0A00746F50DA
:0E551C0072696E743A200025732F002573000B
:107E0000112484B714BE81FFF0D085E080938100F7
:107E100082E08093C00088E18093C10086E0809377
:107E2000C20080E18093C4008EE0C9D0259A86E02C
:107E300020E33CEF91E0309385002093840096BBD3
:107E4000B09BFECF1D9AA8958150A9F7CC24DD24C4
:107E500088248394B5E0AB2EA1E19A2EF3E0BF2EE7
:107E6000A2D0813461F49FD0082FAFD0023811F036
:107E7000013811F484E001C083E08DD089C08234E0
:107E800011F484E103C0853419F485E0A6D080C0E4
:107E9000853579F488D0E82EFF2485D0082F10E0AE
:107EA000102F00270E291F29000F111F8ED06801E7
:107EB0006FC0863521F484E090D080E0DECF843638
:107EC00009F040C070D06FD0082F6DD080E0C81688
:107ED00080E7D80618F4F601B7BEE895C0E0D1E017
:107EE00062D089930C17E1F7F0E0CF16F0E7DF06D8
:107EF00018F0F601B7BEE89568D007B600FCFDCFD4
:107F0000A601A0E0B1E02C9130E011968C91119780
:107F100090E0982F8827822B932B1296FA010C0160
:107F200087BEE89511244E5F5F4FF1E0A038BF0790
:107F300051F7F601A7BEE89507B600FCFDCF97BE46
:107F4000E89526C08437B1F42ED02DD0F82E2BD052
:107F50003CD0F601EF2C8F010F5F1F4F84911BD097
:107F6000EA94F801C1F70894C11CD11CFA94CF0C13
:107F7000D11C0EC0853739F428D08EE10CD085E9AC
:107F80000AD08FE07ACF813511F488E018D01DD067
:107F900080E101D065CF982F8091C00085FFFCCF94
:107FA0009093C60008958091C00087FFFCCF809118
:107FB000C00084FD01C0A8958091C6000895E0E648
:107FC000F0E098E1908380830895EDDF803219F02E
:107FD00088E0F5DFFFCF84E1DECF1F93182FE3DFCA
:107FE0001150E9F7F2DF1F91089580E0E8DFEE27F6
:047FF000FF270994CA
:027FFE00040479
:0400000300007E007B
:00000001FF
