:100000000C9423010C944B010C944B010C944B0168
:100010000C944B010C944B010C944B010C944B0130
:100020000C944B010C944B010C944B010C944B0120
:100030000C944B010C944B010C944B010C944B0110
:100040000C948E100C944B010C941C110C94D81031
:100050000C944B010C944B010C944B010C944B01F0
:100060000C94E8140C944B01756E6B6E6F776E20D8
:10007000636F6D6D616E643A2000617070656E64CF
:10008000006E657700726573657400766572007343
:10009000697A650072656164002E2E006364002D2C
:1000A000726600726D006D64006C73006465666159
:1000B000756C74006C6F67006E756D00657363001E
:1000C0006164720073657400676574006C6F67002B
:1000D000616472006E756D00657363007365740012
:1000E0007374617400696E6974000000000025007B
:1000F00028002B0066696C652E6F70656E00726F4C
:100100006F742E696E697400766F6C756D652E69FB
:100110006E6974004572726F7220004572726F7260
:10012000206372656174696E67205345514C4F4777
:100130000A005345514C4F4730302E5458540063F9
:100140006F6E6669672E747874003C002900284140
:1001500064723A2000320031006932635F61646486
:10016000726573732C6573636170652C65736323AB
:100170002C6D6F64650A004572726F722077726928
:1001800074696E6720746F2066696C650025642C45
:1001900025642C25642C25640052656D6F766520DE
:1001A000636F6E666967206661696C656400636F82
:1001B0006E6669672E7478740021546F6F206D61CC
:1001C0006E79206C6F67733A3221004C4F472530AF
:1001D00035642E5458540021546F6F206D616E7930
:1001E000206C6F67733A312100636172642E696E0F
:1001F00069740000000000240027002A00000000AD
:10020000002300260029000404040404040404025A
:1002100002020202020303030303030102040810A3
:100220002040800102040810200102040810200070
:1002300000000800020100000304070000000000A5
:1002400000000000432611241FBECFEFD8E0DEBF20
:10025000CDBF11E0A0E0B1E0EEECF4E502C0059006
:100260000D92A435B107D9F726E0A4E5B1E001C0AD
:100270001D92A036B207E1F711E0C3E2D1E004C05D
:100280002197FE010E94032AC232D107C9F70E94BA
:1002900052230C94652A0C94000020E030E080E0AA
:1002A000F901E658FE4F40815181452B19F09281AA
:1002B00091118F5F2D5F3F4F2F30310589F70895E2
:1002C0008093560381E0809301010895E6E5F3E011
:1002D0009083818382E0809301010895089580E0F6
:1002E00090E008959EE1E9E8F1E0DF011D929A9522
:1002F000E9F78530D8F490E0FC01EE0FFF1F8E0F78
:100300009F1FFC01E658FE4F6081718161157105E8
:1003100069F04281442351F04F3110F450E002C0A3
:100320004EE150E089E891E00C94332A80E090E0BF
:100330000895CF93DF931F92CDB7DEB78091A103CD
:10034000882321F11092010180910101803220F572
:10035000BE016F5F7F4F81EA93E00E94B919019758
:1003600019F4898190E002C08FEF9FEF8F3F2FEF4C
:10037000920791F0E0910101F0E0EA5AFC4F80838E
:10038000809101018F5F80930101DECF81E0809336
:1003900001018FEF809356030F90DF91CF91089565
:1003A00080917801909179018130910541F19CF41F
:1003B000892BF1F56091AE0181E893E00E948212F1
:1003C0008091AE018D7F8093AE018091AE018B7FD5
:1003D0008093AE01089582309105F9F0039741F5BD
:1003E0004091010150E066E573E081E893E00E94EE
:1003F0006E1280917601909177010C94821B40914E
:10040000010150E066E573E081E893E00E946E121E
:10041000109279011092780108954091010150E005
:1004200066E573E081E893E00E946E120C949901F6
:1004300060E881E893E00C94821204960C94931D7A
:1004400004960C94931ECF93DF931F92CDB7DEB723
:10045000698341E050E0BE016F5F7F4F04960E94C8
:10046000931E0F90DF91CF9108950F931F93CF9319
:10047000DF93EC0160E070E0CB01E99120ED2E0FFD
:100480002A30A8F4AAE0B0E09B01AC010E94F82950
:100490000E2E000CFF0BAF01405351098A01550F7E
:1004A000220B330B600F711F821F931FE6CFDF916A
:1004B000CF911F910F9108958091BC008A7B80930A
:1004C000BC0060E082E10E94DC0F60E083E10E94FA
:1004D000DC0F0E947419892B11F489E202C080910B
:1004E00000010C943F1940E050E0BA010C94CF1D7C
:1004F000FB01242F6091540370915503AF010C94BC
:10050000F3214F925F926F927F929F92AF92BF9230
:10051000CF92DF92EF92FF920F931F93CF93DF93CF
:10052000CDB7DEB7C757D1090FB6F894DEBF0FBEFF
:10053000CDBFEE24EA94FE2C94E2C92E91E0D92E90
:100540002AE7A22E21E0B22E90917B0380917C03BA
:10055000981709F42FC50091B0021091B10281E8FB
:1005600093E00E945212F801E055FE4F8083E09123
:10057000B002F091B1028091AC01E055FE4F908144
:100580009813CBC3809175018F5F80937501909113
:1005900075018091AB019813C0C3109274019091C2
:1005A0007B0380917C03981781F01091740181E0A6
:1005B000810F8093740181E893E00E945212E12F31
:1005C000F0E0EC5AFE4F8083EACF2091AB0180919E
:1005D000B0029091B102821B91099093B102809375
:1005E000B0028091B0029091B1021816190674F40D
:1005F0004091B0025091B10260EB71E08DE993E05F
:100600000E94200281EA93E00E94931DF092B102C1
:10061000E092B002109275010E9482106093B202C3
:100620007093B3028093B4029093B5028091AE01AF
:100630008D7F8093AE018091AE0184608093AE0186
:100640001D821E821C821B82DA82C9827090740114
:100650008FE0F50111928A95E9F799249394612C22
:10066000072D10E0971468F5892D90E0FC01EC5AF5
:10067000FE4F2081203231F09C012F5F3F4F201729
:100680003107E9F401968017910709F4972C0E942D
:100690004D01853090F490E0FC01EE0FFF1F8E0FAE
:1006A0009F1FFC01E658FE4F862D90E08C5A9E4F0E
:1006B00091838083892D861982839394692C9394E6
:1006C000D1CF80E00E9472018C0165EE70E00E9443
:1006D000B226892BF1F480E591E00E94251C81115E
:1006E00006C084E191E00E9498190E9416160E94AB
:1006F000FA1B8823B1F30E94A71A811143C384E136
:1007000091E00E9498198EEF90E00E9498190E9443
:10071000E81A60EE70E0C8010E94B226892B59F4F5
:1007200081E0809301018FEF80935603109279014D
:100730001092780127C36CED70E0C8010E94B226C8
:10074000892BE1F481E00E947201009709F4E5C26F
:1007500010927901109278010E9435026130710582
:100760008105910511F461E001C060E082E090E054
:100770000E941C1681E08093AF0104C368ED70E015
:10078000C8010E94B226892B99F481E00E9472016F
:10079000009709F4C2C210927901109278010E9468
:1007A00035026093AC016091AC0185E090E0E0CF50
:1007B00064ED70E0C8010E94B226892B99F481E0B3
:1007C0000E947201009709F4A8C210927901109258
:1007D00078010E9435026093AB016091AB0186E025
:1007E00090E0C6CF60ED70E0C8010E94B226892B70
:1007F000C9F481E00E947201009709F48EC2109240
:100800007901109278010E94350260930001809175
:100810000001883008F481C280910001883708F017
:100820007CC2A5C26CEC70E0C8010E94B226892B84
:1008300009F5109279011092780181E00E9472010D
:10084000009739F00E9435022B013C016624772481
:1008500003C0412C512C3201642D83E090E00E94B2
:100860001C169927872D762D652D84E090E00E9437
:100870001C1688C268EC70E0C8010E94B226892B61
:1008800009F052C081E00E9472018C01892B09F4A9
:1008900044C281E090E0909379018093780164EC08
:1008A00070E0C8010E94B226892B19F48091AD0135
:1008B00009C060EC70E0C8010E94B226892B29F4BF
:1008C000809100010E9460015DC26CEB70E0C80184
:1008D0000E94B226892B19F48091AC01F3CF68EB0A
:1008E00070E0C8010E94B226892B19F48091AB01F7
:1008F000E9CF64EB70E0C8010E94B226892B09F0B1
:1009000041C284E090E00E941E16182F83E090E020
:100910000E941E16212F30E0322F2227A901482BDA
:10092000CA010E9466012EC26CEA70E0C8010E94F2
:10093000B226892B09F03FC01092790110927801FC
:1009400060E082E090E00E941C166AE185E090E0A1
:100950000E941C1663E086E090E00E941C166AE28A
:100960008DE090E00E941C161092AD018AE1809308
:10097000AC0183E08093AB018AE28093000160E0E8
:1009800083E090E00E941C1660E084E090E00E940A
:100990001C160E945C0281E08093AF018091A1034C
:1009A000882321F081EA93E00E9482130E944C1672
:1009B0000E942016E7C169EA70E0C8010E94B226D1
:1009C000892B09F583E090E0909379018093780179
:1009D0000E944D01813029F48AE2F801808311825E
:1009E00006C081E00E9472018C010E94C226109311
:1009F00077010093760188EE95E00E947302C801AA
:100A00000E94821BBFC166EA70E0C8010E94B22644
:100A1000892BE1F481E00E947201009709F47DC105
:100A2000109279011092780126961FAE269727968C
:100A30001FAE2797E8969FAF8EAFE8971DA21EA224
:100A40002091E805207709F0A3C167C163EA70E04F
:100A5000C8010E94B226892BD9F481E00E9472015C
:100A60008C01892B09F459C181E090E090937901C0
:100A7000809378010E944D01833009F0FCC16FE939
:100A800070E0C8010E94B226892B09F418C2F3C194
:100A90006CE970E0C8010E94B226892B91F581E0D3
:100AA0000E9472018C01009709F437C110927901FC
:100AB0001092780169E970E00E94B226892B79F4DE
:100AC0008FE491E00E94B11A882391F08091AE01E9
:100AD00082608093AE018091AE01806156C1C801F1
:100AE0000E94B11A882321F08091AE01826003C078
:100AF0008091AE018D7F8093AE018091AE018F7E9B
:100B000044C164E970E0C8010E94B226892B09F053
:100B10005DC081E00E9472018C01892B09F4FDC047
:100B20008091A103882321F081EA93E00E9482133F
:100B300082E090E0909379018093780141E0B801E0
:100B400081EA93E00E947802882361F182E00E94AA
:100B500072010097C1F1FC0101900020E9F7319783
:100B6000E81BF90BDC01FF279D01281B390B2E1711
:100B70003F0754F42D91022E000C330B2053310902
:100B80002A30310588F31FC00E943502AB01BC0139
:100B900081EA93E00E94CF1D811115C081EA93E0A4
:100BA0000E9482138091AE018D7F8093AE0180916F
:100BB000AE01877F8093AE0181E0809301018FEFCA
:100BC00080935603AAC00E94990181C06FE870E02B
:100BD000C8010E94B226892B69F581E00E9472014A
:100BE000009709F49AC021E030E030937901209316
:100BF000780141E0BC01CE0105960E94780288236D
:100C000081F08D8D9E8D2F8D38A1309356032093CA
:100C10005703909358038093590384E08093010114
:100C20003DC06FEF7FEFCB010E9448238091AE0162
:100C30008D7FABC06BE870E0C8010E94B226892BA3
:100C400049F481E090E0909379018093780180E00D
:100C500091E067CE65E870E0C8010E94B226009777
:100C600019F4FC01099545C061E870E0C8010E94D3
:100C7000B226892BC1F481E00E947201009709F429
:100C80004CC0109279011092780142ECBC01CE0167
:100C900005960E947802882309F474C0CE01059657
:100CA0000E9482136FC06AE770E0C8010E94B226FA
:100CB000892BF9F481E00E947201009771F1109282
:100CC0007901109278010E942016882349F08091C2
:100CD000AE0182608093AE018091AE01886055C004
:100CE0008091AE018D7F8093AE018091AE01877FB0
:100CF0004CC08091AE018B7F8093AE0188E690E07E
:100D00000E949819B80181E196E00E94D00A6AE435
:100D100071E081E196E00E94D00A8091B00290914A
:100D2000B10201969093B1028093B0028091B0021B
:100D30009091B1028115914009F006CC40E051E05C
:100D400060EB71E08DE993E00E9420021092B10205
:100D50001092B002109275010E9482106093B2024C
:100D60007093B3028093B4029093B502E2CB60918A
:100D700000018DE090E00E941C1681E08093AF019D
:100D80000E945C028091AE0182608093AE01C5CF6B
:100D9000FC0180818F3209F06BC0E896EEADFFADAB
:100DA000E89780818F3231F43196E896FFAFEEAF4D
:100DB000E897F3CF6091EE057091EF05CE0185962F
:100DC0000E945020882309F4A8CF8E010B5D1F4F8D
:100DD00030E2932EAE014A585F4FBE016B597F4FF0
:100DE000E8968EAD9FADE8970E94430E882309F4E4
:100DF00094CFE896EEADFFADE8978081882359F156
:100E000021E0AE014B595F4FB801CE018B5B9F4F84
:100E10000E94B80B81110CC0AE014B595F4FB80155
:100E2000CE018B5B9F4F0E947822882309F475CFF7
:100E3000FE01EB5BFF4FDE019596892D01900D922F
:100E40008A95E1F7CE018B5B9F4F0E9482138E0142
:100E50000B5D1F4FBFCFAE014B595F4FB801CE01A5
:100E60008B5B9F4F0E947822882309F456CF8ACF4C
:100E700008EE15E0ADCF21E0A80168EE75E0CE01E7
:100E800005960E94F321882309F43DC08D81807767
:100E900009F47DC0CE0105960E942320182FCE01B3
:100EA00005960E9482138091AE01112319F1826090
:100EB0008093AE0161E070E080E090E021C082E0CC
:100EC0000E94720121E0AC0168EE75E0CE0105964A
:100ED0000E94F321882309F457C0CE0105960E9491
:100EE0000B21182FCE0105960E94821311114CC0C0
:100EF0008091AE018D7F8093AE016FEF7FEFCB01CC
:100F00000E9448230ACFC8010E94C226412C512CBE
:100F10003201CE0105960E94061B882381F18D8146
:100F200083FF28C0BE016B5D7F4FCE0105960E94F6
:100F3000880A8823F9F0BE016B5D7F4FC8010E94CB
:100F4000B8178823B9F0CE0105960E94821342E0BB
:100F5000BE016B5D7F4FCE0105960E947802CE01E7
:100F600005960E94E50A882329F0FFEF4F1A5F0AD1
:100F70006F0A7F0ACE0105960E948213CACFC30171
:100F8000B2010E944823FECE8091AE0190CFCE01E7
:100F900005960E94821342E0B801CE0105960E9498
:100FA0007802882329F0CE0105960E94E50A76CFC3
:100FB00011E075CFC958DF4F0FB6F894DEBF0FBEF2
:100FC000CDBFDF91CF911F910F91FF90EF90DF90F8
:100FD000CF90BF90AF909F907F906F905F904F9019
:100FE0000895CF93DF93FC012381222361F0EC016C
:100FF0000180F281E02D61E082810E94DC0F8FEFA1
:101000000E9469111B82DF91CF910895CF93DF93E6
:10101000FC012381211110C0EC010180F281E02D3F
:10102000908181819CBD8DBDE981FA8160E08281E2
:101030000E94DC0F81E08B83DF91CF910895EF92C6
:10104000FF921F93CF93DF9300D000D0CDB7DEB7D0
:101050007C01162F29833A834B835C83FC018381B7
:10106000811103C0C7010E9406080E942919812F1F
:1010700080640E9469118C810E9469118B810E9499
:1010800069118A810E94691189810E946911112365
:1010900011F087E801C085E90E9469111C3011F444
:1010A0000E946E1110E00E946E11F701848387FF89
:1010B00004C01F3F11F01F5FF6CF0F900F900F90ED
:1010C0000F90DF91CF911F91FF90EF900895EF92D5
:1010D000FF920F931F93CF93DF93EC0179018D81E2
:1010E000833039F089E0440F551F661F771F8A95BA
:1010F000D1F79A01AB0161E1CE010E941F0888235C
:1011000019F080E3888338C00E9482108B010E940E
:101110006E118C838F3F49F40E948210601B710B0B
:101120006D327140A0F385E503C08E3F31F080E55C
:101130008883CE010E94F1071FC08FEF8EBDF7019B
:10114000D701A150BE4F9FEF0DB407FEFDCF8EB566
:101150009EBD8193EA17FB07B9F70DB407FEFDCFDB
:101160008EB58C931C820E946E110E946E11CE016E
:101170000E94F10781E004C0CE010E94F10780E0E7
:10118000DF91CF911F910F91FF90EF900895EF9213
:10119000FF921F93CF93DF93FC01208120FF32C089
:1011A000EC017C01F7E0EF0EF11C4B815C816D815D
:1011B0007E81E981FA819701808191810E94751178
:1011C000182F811102C010E01EC0888181FD04C06B
:1011D00088818E7F888317C0E981FA81448555858F
:1011E000668577858B819C81AD81BE81480F591FB3
:1011F0006A1F7B1F9701808191810E947511811167
:10120000E7CFE1CF11E0812FDF91CF911F91FF90C8
:10121000EF900895CF92DF92EF92FF921F93CF93BA
:10122000DF93EC016A017B01122F8B819C81AD81E0
:10123000BE8184179507A607B707F1F0CE010E947B
:10124000C708811103C080E090E01CC012FF06C0F7
:101250001882CB82DC82ED82FE820EC0E981FA81A7
:101260009E01295F3F4FB701A601808191810E94B5
:1012700067088111EDCFE7CF13708881182B188391
:10128000CE010796DF91CF911F91FF90EF90DF90F5
:10129000CF9008958F929F92AF92BF92CF92DF929C
:1012A000EF92FF920F931F936A017B01480159014E
:1012B000423051056105710510F480E052C0FC0117
:1012C000408D518D628D738D4C155D056E057F05CA
:1012D000A0F32581203241F54489558966897789B3
:1012E00097018601E7E03695279517950795EA95CA
:1012F000D1F7400F511F621F731F23E080960E9499
:101300000A090097D1F2E894C7F8DD24EE24FF24FF
:10131000CC0CDD1CCC0CDD1CFC01EC0DFD1D808219
:101320009182A282B3821CC0203139F6FC0144892B
:101330005589668977894D0D511D611D711D23E009
:1013400080960E940A09009709F4B7CFDD24EE24A5
:10135000FF24CC0CDD1CFC01EC0DFD1D9182808274
:1013600081E01F910F91FF90EF90DF90CF90BF90A1
:10137000AF909F908F900895CF92DF92EF92FF925F
:101380000F931F93CF93DF93EC016A017B018901D7
:10139000423051056105710510F48FEF63C0888DEF
:1013A000998DAA8DBB8D84179507A607B707A8F35B
:1013B0008D81803241F58C899D89AE89BF89E7E0B6
:1013C0007695679557954795EA95D1F7480F591F38
:1013D0006A1F7B1F22E0CE0180960E940A090097B7
:1013E000E1F2E894C7F8DD24EE24FF24CC0CDD1CE8
:1013F000CC0CDD1CFC01EC0DFD1D80819181A281D6
:10140000B381BF701EC0803141F64C895D896E8901
:101410007F894D0D511D611D711D22E0CE01809609
:101420000E940A09009709F4B8CFDD24EE24FF24B6
:10143000CC0CDD1CFC01EC0DFD1D80819181A0E038
:10144000B0E0488D598D6A8D7B8D481759076A0722
:101450007B0738F0F80180839183A283B38381E016
:1014600001C080E0DF91CF911F910F91FF90EF902D
:10147000DF90CF9008959F92AF92BF92CF92DF926C
:10148000EF92FF920F931F93CF93DF9300D000D082
:10149000CDB7DEB75C016A017B019E012F5F3F4F34
:1014A000B701A601C5010E94BC09982E87FF02C0A2
:1014B00080E01EC000E010E09801B701A601C50160
:1014C0000E944A098823A1F3F50140855185628570
:1014D0007385C416D506E606F70620F4C086D186C5
:1014E000E286F386C980DA80EB80FC809110D5CF4C
:1014F0000F900F900F900F90DF91CF911F910F9150
:10150000FF90EF90DF90CF90BF90AF909F900895A5
:101510000F931F93CF93DF93EB01FC0120812111E7
:1015200002C080E038C0207621F08FE288831982E3
:1015300031C08B0160E00E948B13DC01009789F3BE
:10154000FC0148E090E020E05EE280818032D1F052
:10155000283039F4B801690F711DEB0158839F5F82
:1015600040E130818FEB830F8A3130F41C968C91EF
:101570001C97842309F0305EB801690F711DEB01DF
:1015800038839F5F2F5F31962B30F9F6E801C90F42
:10159000D11D188281E0DF91CF911F910F910895A5
:1015A0006115710579F0FB0101900020E9F7319791
:1015B000AF01461B570BDC01ED91FC910280F381DA
:1015C000E02D099480E090E008959F92AF92BF9241
:1015D000CF92DF92EF92FF920F931F93CF93DF93FF
:1015E000CDB7DEB7A0970FB6F894DEBF0FBECDBF64
:1015F00019821A82DC012C9123FD02C080E0A6C072
:10160000FC01228121FFFACF8C01448D558D668D1E
:10161000778D411551056105710549F0D801169680
:101620008D919C9117970E943B0A882339F361E0C2
:10163000C8010E948B137C01009701F30E94801D5A
:10164000B82E85EEF7018083D8011C9216968D91F5
:101650009C91179780960E94C708882379F2F80119
:101660009381992309F472C0F80180859185A28540
:10167000B385668177819E012F5F3F4F7901009787
:10168000A105B10539F4C9010E945020882309F44D
:10169000B5CF0FC020E2F70111922A95E9F720E1BA
:1016A000298321E02B8378876F838D8F9E8FAF8F67
:1016B000B8A39924939495EEA92EF80183818915F6
:1016C00008F49CCFC92CD12CD80114964D915C9173
:1016D00015974C195D0960E070E085E0440F551FD7
:1016E000661F771F8A95D1F7C7010E94CF1D8823F7
:1016F00009F484CF60E0C7010E94DA1FFC01892B46
:1017000009F47CCF83858F3009F078CF2081822F38
:101710008F7190E0C816D90609F070CF8585B81290
:101720006DCFA082D8011696ED91FC91179780A1FC
:10173000816080A326FF08C016968D919C91179713
:1017400080960E94C70802C09394B7CFA0960FB6A8
:10175000F894DEBF0FBECDBFDF91CF911F910F91E7
:10176000FF90EF90DF90CF90BF90AF909F90089543
:101770002F923F924F925F926F927F928F929F92A1
:10178000AF92BF92CF92DF92EF92FF920F931F938F
:10179000CF93DF93CDB7DEB72A970FB6F894DEBFAD
:1017A0000FBECDBF4C018B01FA01A180B280DB01DD
:1017B0008C91807711F480E04DC2D4018C9181111D
:1017C000FACF9081937009F439C2C5010C966DE08F
:1017D00070E00E94C22977247394760E2A837F01D9
:1017E0001A870987C8010E9473021C821D82198210
:1017F000612C10E000E01B8297012A5F3F4F3F837E
:101800002E83E985FA8580899189A289B3891C0193
:101810002D01A5E05694479437942794AA95D1F7C3
:10182000610161E0CF010E94DA1F009741F4A985B0
:10183000BA8511968C91882309F498C0BCCFFC011D
:101840002081253E11F021110AC0111102C02C8205
:101850003D82171508F41F5F211105C087C01715B9
:1018600008F4EFC102C0253EF1F12E32E1F1DC01B6
:101870001B963C911B973F3009F057C0011109C0DE
:1018800026FFBFCF022F0F711D962C912983602E4A
:1018900009C06A94261127C0DC011D962C9139815C
:1018A000321321C0462D50E0415051096DE0649F34
:1018B0009001659F300D11242A153B05A0F4FC0111
:1018C00060E0653018F48181928107C06B3018F4B4
:1018D0008481958102C0868197812A153B0529F470
:1018E000892B09F48ECF00E08CCF8F3F910509F052
:1018F000D0F74FEB480F4A3110F0782F02C070E25A
:10190000780FA9014F5F5F4FD70113968D919C917E
:101910001497DC01A20FB31F8C919FEB980F9A31A3
:1019200008F4805E7813DFCF8EC133FDDCCF002357
:1019300049F0B1E06B123FCF0E94801D29818213D4
:101940003ACF10C04BE050E06E817F810E941D2A8B
:10195000892B09F056CFD7018C9180FF03C031E06D
:101960003B834FCF2A8127FF61C125CF8A818274B3
:10197000823409F020CF112359F0CC80DD8008C0DB
:1019800060E089859A850E94DA1F892B21F01F5F0C
:101990001715B0F318C0A985BA8511968C918823C4
:1019A00091F009CF89859A850E946414882309F4EF
:1019B00002CFA985BA851696ED91FC911797828181
:1019C000823018F4105F171568F32B81222309F475
:1019D00070C0D70115966C9002E010E07EE7372EBC
:1019E0002701B6E04B0E511C3EC0F3E0F61510F493
:1019F00053E0652E34E0360D282F2F70E32FF0E0F2
:101A00002A3008F04EC0205DEE0DFF1D268344E015
:101A1000969587954A95E1F73150631668F3F7017B
:101A2000E60DF11D368289859A850E94730261E078
:101A300089859A850E94DA1F0097A9F1FC0120810F
:101A40002223B9F1238523FDF2CF4BE050E0BC0106
:101A5000C2010E941D2A892B51F70F5F1F4F0436C8
:101A6000110509F4A8CEF70141815281C801840F04
:101A7000951F0380F481E02D4E0F5F1FE417F507DB
:101A800009F4B3CF9C0165E0220F331F6A95E1F79B
:101A9000820F931F2191022E000C330B8227932774
:101AA000EDCF295CB1CFA985BA8511968C918111B2
:101AB00082CEA60160E070E035E0440F551F661F3E
:101AC000771F3A95D1F789859A850E94CF1D882383
:101AD00009F471CE0FEF070D102F9FE0492E67011B
:101AE000F6E0CF0ED11C2DE0522E112309F45EC07A
:101AF00060E089859A850E94DA1F3C01892B09F4F0
:101B00005ACEA985BA851696ED91FC91179780A1BA
:101B1000816080A3212F101301C02064F301208372
:101B200043861486C60128870E94801DD3011D9616
:101B30008C931D975B961C921E925A97F7014381D6
:101B4000548128852F71822F90E00197589E900133
:101B5000599E300D1124F30160E02A153B0540F435
:101B6000DA01A20FB31F8C91082E000C990B0AC04A
:101B700081E090E02A153B0511F480E090E091951A
:101B800081959109653018F49283818307C06B3089
:101B900018F49583848302C0978386836F5F2F5FD9
:101BA0003F4F32966D30C9F611509FCFA985BA8547
:101BB00050964D915D916D917C91539785E076950E
:101BC0006795579547958A95D1F76A0160E0CD01F1
:101BD0000E94DA1F009709F4EECD20E2FC01119279
:101BE0002A95E9F7F70136962BE0DC0101900D927A
:101BF0002A95E1F7D7012C912871FC01248721E275
:101C000038E2318B208B40E058E057874687338B92
:101C1000228B318F208F578B468BA985BA851696DC
:101C2000ED91FC91179780A1816080A32A81A60184
:101C300069857A85C4010E946A200CC07724739458
:101C4000CDCD10E012CE6F5F32966D3009F4D9CD54
:101C50009A0137CE2A960FB6F894DEBF0FBECDBFDD
:101C6000DF91CF911F910F91FF90EF90DF90CF9078
:101C7000BF90AF909F908F907F906F905F904F90AC
:101C80003F902F900895AF92BF92CF92DF92EF9244
:101C9000FF920F931F93CF93DF93FB01DC0101961B
:101CA0002C912032D9F3B483A3839D0189010A1BAF
:101CB0001B0BE90189919E018823C1F08F32B1F09D
:101CC0008C3511F480E0F2C0982F977F9232D1F3D7
:101CD0008A33C1F3982F9F7B9C33A1F392EC980F2A
:101CE000923080F380528F3508F3ECCF0A0F1B1F20
:101CF000C801682F392FEC012991CE012032C9F398
:101D00002F32B9F3EA016883398398012A1B3B0B10
:101D10000A171B0741F0E8018A918E018E32A9F360
:101D2000803299F303C0A12CB12C05C059012F3F7B
:101D3000310509F03CF6B282A182CF0106969F01DF
:101D40002F5E3F4F40E2EC014993CE01C217D3070B
:101D5000D1F7CD01AC014A1B5B0BEC013991CE01EF
:101D60003E32C1F33032B1F39A0191E0452B09F0D4
:101D700090E0A5014150510938F0BD01640F751F75
:101D8000EB0188818E32B1F717E060E000E070E08F
:101D900088E0E82E2A153B050CF06CC06D01C20EE0
:101DA000D31EE6018881803209F45BC08E3229F4AB
:101DB0004217530709F055C004C08232E1F08C3756
:101DC000D1F0D6EDFD2EF80ED5E0DF1510F08D32F6
:101DD00091F4C6ECFC2EF80EC5E0CF1560F4D5EA00
:101DE000FD2EF80ED2E0DF1530F4CFEDFC2EF80E0C
:101DF000CDE5CF1520F42417350781F438C024171A
:101E00003507A9F1161718F1F82ECFE9DC2ED80EF8
:101E1000D9E1DD1548F080527E290CC01617B8F0C4
:101E200090E08FE5CFE5FC2ECFEBFC0ED9E1DF157E
:101E300008F00E29FF24F394F60E6F01C60ED11C94
:101E4000E6018E83D6E0DF1570F0F5820CC01A3003
:101E500081F0421753076CF09A011AE068E0D0E174
:101E6000ED2E90E001C06F2D2F5F3F4F93CF1A30C2
:101E7000B9F490E08681803209F424CF992329F0C7
:101E8000072309F072E0708309C081E080838581B7
:101E9000E80FF11D8EE7868381E3878381E006C02A
:101EA0009A011AE068E0D0E1ED2EDECFDF91CF910C
:101EB0001F910F91FF90EF90DF90CF90BF90AF9068
:101EC0000895CF92DF92EF92FF920F931F93CF93DB
:101ED000DF936C017A018B01C0E0D0E0CE15DF0505
:101EE00089F0D8016D918D01D601ED91FC910190A1
:101EF000F081E02DC6010995892B11F47E0102C005
:101F00002196ECCFC701DF91CF911F910F91FF90E8
:101F1000EF90DF90CF9008953FB7F8948091BC0286
:101F20009091BD02A091BE02B091BF0226B5A89BC0
:101F300005C02F3F19F00196A11DB11D3FBFBA2F5B
:101F4000A92F982F8827820F911DA11DB11DBC01BB
:101F5000CD0142E0660F771F881F991F4A95D1F780
:101F600008950E94182A833081F028F4813099F076
:101F70008230A1F008958730A9F08830B9F084301C
:101F8000D1F4809180008F7D03C0809180008F7795
:101F900080938000089584B58F7702C084B58F7DCB
:101FA00084BD08958091B0008F7703C08091B00008
:101FB0008F7D8093B00008951F93CF93DF93282FD8
:101FC00030E0F901E15DFD4F8491F901E55EFD4FDF
:101FD000D491F901E95FFD4FC491CC23C9F0162FCC
:101FE00081110E94B30FEC2FF0E0EE0FFF1FE651BE
:101FF000FF4FA591B4918FB7F894111105C09C9132
:10200000ED2FE095E92302C0EC91ED2BEC938FBF0F
:10201000DF91CF911F910895CF93DF9390E0FC0162
:10202000E55EFD4F2491FC01E95FFD4F849188231B
:1020300061F190E0880F991FFC01ED50FE4FC591B2
:10204000D491FC01E651FF4FA591B491611109C0F3
:102050009FB7F8948881209582238883EC912E2362
:102060000BC0623061F49FB7F8943881822F80955D
:1020700083238883EC912E2B2C939FBF06C08FB7B0
:10208000F894E8812E2B28838FBFDF91CF9108959C
:102090008F929F92AF92BF92CF92DF92EF92FF9278
:1020A0006B017C010E948C0F4B015C01C114D104B7
:1020B000E104F104F1F00E948C0FDC01CB018819DE
:1020C0009909AA09BB09883E9340A105B10570F39F
:1020D00021E0C21AD108E108F10888EE880E83E0F9
:1020E000981EA11CB11CC114D104E104F10419F71C
:1020F000DDCFFF90EF90DF90CF90BF90AF909F909B
:102100008F9008952FB7F8946091B8027091B9023A
:102110008091BA029091BB022FBF08951F920F9237
:102120000FB60F9211242F933F938F939F93AF93EA
:10213000BF938091B8029091B902A091BA02B09178
:10214000BB023091B70223E0230F2D3720F4019614
:10215000A11DB11D05C026E8230F0296A11DB11DCA
:102160002093B7028093B8029093B902A093BA0269
:10217000B093BB028091BC029091BD02A091BE02BF
:10218000B091BF020196A11DB11D8093BC02909336
:10219000BD02A093BE02B093BF02BF91AF919F91C9
:1021A0008F913F912F910F900FBE0F901F90189518
:1021B0001F920F920FB60F9211242F933F934F93BC
:1021C0005F938F939F93EF93FF93209191033091AF
:1021D000920380918F039091900382179307D1F01F
:1021E000C901019640918D0350918E03FA01E20FCF
:1021F000F31F208140919303509194038417950716
:1022000010F080E090E090939203809391032093EC
:10221000C60005C08091C1008F7D8093C100FF91F1
:10222000EF919F918F915F914F913F912F910F90DF
:102230000FBE0F901F9018951F920F920FB60F921E
:1022400011242F933F934F935F936F937F938F93BB
:102250009F93EF93FF938091C0008C719091C60083
:1022600040919703509198039A012F5F3F4F6091DF
:10227000950370919603FB01E40FF51F9083409145
:102280009B0350919C032417350710F020E030E0A9
:102290004091990350919A0324173507C1F0309368
:1022A0009803209397039091B602892B8093B602EE
:1022B000FF91EF919F918F917F916F915F914F91DE
:1022C0003F912F910F900FBE0F901F901895816036
:1022D000EACF8EBD0DB407FEFDCF08958FEF8EBD02
:1022E0000DB407FEFDCF8EB508950F931F93CF93C6
:1022F000DF93EC0189018D81833039F089E0440F4F
:10230000551F661F771F8A95D1F79A01AB0168E1C7
:10231000CE010E941F08882311F082E32DC08EEFAA
:102320000E946911F80180818EBD818132961E5F05
:102330000DB407FEFDCF8EBDE017F10711F08191BE
:10234000F7CF0DB407FEFDCF8FEF0E9469118FEF1D
:102350000E9469110E946E118C838F71853031F05B
:1023600087E58883CE010E94F10707C00E942919E2
:10237000182F811107C08AE58883CE010E94F107DA
:1023800010E012C020E030E0A9016DE0CE010E9413
:102390001F08811104C00E946E11882311F089E288
:1023A000EBCFCE010E94F107812FDF91CF911F91DA
:1023B0000F91089585ED8093BC008091BC0084FD51
:1023C000FCCF10927803089540910D03262F30E042
:1023D000240F311D21323105DCF4209178032430A3
:1023E000C9F4FC0180E090E0861758F430910D03A9
:1023F0002191DC01A351BD4FA30FB11D2C93019678
:10240000F3CF80910D03680F60930D0380E0089572
:1024100081E0089582E00895E091A901F091AA0178
:10242000309729F010927A03109279030994089555
:10243000CF93DF93AC01E091A701F091A801309711
:10244000F1F090917C0380917B039817C0F090E0AD
:10245000292F30E02617370754F4D901A353BD4F75
:10246000EA01C20FD31F88818C939F5FF1CF109236
:102470007C0360937B03CB01DF91CF910994DF91C3
:10248000CF9108950895E0917C0380917B03E81734
:1024900030F4F0E0E353FD4F808190E008958FEF3A
:1024A0009FEF089590917C0380917B03981750F4DF
:1024B000E92FF0E0E353FD4F208130E09F5F9093E0
:1024C0007C0302C02FEF3FEFC901089580917B0389
:1024D00090E020917C03821B91090895CF93DF93B4
:1024E00000D0CDB7DEB7CB01642F49835A830E9459
:1024F000E4114981842F5A81952F0F900F90DF911D
:10250000CF910895CF93DF931F92CDB7DEB7698344
:1025100061E0CE0101960E94E41181E090E00F900D
:10252000DF91CF9108952091970330919803809186
:10253000990390919A032817390769F080919903BC
:1025400090919A03E0919503F0919603E80FF91F9B
:10255000808190E008958FEF9FEF08958091990317
:1025600090919A0320919703309198032817390787
:10257000D1F09C012F5F3F4F4091950350919603FE
:10258000FA01E80FF91F808140919B0350919C0351
:102590002417350710F020E030E030939A032093A1
:1025A000990390E008958FEF9FEF08952FB7F89467
:1025B00080919703909198034091990350919A03C9
:1025C000841B950B2FBF97FF06C020919B03309172
:1025D0009C03820F931F089520918F0330919003E5
:1025E000809191039091920328173907A9F70895D4
:1025F00020918F0330919003C901019640918D0382
:1026000050918E03FA01E20FF31F60832091930330
:10261000309194038217930710F080E090E02091AE
:102620009103309192038217930711F390939003D3
:1026300080938F038091C10080628093C10081E00C
:1026400090E00895AF92BF92CF92DF92EF92FF9207
:102650000F931F93CF93DF937B015A018A010115DA
:10266000110509F443C0F89420919103309192032D
:102670007894C0908F03D0909003C216D30628F4AC
:10268000E9012197CC19DD0909C0C0919303D091CC
:102690009403CC19DD09232B09F421970C171D078E
:1026A00008F4E80180918D0390918E03AE01B7018B
:1026B0008C0D9D1D0E942A2A9E012C0D3D1D80918E
:1026C0009303909194032817390710F0281B390BB6
:1026D0003093900320938F038091C1008062809398
:1026E000C1000C1B1D0BEC0EFD1EB9CFC501DF9107
:1026F000CF911F910F91FF90EF90DF90CF90BF90FF
:10270000AF900895CF93DF93EC010E94931D188240
:10271000DF91CF910895CF93DF93EC01262F4C8961
:102720005D896E897F898E819F8180960E940A09CA
:10273000009761F02C813D812F70332745E0220FF7
:10274000331F4A95E1F7820F931F02C080E090E0AB
:10275000DF91CF9108953F924F925F926F927F9257
:102760008F929F92AF92BF92CF92DF92EF92FF92A1
:102770000F931F93CF93DF93CDB7DEB728970FB694
:10278000F894DEBF0FBECDBF4C01DC0112968C91D8
:102790001297806812968C9312971C964D905D90BC
:1027A0006D907C901F971696AD90BC901797411432
:1027B00051046104710461F4D50118968D919D91C5
:1027C0000D90BC91A02D8D839E83AF83B88704C0EC
:1027D0004D825E826F827886CD80DE80EF80F884C5
:1027E000BFEFCB1ADB0AEB0AFB0AF501808D918D56
:1027F000A28DB38D8C159D05AE05BF0528F482E032
:10280000C82ED12CE12CF12C9E012F5F3F4FB70138
:10281000A601C5010E94BC0987FD20C0882341F0A4
:1028200089819A81AB81BC81892B8A2B8B2B51F0BA
:102830008D819E81AF81B885C816D906EA06FB0650
:1028400079F60CC00FEF1FEF2FEF3FE0B701A601A5
:10285000C5010E944A09382E811102C0312C1BC0CB
:10286000411451046104710451F097018601B301D0
:10287000A201C5010E944A09811108C0EFCFD5010C
:102880001896CD92DD92ED92FC921B97F401C486CE
:10289000D586E686F786832D28960FB6F894DEBF98
:1028A0000FBECDBFDF91CF911F910F91FF90EF90A1
:1028B000DF90CF90BF90AF909F908F907F906F9060
:1028C0005F904F903F9008958F929F92AF92BF92EA
:1028D000EF92FF920F931F93CF93DF93EC018881C8
:1028E00085FF02C010E068C088899989AA89BB89E0
:1028F00081159E4FAF41B105A8F7CE010E94AB13E1
:10290000182F882379F3EE81FF814C855D856E85D4
:102910007F854250510961097109048004C0440F48
:10292000551F661F771F0A94D2F780889188A28866
:10293000B388840E951EA61EB71E25E0B501A4011E
:10294000CF0180960E940A097C01892B59F280E010
:1029500092E0F7019C01119221503040E1F701E033
:10296000EE81FF819281091780F49701B501A401DE
:10297000400F511D611D711D808191810E94751153
:10298000882309F4AFCF0F5FEBCF492F50E060E011
:1029900070E089E0440F551F661F771F8A95D1F7B5
:1029A00088899989AA89BB89480F591F6A1F7B1F8B
:1029B000488B598B6A8B7B8B812FDF91CF911F9135
:1029C0000F91FF90EF90BF90AF909F908F900895E0
:1029D0001F920F920FB60F9211242F933F934F9394
:1029E0005F936F937F938F939F93AF93BF93EF9377
:1029F000FF938091B900887F803609F49CC068F508
:102A0000883209F45BC090F4803109F454C038F482
:102A1000882309F4F6C0883009F44DC0F6C0883127
:102A200009F44CC0803209F45DC0EFC0803409F471
:102A300068C048F4803309F455C0883309F0E5C014
:102A400080933003D8C0803509F44FC0883509F42D
:102A50005DC0883409F0D9C0D6C0883909F4C7C030
:102A6000A8F4883709F467C038F4883609F463C0DD
:102A7000803709F460C0C9C0883809F4B8C080390B
:102A800009F45FC0803809F0C0C05BC0803B09F426
:102A900086C038F4803A09F466C0883A09F47FC0E9
:102AA000B4C0803C09F4A7C0883C09F4A4C0883BAA
:102AB00009F48AC0AAC08091530310C090915203B8
:102AC00080915103981770F5E091520381E08E0FC9
:102AD00080935203F0E0EF5CFC4F80818093BB0059
:102AE00085EC86C0809330038EC0E091520381E074
:102AF0008E0F809352038091BB00F0E0EF5CFC4F9F
:102B0000808390915203809151036EC0E0915203F3
:102B100081E08E0F809352038091BB00F0E0EF5C68
:102B2000FC4F80838091770381116DC081E0809399
:102B3000760384EA61C083E08093780310922F03C8
:102B4000CFCF80912F03803208F051C0E0912F0346
:102B500081E08E0F80932F038091BB00F0E0E15F56
:102B6000FC4F8083BDCF85EC8093BC00109278032E
:102B700080912F03803230F4E0912F03F0E0E15F89
:102B8000FC4F108260912F0370E0E0917D03F09183
:102B90007E038FE093E0099510922F0336C084E006
:102BA0008093780310920E0310920D03E0917F033F
:102BB000F0918003099580910D03811105C081E09A
:102BC00080930D031092ED02E0910E0381E08E0FD1
:102BD00080930E03F0E0E351FD4F80818093BB00B2
:102BE00090910E0380910D03981708F479CF85E832
:102BF0008093BC000AC085EC8093BC0010927803DF
:102C000004C0109230030E94DA11FF91EF91BF913E
:102C1000AF919F918F917F916F915F914F913F9174
:102C20002F910F900FBE0F901F90189589EE91E095
:102C30000E9498190E94E81A0C947D290C94752919
:102C4000CF93DF93EC018091A103882321F081EAE7
:102C500093E00E94821346E4BE0181EA93E00E9461
:102C60007802C82F8823A1F08091B9039091BA030C
:102C7000A091BB03B091BC03892B8A2B8B2B41F411
:102C800081EA93E00E94730281EA93E00E94931D1F
:102C90008C2FDF91CF910895CF92DF92EF92FF9228
:102CA0000F931F93CF93DF93CDB7DEB7A4970FB6E3
:102CB000F894DEBF0FBECDBF1D821E821C821B8218
:102CC00084E291E09A83898384E090E00E941E165A
:102CD000082F83E090E00E941E1610E0102F0027BE
:102CE000082B0F3F8FEF180769F460E083E090E056
:102CF0000E941C1660E084E090E00E941C1600E038
:102D000010E007C00E3F8FEF180719F487ED91E030
:102D10003CC02BECE22E21E0F22E30ECC32E32E050
:102D2000D32E1F930F93FF92EF92DF92CF920E94C8
:102D3000D42642EC60EC72E0CE0105960E94780247
:102D40000F900F900F900F900F900F900F5F1F4FED
:102D5000811120C041E060EC72E0CE0105960E9436
:102D60007802882361F08D8D9E8DAF8DB8A1892B5F
:102D70008A2B8B2B79F0CE0105960E9482130E3F91
:102D80008FEF180771F689EB91E00E94981980E0A7
:102D900090E019C0CE0105960E948213602F83E057
:102DA00090E00E941C1684E090E00E941E16612FA5
:102DB000772790E08617970721F084E090E00E9443
:102DC0001C1680EC92E0A4960FB6F894DEBF0FBEFE
:102DD000CDBFDF91CF911F910F91FF90EF90DF90CA
:102DE000CF900895FF920F931F93CF93DF93CDB7AA
:102DF000DEB7C955D1090FB6F894DEBF0FBECDBFFF
:102E00001D821E821C821B8284E291E09A83898348
:102E10000E94A71A81110AC084E191E00E949819CA
:102E20008EEF90E00E9498190E94E81A6EEA71E015
:102E3000CE01805B9F4F0E94BB2642E0BE01605BDB
:102E40007F4FCE0105960E947802882389F0CE013B
:102E500005960E94E50A81110BC089E991E00E9464
:102E600098196AE471E081E196E00E94D00A6FC08F
:102E700046E4BE01605B7F4FCE0105960E9478025A
:102E80008DE090E00E941E16182F85E090E00E94D1
:102E90001E16082F86E090E00E941E16F82E82E093
:102EA00090E00E941E161F928F931F92FF921F9216
:102EB0000F931F921F938DE891E09F938F938E0144
:102EC0000D5B1F4F1F930F930E94D426F8010190B2
:102ED0000020E9F73197AF01401B510BB801CE013B
:102EE00005960E94931EF80101900020E9F73197A2
:102EF000E01BF10B0FB6F894DEBF0FBECDBF8E17EF
:102F00009F0751F087E791E00E9498196AE471E009
:102F100081E196E00E94D00A6AE471E0CE01019658
:102F20000E94D00A8E010B5D1F4F69E571E0C80158
:102F30000E94BB26F80101900020E9F73197AF010C
:102F4000401B510BB801CE0105960E94931ECE0185
:102F500005960E948213C75ADF4F0FB6F894DEBF62
:102F60000FBECDBFDF91CF911F910F91FF900895BC
:102F7000CF93DF939C01DB01F901EB018991BE0145
:102F8000882351F0E90199919E019A3229F098170E
:102F900091F39F3381F328C040E050E020E030E01F
:102FA0009C919923D9F080818A3251F4CF01019606
:102FB00021812223D9F09D012F5F3F4FAC010CC02E
:102FC000891711F08F3321F4CF010196119604C0B7
:102FD000D9012F5F3F4FCA01FC01E2CF91919A3294
:102FE000E9F381E0992319F080E001C081E0DF91ED
:102FF000CF9108958F929F92AF92BF92CF92DF921E
:10300000EF92FF92CF93C82F1092C60381E090E019
:10301000A0E0B0E08093C9039093CA03A093CB03D0
:10302000B093CC0381EC93E09093E3038093E203AD
:103030001092E1038FEF9FEFDC018093E403909304
:10304000E503A093E603B093E703CC2331F1C53049
:1030500008F0DCC020E040E050E0BA0181EE93E0EF
:103060000E940A09009709F4D1C020E1C29F800D97
:10307000911D11244097FC01E254FE4F20812F77CF
:1030800009F0C4C0389680809180A280B3808114FA
:103090009104A104B10421F4B9C0812C912C5401F4
:1030A00020E0B501A40181EE93E00E940A09FC0131
:1030B000892B09F4ABC0838594858115924009F072
:1030C000A5C08089823009F0A1C046855785411589
:1030D000510509F49BC025852093C3038FEF820F10
:1030E0008093C40380E091E0291751F031E0380F5C
:1030F000393019F48093C50389C0990F832FF4CF19
:103100008093C503C688D788C114D10419F0E12C77
:10311000F12C04C0C4A0D5A0E6A0F7A0C092CD03B6
:10312000D092CE03E092CF03F092D003D501C40138
:10313000840F951FA11DB11D8093D5039093D603D5
:10314000A093D703B093D803218932893093C80361
:103150002093C703CC0CDD1CEE1CFF1CC80ED91E2F
:10316000EA1EFB1EC092DD03D092DE03E092DF0375
:10317000F092E00355E0220F331F5A95E1F72150FA
:103180003E4F232F33272695C20ED31EE11CF11C80
:10319000C092D103D092D203E092D303F092D40331
:1031A000238934892115310521F0C901A0E0B0E05F
:1031B00004C080A191A1A2A1B3A1B501A4014C19A1
:1031C0005D096E097F09480F591F6A1F7B1F009018
:1031D000C50304C076956795579547950A94D2F72D
:1031E000DB01CA010196A11DB11D8093D903909303
:1031F000DA03A093DB03B093DC03453F8FE058076D
:103200006105710528F48CE08093C60380E017C047
:10321000453F5F4F6105710510F480E10DC084A545
:1032200095A5A6A5B7A58093DD039093DE03A09393
:10323000DF03B093E00380E28093C60381E0CF9187
:10324000FF90EF90DF90CF90BF90AF909F908F90C6
:103250000895CF93DF930E948210EB010E946E11BC
:103260008F3F49F00E9482106C1B7D0B69357240C4
:10327000A8F380E001C081E0DF91CF910895880F2D
:103280008093BA008CE092E19093800380937F0357
:1032900088E192E190937E0380937D0310927C03FA
:1032A00010927B0310927A031092790310927803A4
:1032B00081E0809377031092760361E082E10E94BF
:1032C000DC0F61E083E10E94DC0FE9EBF0E080813C
:1032D0008E7F808380818D7F808388E48093B80097
:1032E00085E48093BC000895CF93DF93E2E3F2E09E
:1032F0008491EEE1F2E0D491EAE0F2E0C491CC23D3
:1033000091F081110E94B30FEC2FF0E0EE0FFF1F40
:10331000E350FE4FA591B491EC91ED2381E090E054
:1033200021F480E002C080E090E0DF91CF91089529
:103330000F931F93CF93DF938C01C0E0D0E0F8018F
:10334000EC0FFD1F6491662371F0E0911106F0917E
:1033500012060190F081E02D81E196E00995892B1C
:1033600011F02196ECCFCE01DF91CF911F910F91FB
:1033700008958F929F92AF92BF92DF92EF92FF9249
:103380000F931F93CF93DF93EC017B0198819923D7
:1033900009F442C08A8180FF3FC093FF48C0488D36
:1033A000598D6A8D7B8D088919892A893B89401B33
:1033B000510B620B730B423051056105710590F1A1
:1033C000488959896A897B898A01117095FD48C0AD
:1033D000EE81FF81D3804A015B0189E0B694A79416
:1033E000979487948A95D1F7D8200115110509F093
:1033F00064C0D11062C0452B462B472B09F442C054
:103400004C855D856E857F859E01245F3F4FCF0192
:103410000E94BC0987FF46C08981826089838FEF43
:103420009FEF89C0452B462B472B51F610C095FFC7
:10343000C7CFEE81FF818681978125E0880F991F94
:103440002A95E1F7288939898217930719F480E0D2
:1034500090E06DC0488959896A897B898A01117019
:1034600099E076956795579547959A95D1F7EE81AE
:10347000FF81848D958DA68DB78D480F591F6A1FCA
:103480007B1F39C096FF05C0848D958DA68DB78DA5
:1034900004C08C8D9D8DAE8DBF8D8C879D87AE8732
:1034A000BF870BC0811109C08881807709F4B4CF30
:1034B00081E090E021E030E03CC0EE81FF814C856E
:1034C0005D856E857F8542505109610971090480CF
:1034D00004C0440F551F661F771F0A94D2F78089D6
:1034E0009189A289B389480F591F6A1F7B1F4D0D0F
:1034F000511D611D711D8E819F8120E080960E946B
:103500000A09009709F488CFFC01E00FF11F8081C0
:10351000F701808388899989AA89BB890196A11DB1
:10352000B11D888B998BAA8BBB8B81E090E020E04A
:1035300030E0821B930BDF91CF911F910F91FF9091
:10354000EF90DF90BF90AF909F908F90089588EE9E
:1035500095E00E94821361EC73E088EE95E00C9494
:103560005020CF93DF93CDB7DEB7A0970FB6F89476
:10357000DEBF0FBECDBF19821A82FC0120812F321F
:1035800031F42181211103C00E94A71A18C021E043
:10359000AC0168EE75E0CE0101960E94F32188230C
:1035A00071F09981907751F090E2FE013196A8EE8A
:1035B000B5E001900D929A95E1F701C080E0A096E8
:1035C0000FB6F894DEBF0FBECDBFDF91CF91089547
:1035D000C3E061E085E00E94DC0F68EC70E080E011
:1035E00090E00E94481060E085E00E94DC0F68ECEB
:1035F00070E080E090E00E944810C15051F760ED0B
:1036000077E080E090E00E944810E2CFAF92BF9256
:10361000CF92DF92EF92FF920F931F93CF93DF939E
:1036200000D000D0CDB7DEB7FC018081811153C03E
:103630009091E805907709F44EC04091F8055091BB
:10364000F9056091FA057091FB054F7155276627C2
:103650007727452B462B472BF1F55F0100E010E063
:10366000C090F805D090F905E090FA05F090FB05C0
:1036700060E088EE95E00E94DA1FFC01892B59F189
:103680009081992341F19E3211F400E0E9CF953EFB
:10369000E1F3838583FD17C0B701A60185E0769528
:1036A0006795579547958A95D1F70023B1F0CF01DB
:1036B00049835A836B837C830E94801D49815A8190
:1036C000181309C00AC08F3001F796FFC9CF092F20
:1036D0000F711585C5CF80E006C021E068EE75E06A
:1036E000C5010E946A200F900F900F900F90DF91FC
:1036F000CF911F910F91FF90EF90DF90CF90BF90EF
:10370000AF900895CF92DF92EF92FF920F931F93A5
:10371000CF93DF93CDB7DEB7E2970FB6F894DEBF55
:103720000FBECDBF6C011D821E821C821B8284E2F3
:1037300091E09A8389838E010B5D1F4F8DE4E82E03
:1037400081E0F82ECE0105960E94061B882319F110
:10375000B801CE0105960E94880A8823B9F09D81A0
:10376000907771F01F930F93FF92EF921F930F9337
:103770000E94422A0F900F900F900F900F900F9081
:10378000B801C6010E94B81781110CC0CE01059680
:103790000E948213D7CF81E0809301018FEF809345
:1037A000560319C01F930F9381E591E09F938F9368
:1037B00086E593E09F938F930E94422A8F5F8093C8
:1037C0000101CE0105960E9482130F900F900F9079
:1037D0000F900F900F90E2960FB6F894DEBF0FBED9
:1037E000CDBFDF91CF911F910F91FF90EF90DF90B0
:1037F000CF90089588E096E09093C2038093C10330
:1038000088EE95E00E94821381E00E94FA178823D7
:1038100049F061EC73E088EE95E00E945020882327
:1038200091F006C080E00E94FA178111F2CF0BC020
:103830009091E805907739F028EE35E03093550304
:1038400020935403089580E008958F929F92AF9241
:10385000BF92CF92DF92EF92FF921F93CF93DF93AD
:10386000D82FC92F10920B061092080610920D0641
:103870008EE096E090930A06809309060E948210DB
:103880006B017C01A0900906B0900A068AE0F50160
:10389000828361E00E940C1061E0F50182810E9448
:1038A000DC0F1FB7F89480915F06811127C0E1E11A
:1038B000F2E02491E5E2F2E08491E22FF0E0EE0FF5
:1038C000FF1FED50FE4FA591B491EC91E82321F438
:1038D00061E08AE00E94DC0F61E08AE00E940C1047
:1038E0008CB580618CBD8CB580648CBD61E08DE051
:1038F0000E940C1061E08BE00E940C1080915F062A
:103900008F5F80935F061FBFE0910906F0910A0662
:1039100082E58083118288E096E00E940608E091AB
:103920000906F0910A0661E082810E94DC0F1AE02C
:103930008FEF0E9469111150D9F7E0910906F091BB
:103940000A0660E082810E94DC0F20E030E0A901DD
:1039500060E088E096E00E941F08813049F00E94F4
:1039600082106C197D09613D774078F380E258C080
:103970002AEA31E040E050E068E088E096E00E940A
:103980001F08853011F481E00AC014E00E946E1116
:1039900080930C061150D1F78A3A59F482E0809353
:1039A0000D0680910D06823069F0812C912C540116
:1039B0000EC00E9482106C197D09613D7740C0F2F3
:1039C00085E22EC0812C912CA12C80E4B82E20E021
:1039D00030E0A90167E388E096E00E941F08A50196
:1039E000940169E288E096E00E941F08882349F06C
:1039F0000E9482106C197D09613D774040F383E499
:103A00000FC080910D06823009F520E030E0A90159
:103A10006AE388E096E00E941F08882349F087E364
:103A20008093080688E096E00E94F10780E019C0C4
:103A30000E946E11807C803C19F483E080930D0617
:103A40000E946E110E946E110E946E1188E096E035
:103A50000E94F107E0910906F0910A06D083C18324
:103A600081E0DF91CF911F91FF90EF90DF90CF9099
:103A7000BF90AF909F908F9008958F929F92AF923A
:103A8000BF920F931F93CF93DF93CDB7DEB7A1976C
:103A90000FB6F894DEBF0FBECDBF19A2423008F4B6
:103AA0004AE08E010F5D1F4F842E912CA12CB12C6A
:103AB000A50194010E94D629E62FB901CA0101503F
:103AC0001109EA3014F4E05D01C0E95CD801EC931F
:103AD000232B242B252B61F7B80181E196E00E946E
:103AE000D00AA1960FB6F894DEBF0FBECDBFDF910E
:103AF000CF911F910F91BF90AF909F908F9008959D
:103B0000FC01AC01455F5F4F80E090E8899F900128
:103B10001124982F9695922B2191892F820FE417CB
:103B2000F50799F70895CF93DF93FC0120812111C8
:103B300002C081E031C0EC01828187FF25C061E0D5
:103B4000CF010E948B13FC01892B29F489818160AC
:103B5000898380E021C08081853EC1F3888183FF15
:103B600008C0888D998DAA8DBB8D848F958FA68F67
:103B7000B78F8C8D9D8DAE8DBF8D938F828FB58BC2
:103B8000A48B8A818F778A838E819F8180960E9401
:103B9000C7088823D9F2CDCFDF91CF9108954F92F6
:103BA0005F926F927F928F929F92AF92BF92CF92CD
:103BB000DF92EF92FF920F931F93CF93DF93EC016D
:103BC0004A015B014C845D846E847F84A881AA23B2
:103BD00009F491C0488959896A897B8984169506B8
:103BE000A606B70609F48DC081149104A104B1049E
:103BF00029F41C861D861E861F8678C0A3FF0BC075
:103C0000088D198D2A8D3B8D081519052A053B0550
:103C100008F471C014C0A5FF12C0EE81FF81868137
:103C2000978125E0880F991F2A95E1F7A0E0B0E081
:103C300088159905AA05BB0508F45DC057C0EE813B
:103C4000FF81848190E009968A019B01015011094E
:103C500021093109082E04C0369527951795079537
:103C60000A94D2F775016401B1E0CB1AD108E108DA
:103C7000F10804C0F694E794D794C7948A95D2F7D4
:103C8000C016D106E206F30620F0452B462B472B43
:103C900081F4A6FF05C0848D958DA68DB78D04C0D7
:103CA0008C8D9D8DAE8DBF8D8C879D87AE87BF8798
:103CB00004C0C01AD10AE20AF30A8E01045F1F4F42
:103CC000C114D104E104F10489F04C855D856E8551
:103CD0007F8598018E819F810E94BC0991E0C91A5D
:103CE000D108E108F10818165CF305C0888A998AA2
:103CF000AA8ABB8A06C04C865D866E867F8680E077
:103D000001C081E0DF91CF911F910F91FF90EF9063
:103D1000DF90CF90BF90AF909F908F907F906F90EB
:103D20005F904F9008952F923F924F925F926F92C3
:103D30007F928F929F92AF92BF92CF92DF92EF923B
:103D4000FF920F931F93CF93DF93EC015B014A0126
:103D5000888183FF0EC08A8181FF0BC082FF0FC064
:103D6000488D598D6A8D7B8DCE010E94CF1D8111AA
:103D700006C08981816089838FEF9FEF08C1A4010C
:103D800060E070E088899989AA89BB8980959095BF
:103D9000A095B09584179507A607B70750F364015F
:103DA0001E018CE0280E311C088919892A893B895B
:103DB000C114D10409F4D0C08E819F81B901A8013A
:103DC00029E076956795579547952A95D1F7DC01B7
:103DD0001396FC90F4221170F11034C001151105F6
:103DE00089F54C855D856E857F8541155105610599
:103DF000710569F091010E94BC0987FDBACF81115C
:103E000021C0CE010E94AB1381111CC0B2CF8C8D9A
:103E10009D8DAE8DBF8D0097A105B10579F4CE01C2
:103E20000E94AB13882309F4A4CF8C859D85AE85B1
:103E3000BF858C8F9D8FAE8FBF8F04C08C879D8771
:103E4000AE87BF87EE81FF814C855D856E857F855E
:103E50004250510961097109048004C0440F551F83
:103E6000661F771F0A94D2F780899189A289B38946
:103E7000480F591F6A1F7B1F4F0D511D611D711D7A
:103E80000115110521F4C114B2E0DB06B0F580E0A4
:103E900092E0801B910B76018C159D0508F47C0146
:103EA0000115110579F4488859886A887B88888DBE
:103EB000998DAA8DBB8D481659066A067B0610F0AF
:103EC00025E001C021E0CF0180960E940A090097F9
:103ED00009F44FCFA701B501800F911F0E942A2A34
:103EE0000E0D1F1D0115124031F58E819F818096A8
:103EF0000E94C70881111FC03CCF83A194A1A5A136
:103F0000B6A184179507A607B70741F410A28FEF53
:103F10009FEFDC0183A394A3A5A3B6A3EE81FF8149
:103F20009501808191810E947511882309F421CF28
:103F3000E12C82E0F82E88899989AA89BB898E0DA7
:103F40009F1DA11DB11D888B998BAA8BBB8BAE0CBD
:103F5000BF1CCE18DF0828CF888D998DAA8DBB8D08
:103F600080179107A207B30738F4088F198F2A8F9B
:103F70003B8F8A8180688A838A8183FD02C0C40165
:103F800006C0CE010E94931D8111F9CFF2CEDF91C0
:103F9000CF911F910F91FF90EF90DF90CF90BF9046
:103FA000AF909F908F907F906F905F904F903F90D9
:103FB0002F900895FF920F931F93CF93DF931F923B
:103FC000CDB7DEB78C01FC0180899189A289B389C4
:103FD0009C01AD0175E056954795379527957A95E3
:103FE000D1F7F22FFF70FF2E11F0611114C0BE0146
:103FF0006F5F7F4FC8010E94B919813019F080E0CE
:1040000090E01AC0F80180899189A289B3894F96FE
:10401000A11DB11D04C08096A11DB11DF801808BAA
:10402000918BA28BB38BF801868197818796F0E202
:10403000FF9E800D911D11240F90DF91CF911F9154
:104040000F91FF900895CF93DF93FC01208124FF0F
:1040500023C0EC010E94730261E0CE010E94DA1FCE
:10406000009721F48981882369F016C0FC01208122
:10407000222341F0253E81F32E3271F3838583FDA7
:10408000EBCF0AC088E088838A8182608A83CE0170
:10409000DF91CF910C94E50A80E0DF91CF910895F4
:1040A000FC018081811114C080E2DF01982F1D92F4
:1040B0009A95E9F777836683DB0115969C91903199
:1040C00019F0903229F480E4808381E0828308959E
:1040D00080E008958F929F92AF92BF92FF920F93CC
:1040E0001F93CF93DF93EC01F22E80E2DE011D924D
:1040F0008A95E9F7FB01868197819F838E835D8393
:104100004C83848C958CA68CB78C88869986AA86DD
:10411000BB86FA01EF70FF27DC01979635E0EE0FC2
:10412000FF1F3A95E1F7AD014E0F5F1FDA011B96B5
:104130002C9123FF03C0188280E063C09C012E0FE6
:104140003F1FD901D2962C9127712883DA011B9643
:104150003C91387111F4286028830B832F2D227332
:1041600019F02881217139F72F2D2F702A83DC0156
:1041700093964D915D916D917C9196974C8B5D8B53
:104180006E8B7F8BE80FF91F43AD54AD60E070E09C
:10419000BA0155274427DF01AF5BBF4F0D911C913A
:1041A00020E030E0402B512B622B732BF4FE0AC031
:1041B0004115510561057105F9F00E943B0A811115
:1041C0001BC0B9CF4C8F5D8F6E8F7F8FED5BFF4F24
:1041D00080819181A281B381888F998FAA8FBB8FB3
:1041E000F5FE0EC0488D598D6A8D7B8DCE010E94E3
:1041F000CF1D811105C09FCF8A8180688A83F0CF4F
:1042000081E0DF91CF911F910F91FF90BF90AF9010
:104210009F908F9008958F929F92AF92BF92CF926E
:10422000DF92EF92FF920F931F93CF93DF93CDB75F
:10423000DEB7A0970FB6F894DEBF0FBECDBFFC016E
:1042400019821A829081907709F4B9C07F01CF0159
:104250000E947302F70180889188A288B38860E089
:10426000C7010E94DA1F009729F4F7018181882392
:10427000A9F0A5C0FC012081222381F0253E51F345
:104280002E3241F3838583FDE5CF8981811197C06B
:10429000F7018081807709F492C00AC0F70180811C
:1042A000807621F4C7010E9423208AC081E088C063
:1042B00085E0B694A794979487948A95D1F7640182
:1042C0008114910449F1A4014150510960E070E06A
:1042D00025E0440F551F661F771F2A95D1F7C701A8
:1042E0000E94CF1D882309F46AC060E0C7010E94C4
:1042F000DA1FFC01892B09F462C083858F3079F4C1
:1043000080818F71813059F41585082DF5E1CF1624
:10431000D10438F004E105C0C7010E94730200E037
:1043200010E060E0C7010E94DA1F009709F447C05F
:10433000FC012081253E09F442C0222309F43FC03C
:104340002E32E9F1002321F00E94801D181337C09E
:1043500021E0A401B701CE0101960E946A208823C2
:1043600071F1898184FF05C0CE0101960E940B2165
:1043700007C08B8182608B83CE0101960E94E50A83
:104380008823E9F0FFEF8F1A9F0AA40160E070E034
:1043900095E0440F551F661F771F9A95D1F7F701D7
:1043A00080899189A289B38984179507A607B707E1
:1043B00009F450CFC7010E94CF1D81114BCF80E07F
:1043C000A0960FB6F894DEBF0FBECDBFDF91CF91A0
:1043D0001F910F91FF90EF90DF90CF90BF90AF9023
:1043E0009F908F900895CF92DF92EF92FF920F935C
:1043F0001F93CF93DF93CDB7DEB7E3970FB6F89453
:10440000DEBF0FBECDBF7C018B015BAB4AABD22EB2
:1044100019821A82FC018081882311F080E059C042
:10442000FB0180818077D1F3EAA9FBA980818F32DB
:10443000D9F4EAA9FBA980818F3221F43196FBAB34
:10444000EAABF7CFF80166817781811104C0C7011B
:104450000E9450203EC0CE0101960E945020882329
:10446000E9F28E010F5F1F4F80E2C82EAE014E5C55
:104470005F4FBE016F5D7F4F8AA99BA90E94430ECB
:10448000882361F2EAA9FBA980818823D1F021E089
:10449000AE014F5D5F4FB801C7010E94B80B882382
:1044A00009F4BCCFF701DE0111968C2D01900D921D
:1044B0008A95E1F7C7010E9482138E010F5F1F4F9B
:1044C000D5CF2D2DAE014F5D5F4FB801C7010E94C2
:1044D000B80BE3960FB6F894DEBF0FBECDBFDF91E9
:1044E000CF911F910F91FF90EF90DF90CF900895A3
:1044F000AF92BF92CF92DF92EF92FF920F931F93F2
:10450000CF93DF93CDB7DEB7A0970FB6F894DEBF99
:104510000FBECDBF8C01DB019C91907709F4A6C042
:104520007B0123ECC8010E94B80B882309F49EC0CC
:1045300081E0F801828380E1D82ED082C8010E94F8
:104540006414882309F492C0F80184859585A685B2
:10455000B785848F958FA68FB78FC8010E9473028D
:10456000C8010E94931D882309F480C061E0C8013E
:104570000E948B13009709F479C0DC011B96DC9232
:1045800020E2FC01DE01119601900D922A95E1F7DF
:10459000FC01A488B588C28CD38C8EE28983FE018D
:1045A0003296CE010C9620E22193E817F907E1F745
:1045B000D8011696ED91FC9117975C964D915D91FF
:1045C0006D917C915F974250510961097109048096
:1045D00004C0440F551F661F771F0A94D2F78089C5
:1045E0009189A289B389480F591F6A1F7B1F21E057
:1045F000CF0180960E940A090097C1F1BE8AAD8A58
:10460000DC8ECB8E20E2FE013196DC0101900D9212
:104610002A95E1F72EE22A83F701448D558D668DA8
:10462000778D7E8B6D8B5C8F4B8F20E2FE013196F8
:10463000DC01909601900D922A95E1F7D80116962B
:104640008D919C9117978096A0960FB6F894DEBF37
:104650000FBECDBFDF91CF911F910F91FF90EF90D3
:10466000DF90CF90BF90AF900C94C70880E0A096E9
:104670000FB6F894DEBF0FBECDBFDF91CF911F9173
:104680000F91FF90EF90DF90CF90BF90AF90089583
:10469000E6E5F3E0908381837283638384E0809313
:1046A00001010895CF93DF93CDB7DEB7C357D1098A
:1046B0000FB6F894DEBF0FBECDBF789484B582608C
:1046C00084BD84B5816084BD85B5826085BD85B5B6
:1046D000816085BD80916E00816080936E00109234
:1046E00081008091810082608093810080918100AF
:1046F0008160809381008091800081608093800040
:104700008091B10084608093B1008091B00081609D
:104710008093B00080917A00846080937A008091C9
:104720007A00826080937A0080917A008160809321
:104730007A0080917A00806880937A001092C1009C
:1047400061E085E00E940C1062E083E00E940C10A2
:1047500083B7817F83BF83B7816083BF80917A00F5
:104760008F7780937A0080E880BF8FE380937E000C
:1047700083E080937F008091640088608093640070
:104780008091640080648093640080916400816003
:104790008093640082E090E00E941E168093AD0139
:1047A0008091AD01863040F01092AD016091AD0175
:1047B00082E090E00E941C1685E090E00E941E16A8
:1047C0008093AC018091AC01882309F452C280919E
:1047D000AC018F3F09F44DC286E090E00E941E16A6
:1047E0008093AB018091AB018F3F49F483E08093CC
:1047F000AB016091AB0186E090E00E941C168DE059
:1048000090E00E941E1680930001809100018F3F6E
:1048100049F48AE280930001609100018DE090E00C
:104820000E941C1681E892E09093A8018093A70152
:1048300080ED91E09093AA018093A9010E945C020F
:104840001092C10086E08093C20082E08093C00095
:104850001092C5008FEC8093C40088E98093C1005A
:1048600087E591E00E94981980E591E00E94251C5F
:1048700081110BC08091AE018E7F8093AE0184E1E7
:1048800091E00E9498190E9416160E94FA1B882334
:1048900089F38091AE0181608093AE010E94A71AD6
:1048A00081110BC08091AE018E7F8093AE0180910B
:1048B000AE018F7E8093AE0115C08091AE01806104
:1048C0008093AE0185E591E00E94981919A61AA679
:1048D00018A61FA284E291E09EA38DA30E94A71AAE
:1048E00081110AC084E191E00E9498198EEF90E056
:1048F0000E9498190E94E81A6FE371E0CE018E5968
:104900009F4F0E94BB2641E0BE016E597F4FCE01F2
:1049100089960E947802811107C0CE0189960E9473
:1049200082130E94F216FEC07E0129E4E20EF11C01
:1049300000E05701BE016F5F7F4FCE0189960E9454
:10494000B919019711F4898102C08FEF9FEF87FD9C
:1049500008C08A3031F0F70181937F010F5F0D307D
:1049600049F7CE0189960E948213612C90E033E0D2
:10497000932E4AE1842E10E05AE2C52ED12CE12C70
:10498000F12C901768F08091000190E0A0E0B0E079
:10499000C816D906EA06FB0609F05BC080E061C0D4
:1049A000FE01E459FF4F302F391B80E0782E790E3D
:1049B000D501A70DB11D2C912C3239F0831729F0A8
:1049C000863019F021938F5FF1CFECE6F0E0EC0F29
:1049D000FD1FE80FF11D1082CE0184599F4F0E94E8
:1049E0009426611017C0CE0184599F4F0E94350252
:1049F0006B017C01DC01CB010897A109B10980376B
:104A00009105A105B10508F12AE2C22ED12CE12CB5
:104A1000F12C1BC0F1E06F1205C018169CF09AE152
:104A2000892E13C022E0621205C08F3F69F483E033
:104A3000982E0BC093E06912A6CF11E0813029F0C7
:104A400010E003C0882E01C0982E639491E0970D6A
:104A500098CF6C2D8DE090E00E941C16C092000152
:104A600081E09091AD01191749F01093AD0160916B
:104A7000AD0182E090E00E941C1681E09091AC01B3
:104A8000891649F08092AC016091AC0185E090E01C
:104A90000E941C1681E09091AB01991649F090920A
:104AA000AB016091AB0186E090E00E941C1601C052
:104AB00081110E94F2168091AD01811103C00E9404
:104AC0004C1629C08091AD01813039F51D821E82BE
:104AD0001C821B8284E291E09A83898362E371E005
:104AE000CE018A5A9F4F0E94BB2642E4BE016A5AF9
:104AF0007F4FCE0105960E947802811105C08BE19F
:104B000091E00E94981909C0CE0105960E94821377
:104B1000CE018A5A9F4F0E9420168091AE01886074
:104B20008093AE010E945C028EE491E00E9498198D
:104B30000E947419892B31F44AE069E270E080E048
:104B400090E006C06091000170E080E090E04AE0F3
:104B50000E943D1D8CE491E00E9498198AE491E046
:104B60000E94981961E085E00E94DC0F8FE491E0DB
:104B70000E94B11A8091AE0182608093AE01809153
:104B8000AE0184608093AE0100E010E00E948210CC
:104B9000C090B202D090B302E090B402F090B5029F
:104BA000DC01CB018C199D09AE09BF09853F9140FD
:104BB000A105B10508F44EC0F8948091A1038823A3
:104BC000C9F08091B0029091B1021816190694F4C0
:104BD0004091B0025091B10260EB71E08DE993E039
:104BE0000E9420021092B1021092B00281EA93E07A
:104BF0000E94931D78948091640080628093640089
:104C0000809164008460809364008091640082607D
:104C10008093640083B7816083BF889583B78E7F5C
:104C200083BF809164008B7F8093640080916400D7
:104C30008F7D80936400809164008D7F80936400F9
:104C40000E9482106093B2027093B3028093B40208
:104C50009093B5028091AF01882321F00E94F21653
:104C60001092AF010115110509F490CF0E940000C8
:104C70008DCF8AE18093AC016091AC0185E090E03A
:104C80000E941C16A9CDE1E8F3E01382128288EE9F
:104C900093E0A0E0B0E084839583A683B78326E009
:104CA00031E031832083E1E1F6E0138212828483D4
:104CB0009583A683B78380E391E091838083E5E9C0
:104CC000F3E08DE196E09183808381E290E0978329
:104CD00086831582148213821282EDE8F3E02EE3BC
:104CE00036E0318320839783868315821482138272
:104CF00012821092C6031092E8051092E90584E62C
:104D00008093080610920D0680E580930E0610929F
:104D10000F06EDE9F3E0148215821382128284E219
:104D200091E0918380830895FC0188279927E89476
:104D300021912032E9F3293010F02E30C8F32B32C4
:104D400041F02D3239F4689404C00E94CC26820FC1
:104D5000911D219120532A30C0F31EF49095819526
:104D60009F4F0895FB01DC018D9105908019011082
:104D7000D9F3990B0895FB01DC0105900D920020F9
:104D8000E1F70895DC016C9161566A3108F0605ECC
:104D90006F5B6D93C1F708957AE0979F902D879F81
:104DA000802D910D11240895AEE0B0E0EAEDF6E219
:104DB0000C9499290D891E898EE08C831A830983AE
:104DC0008FEF9FE79E838D83AE01475E5F4F6F89B4
:104DD000788DCE0101960E94F7262F813885F80143
:104DE000E20FF31F10822E96E4E00C94B529ACE09C
:104DF000B0E0EDEFF6E20C948B297C016B018A01A7
:104E0000FC0117821682838181FFBDC1CE0101960C
:104E10004C01F7019381F60193FD859193FF8191F8
:104E20006F01882309F4ABC1853239F493FD859174
:104E300093FF81916F01853229F4B70190E00E94C0
:104E4000DF28E7CF512C312C20E02032A0F48B3228
:104E500069F030F4803259F0833269F420612CC05B
:104E60008D3239F0803339F4216026C0226024600D
:104E700023C0286021C027FD27C030ED380F3A300D
:104E800078F426FF06C0FAE05F9E300D1124532E01
:104E900013C08AE0389E300D1124332E20620CC0DE
:104EA0008E3221F426FD6BC1206406C08C3611F4CD
:104EB000206802C0883641F4F60193FD859193FF86
:104EC00081916F018111C1CF982F9F7D95549330AF
:104ED00028F40C5F1F4FFFE3F9830DC0833631F0D8
:104EE000833771F0833509F05BC022C0F8018081FF
:104EF00089830E5F1F4F44244394512C540115C0E5
:104F00003801F2E06F0E711CF801A080B18026FF1D
:104F100003C0652D70E002C06FEF7FEFC5012C87E5
:104F20000E94D4282C0183012C852F77222E17C0B4
:104F30003801F2E06F0E711CF801A080B18026FFED
:104F400003C0652D70E002C06FEF7FEFC5012C87B5
:104F50000E94C9282C012C852068222E830123FC65
:104F60001BC0832D90E048165906B0F4B70180E2CB
:104F700090E00E94DF283A94F4CFF50127FC859158
:104F800027FE81915F01B70190E00E94DF28311078
:104F90003A94F1E04F1A51084114510471F7E5C0F9
:104FA000843611F0893639F5F80127FF07C0608192
:104FB0007181828193810C5F1F4F08C06081718174
:104FC000072E000C880B990B0E5F1F4F2F76722E49
:104FD00097FF09C090958095709561957F4F8F4F91
:104FE0009F4F2068722E2AE030E0A4010E9417290A
:104FF000A82EA81844C0853729F42F7EB22E2AE0A7
:1050000030E025C0F22FF97FBF2E8F36C1F018F4A3
:10501000883579F0B4C0803719F0883721F0AFC0F7
:105020002F2F2061B22EB4FE0DC08B2D8460B82EC0
:1050300009C024FF0AC09F2F9660B92E06C028E041
:1050400030E005C020E130E002C020E132E0F801AC
:10505000B7FE07C060817181828193810C5F1F4F11
:1050600006C06081718180E090E00E5F1F4FA40157
:105070000E941729A82EA818FB2DFF777F2E76FEF9
:105080000BC0372D3E7FA51450F474FE0AC072FC8D
:1050900008C0372D3E7E05C0BA2C372D03C0BA2C70
:1050A00001C0B52C34FF0DC0FE01EA0DF11D808159
:1050B000803311F4397E09C032FF06C0B394B39433
:1050C00004C0832F867809F0B39433FD13C030FFFA
:1050D00006C05A2CB31418F4530C5B18B32CB31439
:1050E00068F4B70180E290E03C870E94DF28B39427
:1050F0003C85F5CFB31410F43B1801C0312C34FFBC
:1051000012C0B70180E390E03C870E94DF283C8515
:1051100032FF17C031FD03C088E790E002C088E588
:1051200090E0B7010CC0832F867859F031FF02C0A0
:105130008BE201C080E237FD8DE2B70190E00E9472
:10514000DF28A51438F4B70180E390E00E94DF283F
:105150005A94F7CFAA94F401EA0DF11D8081B701AA
:1051600090E00E94DF28A110F5CF332009F451CE42
:10517000B70180E290E00E94DF283A94F6CFF70171
:105180008681978102C08FEF9FEF2C96E2E10C940D
:10519000A729FC010590615070400110D8F7809557
:1051A00090958E0F9F1F0895FC01615070400190F3
:1051B0000110D8F7809590958E0F9F1F08950F933B
:1051C0001F93CF93DF93FB01238121FD03C08FEF5A
:1051D0009FEF28C022FF16C0468157812481358168
:1051E0004217530744F4A081B1819D012F5F3F4FC7
:1051F000318320838C93268137812F5F3F4F378304
:10520000268310C0EB01092F182F0084F185E02DB3
:105210000995892BE1F68E819F8101969F838E836C
:10522000812F902FDF91CF911F910F910895FA0157
:10523000AA27283051F1203181F1E8946F936E7FD5
:105240006E5F7F4F8F4F9F4FAF4FB1E03ED0B4E0C6
:105250003CD0670F781F891F9A1FA11D680F791F07
:105260008A1F911DA11D6A0F711D811D911DA11D18
:1052700020D009F468943F912AE0269F1124301928
:10528000305D3193DEF6CF010895462F4770405DC3
:105290004193B3E00FD0C9F7F6CF462F4F70405D72
:1052A0004A3318F0495D31FD4052419302D0A9F7CD
:1052B000EACFB4E0A6959795879577956795BA95C7
:1052C000C9F700976105710508959B01AC010A2E8D
:1052D00006945795479537952795BA95C9F7620F64
:1052E000731F841F951FA01D0895F999FECF92BDCD
:1052F00081BDF89A992780B50895262FF999FECF98
:105300001FBA92BD81BD20BD0FB6F894FA9AF99AE2
:105310000FBE019608952F923F924F925F926F9227
:105320007F928F929F92AF92BF92CF92DF92EF9235
:10533000FF920F931F93CF93DF93CDB7DEB7CA1BB6
:10534000DB0B0FB6F894DEBF0FBECDBF09942A88E1
:10535000398848885F846E847D848C849B84AA8489
:10536000B984C884DF80EE80FD800C811B81AA8116
:10537000B981CE0FD11D0FB6F894DEBF0FBECDBFE1
:10538000ED010895AA1BBB1B51E107C0AA1FBB1F5B
:10539000A617B70710F0A61BB70B881F991F5A95C1
:1053A000A9F780959095BC01CD010895A1E21A2E30
:1053B000AA1BBB1BFD010DC0AA1FBB1FEE1FFF1FB9
:1053C000A217B307E407F50720F0A21BB30BE40B09
:1053D000F50B661F771F881F991F1A9469F7609550
:1053E0007095809590959B01AC01BD01CF0108950A
:1053F0000E94092AA59F900DB49F900DA49F800D37
:10540000911D11240895EE0FFF1F0590F491E02DDA
:105410000994A29FB001B39FC001A39F700D811D8D
:105420001124911DB29F700D811D1124911D0895AD
:1054300081E090E0F8940C94652AFB01DC0104C043
:105440008D910190801921F441505040C8F7881B7C
:10545000990B0895FB01DC0102C001900D924150AF
:105460005040D8F70895FB01DC014150504048F00E
:1054700001900D920020C9F701C01D92415050408B
:10548000E0F70895AEE0B0E0E8E4FAE20C94992980
:105490000D891E8986E08C831A8309838FEF9FE72D
:1054A0009E838D83AE01475E5F4F6F89788DCE01FD
:1054B00001960E94F7262F813885F801E20FF31F2D
:0E54C00010822E96E4E00C94B529F894FFCFEC
:1054CE002A010000000082126E126F014212661253
:1054DE005212431200000000230220026F011D022F
:1054EE0000000000230220026F011D0200000000D8
:1054FE00F81222136F01EC12D612AE1293120000A4
:10550E000000B10F610F6F016E010D0A0025732FA0
:04551E0000257300F1
:107E0000112484B714BE81FFF0D085E080938100F7
:107E100082E08093C00088E18093C10086E0809377
:107E2000C20080E18093C4008EE0C9D0259A86E02C
:107E300020E33CEF91E0309385002093840096BBD3
:107E4000B09BFECF1D9AA8958150A9F7CC24DD24C4
:107E500088248394B5E0AB2EA1E19A2EF3E0BF2EE7
:107E6000A2D0813461F49FD0082FAFD0023811F036
:107E7000013811F484E001C083E08DD089C08234E0
:107E800011F484E103C0853419F485E0A6D080C0E4
:107E9000853579F488D0E82EFF2485D0082F10E0AE
:107EA000102F00270E291F29000F111F8ED06801E7
:107EB0006FC0863521F484E090D080E0DECF843638
:107EC00009F040C070D06FD0082F6DD080E0C81688
:107ED00080E7D80618F4F601B7BEE895C0E0D1E017
:107EE00062D089930C17E1F7F0E0CF16F0E7DF06D8
:107EF00018F0F601B7BEE89568D007B600FCFDCFD4
:107F0000A601A0E0B1E02C9130E011968C91119780
:107F100090E0982F8827822B932B1296FA010C0160
:107F200087BEE89511244E5F5F4FF1E0A038BF0790
:107F300051F7F601A7BEE89507B600FCFDCF97BE46
:107F4000E89526C08437B1F42ED02DD0F82E2BD052
:107F50003CD0F601EF2C8F010F5F1F4F84911BD097
:107F6000EA94F801C1F70894C11CD11CFA94CF0C13
:107F7000D11C0EC0853739F428D08EE10CD085E9AC
:107F80000AD08FE07ACF813511F488E018D01DD067
:107F900080E101D065CF982F8091C00085FFFCCF94
:107FA0009093C60008958091C00087FFFCCF809118
:107FB000C00084FD01C0A8958091C6000895E0E648
:107FC000F0E098E1908380830895EDDF803219F02E
:107FD00088E0F5DFFFCF84E1DECF1F93182FE3DFCA
:107FE0001150E9F7F2DF1F91089580E0E8DFEE27F6
:047FF000FF270994CA
:027FFE00040479
:0400000300007E007B
:00000001FF
